{
  "_format": "hh-sol-artifact-1",
  "contractName": "GhoFlashMinter",
  "sourceName": "src/contracts/facilitators/flashMinter/GhoFlashMinter.sol",
  "abi": [
    {
      "inputs": [
        {
          "internalType": "address",
          "name": "ghoToken",
          "type": "address"
        },
        {
          "internalType": "address",
          "name": "ghoTreasury",
          "type": "address"
        },
        {
          "internalType": "uint256",
          "name": "fee",
          "type": "uint256"
        },
        {
          "internalType": "address",
          "name": "addressesProvider",
          "type": "address"
        }
      ],
      "stateMutability": "nonpayable",
      "type": "constructor"
    },
    {
      "anonymous": false,
      "inputs": [
        {
          "indexed": false,
          "internalType": "uint256",
          "name": "oldFee",
          "type": "uint256"
        },
        {
          "indexed": false,
          "internalType": "uint256",
          "name": "newFee",
          "type": "uint256"
        }
      ],
      "name": "FeeUpdated",
      "type": "event"
    },
    {
      "anonymous": false,
      "inputs": [
        {
          "indexed": true,
          "internalType": "address",
          "name": "ghoTreasury",
          "type": "address"
        },
        {
          "indexed": true,
          "internalType": "address",
          "name": "asset",
          "type": "address"
        },
        {
          "indexed": false,
          "internalType": "uint256",
          "name": "amount",
          "type": "uint256"
        }
      ],
      "name": "FeesDistributedToTreasury",
      "type": "event"
    },
    {
      "anonymous": false,
      "inputs": [
        {
          "indexed": true,
          "internalType": "address",
          "name": "receiver",
          "type": "address"
        },
        {
          "indexed": true,
          "internalType": "address",
          "name": "initiator",
          "type": "address"
        },
        {
          "indexed": false,
          "internalType": "address",
          "name": "asset",
          "type": "address"
        },
        {
          "indexed": true,
          "internalType": "uint256",
          "name": "amount",
          "type": "uint256"
        },
        {
          "indexed": false,
          "internalType": "uint256",
          "name": "fee",
          "type": "uint256"
        }
      ],
      "name": "FlashMint",
      "type": "event"
    },
    {
      "anonymous": false,
      "inputs": [
        {
          "indexed": true,
          "internalType": "address",
          "name": "oldGhoTreasury",
          "type": "address"
        },
        {
          "indexed": true,
          "internalType": "address",
          "name": "newGhoTreasury",
          "type": "address"
        }
      ],
      "name": "GhoTreasuryUpdated",
      "type": "event"
    },
    {
      "inputs": [],
      "name": "ADDRESSES_PROVIDER",
      "outputs": [
        {
          "internalType": "contract IPoolAddressesProvider",
          "name": "",
          "type": "address"
        }
      ],
      "stateMutability": "view",
      "type": "function"
    },
    {
      "inputs": [],
      "name": "CALLBACK_SUCCESS",
      "outputs": [
        {
          "internalType": "bytes32",
          "name": "",
          "type": "bytes32"
        }
      ],
      "stateMutability": "view",
      "type": "function"
    },
    {
      "inputs": [],
      "name": "GHO_TOKEN",
      "outputs": [
        {
          "internalType": "contract IGhoToken",
          "name": "",
          "type": "address"
        }
      ],
      "stateMutability": "view",
      "type": "function"
    },
    {
      "inputs": [],
      "name": "MAX_FEE",
      "outputs": [
        {
          "internalType": "uint256",
          "name": "",
          "type": "uint256"
        }
      ],
      "stateMutability": "view",
      "type": "function"
    },
    {
      "inputs": [],
      "name": "distributeFeesToTreasury",
      "outputs": [],
      "stateMutability": "nonpayable",
      "type": "function"
    },
    {
      "inputs": [
        {
          "internalType": "address",
          "name": "token",
          "type": "address"
        },
        {
          "internalType": "uint256",
          "name": "amount",
          "type": "uint256"
        }
      ],
      "name": "flashFee",
      "outputs": [
        {
          "internalType": "uint256",
          "name": "",
          "type": "uint256"
        }
      ],
      "stateMutability": "view",
      "type": "function"
    },
    {
      "inputs": [
        {
          "internalType": "contract IERC3156FlashBorrower",
          "name": "receiver",
          "type": "address"
        },
        {
          "internalType": "address",
          "name": "token",
          "type": "address"
        },
        {
          "internalType": "uint256",
          "name": "amount",
          "type": "uint256"
        },
        {
          "internalType": "bytes",
          "name": "data",
          "type": "bytes"
        }
      ],
      "name": "flashLoan",
      "outputs": [
        {
          "internalType": "bool",
          "name": "",
          "type": "bool"
        }
      ],
      "stateMutability": "nonpayable",
      "type": "function"
    },
    {
      "inputs": [],
      "name": "getFee",
      "outputs": [
        {
          "internalType": "uint256",
          "name": "",
          "type": "uint256"
        }
      ],
      "stateMutability": "view",
      "type": "function"
    },
    {
      "inputs": [],
      "name": "getGhoTreasury",
      "outputs": [
        {
          "internalType": "address",
          "name": "",
          "type": "address"
        }
      ],
      "stateMutability": "view",
      "type": "function"
    },
    {
      "inputs": [
        {
          "internalType": "address",
          "name": "token",
          "type": "address"
        }
      ],
      "name": "maxFlashLoan",
      "outputs": [
        {
          "internalType": "uint256",
          "name": "",
          "type": "uint256"
        }
      ],
      "stateMutability": "view",
      "type": "function"
    },
    {
      "inputs": [
        {
          "internalType": "uint256",
          "name": "newFee",
          "type": "uint256"
        }
      ],
      "name": "updateFee",
      "outputs": [],
      "stateMutability": "nonpayable",
      "type": "function"
    },
    {
      "inputs": [
        {
          "internalType": "address",
          "name": "newGhoTreasury",
          "type": "address"
        }
      ],
      "name": "updateGhoTreasury",
      "outputs": [],
      "stateMutability": "nonpayable",
      "type": "function"
    }
  ],
  "bytecode": "0x60e06040523480156200001157600080fd5b50604051620017433803806200174383398101604081905262000034916200014f565b6127108211156200008b5760405162461bcd60e51b815260206004820152601d60248201527f466c6173684d696e7465723a20466565206f7574206f662072616e6765000000604482015260640160405180910390fd5b6001600160a01b0384811660a052600180546001600160a01b0319168583161790556000839055811660808190526040805163383e6b8b60e11b8152905163707cd716916004808201926020929091908290030181865afa158015620000f5573d6000803e3d6000fd5b505050506040513d601f19601f820116820180604052508101906200011b9190620001a3565b6001600160a01b031660c05250620001c892505050565b80516001600160a01b03811681146200014a57600080fd5b919050565b600080600080608085870312156200016657600080fd5b620001718562000132565b9350620001816020860162000132565b925060408501519150620001986060860162000132565b905092959194509250565b600060208284031215620001b657600080fd5b620001c18262000132565b9392505050565b60805160a05160c0516114e3620002606000396000818161025c015281816104cc01528181610b040152610da60152600081816101c2015281816103c2015281816105b00152818161067c0152818161076d0152818161086b015281816108f501528181610964015281816109ee01528181610c9f01528181610e7301528181610f450152610fd30152600060de01526114e36000f3fe608060405234801561001057600080fd5b50600436106100d45760003560e01c8063b1c660f711610081578063d9d98ce41161005b578063d9d98ce4146101f5578063dc49a07b14610208578063e28178cc1461021057600080fd5b8063b1c660f7146101bd578063bc063e1a146101e4578063ced72f87146101ed57600080fd5b8063613255ab116100b2578063613255ab146101625780638237e538146101835780639012c4a8146101aa57600080fd5b80630542975c146100d95780631fde40bb1461012a5780635cffe9de1461013f575b600080fd5b6101007f000000000000000000000000000000000000000000000000000000000000000081565b60405173ffffffffffffffffffffffffffffffffffffffff90911681526020015b60405180910390f35b61013d6101383660046110a4565b61022e565b005b61015261014d3660046110c1565b6103be565b6040519015158152602001610121565b6101756101703660046110a4565b610960565b604051908152602001610121565b6101757f439148f0bbc682ca079e46d6e2c2f0c1e3b820f1a291b069d8882abf8cf18dd981565b61013d6101b8366004611160565b610ad6565b6101007f000000000000000000000000000000000000000000000000000000000000000081565b61017561271081565b600054610175565b610175610203366004611179565b610c9b565b61013d610e42565b60015473ffffffffffffffffffffffffffffffffffffffff16610100565b6040517f7be53ca10000000000000000000000000000000000000000000000000000000081523360048201527f000000000000000000000000000000000000000000000000000000000000000073ffffffffffffffffffffffffffffffffffffffff1690637be53ca190602401602060405180830381865afa1580156102b8573d6000803e3d6000fd5b505050506040513d601f19601f820116820180604052508101906102dc91906111a5565b610347576040517f08c379a000000000000000000000000000000000000000000000000000000000815260206004820152601560248201527f43414c4c45525f4e4f545f504f4f4c5f41444d494e000000000000000000000060448201526064015b60405180910390fd5b6001805473ffffffffffffffffffffffffffffffffffffffff8381167fffffffffffffffffffffffff0000000000000000000000000000000000000000831681179093556040519116919082907f13f4413d8d93a259bd6c10f35095371f30ed50f81a73407e52e9f02000d5d16b90600090a35050565b60007f000000000000000000000000000000000000000000000000000000000000000073ffffffffffffffffffffffffffffffffffffffff168573ffffffffffffffffffffffffffffffffffffffff161461049b576040517f08c379a000000000000000000000000000000000000000000000000000000000815260206004820152602160248201527f466c6173684d696e7465723a20556e737570706f727465642063757272656e6360448201527f7900000000000000000000000000000000000000000000000000000000000000606482015260840161033e565b6040517ffa50f2970000000000000000000000000000000000000000000000000000000081523360048201526000907f000000000000000000000000000000000000000000000000000000000000000073ffffffffffffffffffffffffffffffffffffffff169063fa50f29790602401602060405180830381865afa158015610528573d6000803e3d6000fd5b505050506040513d601f19601f8201168201806040525081019061054c91906111a5565b61055e5761055985611027565b610561565b60005b6040517f40c10f1900000000000000000000000000000000000000000000000000000000815273ffffffffffffffffffffffffffffffffffffffff8981166004830152602482018890529192507f0000000000000000000000000000000000000000000000000000000000000000909116906340c10f1990604401600060405180830381600087803b1580156105f657600080fd5b505af115801561060a573d6000803e3d6000fd5b50506040517f23e30c8b0000000000000000000000000000000000000000000000000000000081527f439148f0bbc682ca079e46d6e2c2f0c1e3b820f1a291b069d8882abf8cf18dd9925073ffffffffffffffffffffffffffffffffffffffff8a1691506323e30c8b906106ac9033907f0000000000000000000000000000000000000000000000000000000000000000908b9088908c908c906004016111c7565b6020604051808303816000875af11580156106cb573d6000803e3d6000fd5b505050506040513d601f19601f820116820180604052508101906106ef919061124d565b14610756576040517f08c379a000000000000000000000000000000000000000000000000000000000815260206004820152601c60248201527f466c6173684d696e7465723a2043616c6c6261636b206661696c656400000000604482015260640161033e565b73ffffffffffffffffffffffffffffffffffffffff7f0000000000000000000000000000000000000000000000000000000000000000166323b872dd883061079e858a611295565b6040517fffffffff0000000000000000000000000000000000000000000000000000000060e086901b16815273ffffffffffffffffffffffffffffffffffffffff938416600482015292909116602483015260448201526064016020604051808303816000875af1158015610817573d6000803e3d6000fd5b505050506040513d601f19601f8201168201806040525081019061083b91906111a5565b506040517f42966c68000000000000000000000000000000000000000000000000000000008152600481018690527f000000000000000000000000000000000000000000000000000000000000000073ffffffffffffffffffffffffffffffffffffffff16906342966c6890602401600060405180830381600087803b1580156108c457600080fd5b505af11580156108d8573d6000803e3d6000fd5b50506040805173ffffffffffffffffffffffffffffffffffffffff7f000000000000000000000000000000000000000000000000000000000000000081168252602082018690528994503393508b16917f9c1558194024d73db1b6fc2739c3070cacc4598122100dd6f7d3a3dd8cee5f36910160405180910390a45060019695505050505050565b60007f000000000000000000000000000000000000000000000000000000000000000073ffffffffffffffffffffffffffffffffffffffff168273ffffffffffffffffffffffffffffffffffffffff16146109bd57506000919050565b6040517fd46ec0ed0000000000000000000000000000000000000000000000000000000081523060048201526000907f000000000000000000000000000000000000000000000000000000000000000073ffffffffffffffffffffffffffffffffffffffff169063d46ec0ed90602401600060405180830381865afa158015610a4a573d6000803e3d6000fd5b505050506040513d6000823e601f3d9081017fffffffffffffffffffffffffffffffffffffffffffffffffffffffffffffffe0168201604052610a909190810190611374565b805160208201519192506fffffffffffffffffffffffffffffffff9081169116808211610abe576000610ac8565b610ac88183611496565b95945050505050565b919050565b6040517f7be53ca10000000000000000000000000000000000000000000000000000000081523360048201527f000000000000000000000000000000000000000000000000000000000000000073ffffffffffffffffffffffffffffffffffffffff1690637be53ca190602401602060405180830381865afa158015610b60573d6000803e3d6000fd5b505050506040513d601f19601f82011682018060405250810190610b8491906111a5565b610bea576040517f08c379a000000000000000000000000000000000000000000000000000000000815260206004820152601560248201527f43414c4c45525f4e4f545f504f4f4c5f41444d494e0000000000000000000000604482015260640161033e565b612710811115610c56576040517f08c379a000000000000000000000000000000000000000000000000000000000815260206004820152601d60248201527f466c6173684d696e7465723a20466565206f7574206f662072616e6765000000604482015260640161033e565b600080549082905560408051828152602081018490527f528d9479e9f9889a87a3c30c7f7ba537e5e59c4c85a37733b16e57c62df61302910160405180910390a15050565b60007f000000000000000000000000000000000000000000000000000000000000000073ffffffffffffffffffffffffffffffffffffffff168373ffffffffffffffffffffffffffffffffffffffff1614610d78576040517f08c379a000000000000000000000000000000000000000000000000000000000815260206004820152602160248201527f466c6173684d696e7465723a20556e737570706f727465642063757272656e6360448201527f7900000000000000000000000000000000000000000000000000000000000000606482015260840161033e565b6040517ffa50f2970000000000000000000000000000000000000000000000000000000081523360048201527f000000000000000000000000000000000000000000000000000000000000000073ffffffffffffffffffffffffffffffffffffffff169063fa50f29790602401602060405180830381865afa158015610e02573d6000803e3d6000fd5b505050506040513d601f19601f82011682018060405250810190610e2691906111a5565b610e3857610e3382611027565b610e3b565b60005b9392505050565b6040517f70a082310000000000000000000000000000000000000000000000000000000081523060048201526000907f000000000000000000000000000000000000000000000000000000000000000073ffffffffffffffffffffffffffffffffffffffff16906370a0823190602401602060405180830381865afa158015610ecf573d6000803e3d6000fd5b505050506040513d601f19601f82011682018060405250810190610ef3919061124d565b6001546040517fa9059cbb00000000000000000000000000000000000000000000000000000000815273ffffffffffffffffffffffffffffffffffffffff9182166004820152602481018390529192507f0000000000000000000000000000000000000000000000000000000000000000169063a9059cbb906044016020604051808303816000875af1158015610f8e573d6000803e3d6000fd5b505050506040513d601f19601f82011682018060405250810190610fb291906111a5565b5060015460405182815273ffffffffffffffffffffffffffffffffffffffff7f000000000000000000000000000000000000000000000000000000000000000081169216907fb29fcda740927812f5a71075b62e132bead3769a455319c29b9a1cc461a654759060200160405180910390a350565b6000805461103690839061103c565b92915050565b600081157fffffffffffffffffffffffffffffffffffffffffffffffffffffffffffffec778390048411151761107157600080fd5b506127109102611388010490565b73ffffffffffffffffffffffffffffffffffffffff811681146110a157600080fd5b50565b6000602082840312156110b657600080fd5b8135610e3b8161107f565b6000806000806000608086880312156110d957600080fd5b85356110e48161107f565b945060208601356110f48161107f565b935060408601359250606086013567ffffffffffffffff8082111561111857600080fd5b818801915088601f83011261112c57600080fd5b81358181111561113b57600080fd5b89602082850101111561114d57600080fd5b9699959850939650602001949392505050565b60006020828403121561117257600080fd5b5035919050565b6000806040838503121561118c57600080fd5b82356111978161107f565b946020939093013593505050565b6000602082840312156111b757600080fd5b81518015158114610e3b57600080fd5b600073ffffffffffffffffffffffffffffffffffffffff808916835280881660208401525085604083015284606083015260a060808301528260a0830152828460c0840137600060c0848401015260c07fffffffffffffffffffffffffffffffffffffffffffffffffffffffffffffffe0601f8501168301019050979650505050505050565b60006020828403121561125f57600080fd5b5051919050565b7f4e487b7100000000000000000000000000000000000000000000000000000000600052601160045260246000fd5b600082198211156112a8576112a8611266565b500190565b7f4e487b7100000000000000000000000000000000000000000000000000000000600052604160045260246000fd5b6040516060810167ffffffffffffffff811182821017156112ff576112ff6112ad565b60405290565b604051601f82017fffffffffffffffffffffffffffffffffffffffffffffffffffffffffffffffe016810167ffffffffffffffff8111828210171561134c5761134c6112ad565b604052919050565b80516fffffffffffffffffffffffffffffffff81168114610ad157600080fd5b6000602080838503121561138757600080fd5b825167ffffffffffffffff8082111561139f57600080fd5b90840190606082870312156113b357600080fd5b6113bb6112dc565b6113c483611354565b81526113d1848401611354565b848201526040830151828111156113e757600080fd5b80840193505086601f8401126113fc57600080fd5b82518281111561140e5761140e6112ad565b61143e857fffffffffffffffffffffffffffffffffffffffffffffffffffffffffffffffe0601f84011601611305565b9250808352878582860101111561145457600080fd5b60005b81811015611472578481018601518482018701528501611457565b818111156114835760008683860101525b5050604081019190915295945050505050565b6000828210156114a8576114a8611266565b50039056fea264697066735822122096db894549d12c51da9e1b0414cc2a5a586bd302214ac621696f0dbdc897a6ec64736f6c634300080a0033",
  "linkReferences": {},
  "deployedLinkReferences": {}
}