{
  "_format": "hh-sol-artifact-1",
  "contractName": "IncentivesControllerV2",
  "sourceName": "contracts/incentives-v2/IncentivesControllerV2.sol",
  "abi": [
    {
      "inputs": [
        {
          "internalType": "address",
          "name": "emissionManager",
          "type": "address"
        }
      ],
      "stateMutability": "nonpayable",
      "type": "constructor"
    },
    {
      "anonymous": false,
      "inputs": [
        {
          "indexed": true,
          "internalType": "address",
          "name": "asset",
          "type": "address"
        },
        {
          "indexed": true,
          "internalType": "address",
          "name": "reward",
          "type": "address"
        },
        {
          "indexed": false,
          "internalType": "uint256",
          "name": "emission",
          "type": "uint256"
        },
        {
          "indexed": false,
          "internalType": "uint256",
          "name": "distributionEnd",
          "type": "uint256"
        }
      ],
      "name": "AssetConfigUpdated",
      "type": "event"
    },
    {
      "anonymous": false,
      "inputs": [
        {
          "indexed": true,
          "internalType": "address",
          "name": "asset",
          "type": "address"
        },
        {
          "indexed": true,
          "internalType": "address",
          "name": "reward",
          "type": "address"
        },
        {
          "indexed": false,
          "internalType": "uint256",
          "name": "index",
          "type": "uint256"
        }
      ],
      "name": "AssetIndexUpdated",
      "type": "event"
    },
    {
      "anonymous": false,
      "inputs": [
        {
          "indexed": true,
          "internalType": "address",
          "name": "user",
          "type": "address"
        },
        {
          "indexed": true,
          "internalType": "address",
          "name": "claimer",
          "type": "address"
        }
      ],
      "name": "ClaimerSet",
      "type": "event"
    },
    {
      "anonymous": false,
      "inputs": [
        {
          "indexed": true,
          "internalType": "address",
          "name": "reward",
          "type": "address"
        },
        {
          "indexed": true,
          "internalType": "address",
          "name": "rewardOracle",
          "type": "address"
        }
      ],
      "name": "RewardOracleUpdated",
      "type": "event"
    },
    {
      "anonymous": false,
      "inputs": [
        {
          "indexed": true,
          "internalType": "address",
          "name": "user",
          "type": "address"
        },
        {
          "indexed": true,
          "internalType": "address",
          "name": "reward",
          "type": "address"
        },
        {
          "indexed": false,
          "internalType": "uint256",
          "name": "amount",
          "type": "uint256"
        }
      ],
      "name": "RewardsAccrued",
      "type": "event"
    },
    {
      "anonymous": false,
      "inputs": [
        {
          "indexed": true,
          "internalType": "address",
          "name": "user",
          "type": "address"
        },
        {
          "indexed": true,
          "internalType": "address",
          "name": "reward",
          "type": "address"
        },
        {
          "indexed": true,
          "internalType": "address",
          "name": "to",
          "type": "address"
        },
        {
          "indexed": false,
          "internalType": "address",
          "name": "claimer",
          "type": "address"
        },
        {
          "indexed": false,
          "internalType": "uint256",
          "name": "amount",
          "type": "uint256"
        }
      ],
      "name": "RewardsClaimed",
      "type": "event"
    },
    {
      "anonymous": false,
      "inputs": [
        {
          "indexed": true,
          "internalType": "address",
          "name": "reward",
          "type": "address"
        },
        {
          "indexed": true,
          "internalType": "address",
          "name": "transferStrategy",
          "type": "address"
        }
      ],
      "name": "TransferStrategyInstalled",
      "type": "event"
    },
    {
      "anonymous": false,
      "inputs": [
        {
          "indexed": true,
          "internalType": "address",
          "name": "user",
          "type": "address"
        },
        {
          "indexed": true,
          "internalType": "address",
          "name": "asset",
          "type": "address"
        },
        {
          "indexed": true,
          "internalType": "address",
          "name": "reward",
          "type": "address"
        },
        {
          "indexed": false,
          "internalType": "uint256",
          "name": "index",
          "type": "uint256"
        }
      ],
      "name": "UserIndexUpdated",
      "type": "event"
    },
    {
      "inputs": [],
      "name": "EMISSION_MANAGER",
      "outputs": [
        {
          "internalType": "address",
          "name": "",
          "type": "address"
        }
      ],
      "stateMutability": "view",
      "type": "function"
    },
    {
      "inputs": [],
      "name": "PRECISION",
      "outputs": [
        {
          "internalType": "uint8",
          "name": "",
          "type": "uint8"
        }
      ],
      "stateMutability": "view",
      "type": "function"
    },
    {
      "inputs": [],
      "name": "REVISION",
      "outputs": [
        {
          "internalType": "uint256",
          "name": "",
          "type": "uint256"
        }
      ],
      "stateMutability": "view",
      "type": "function"
    },
    {
      "inputs": [
        {
          "internalType": "address[]",
          "name": "assets",
          "type": "address[]"
        },
        {
          "internalType": "address",
          "name": "to",
          "type": "address"
        }
      ],
      "name": "claimAllRewards",
      "outputs": [
        {
          "internalType": "address[]",
          "name": "rewardsList",
          "type": "address[]"
        },
        {
          "internalType": "uint256[]",
          "name": "claimedAmounts",
          "type": "uint256[]"
        }
      ],
      "stateMutability": "nonpayable",
      "type": "function"
    },
    {
      "inputs": [
        {
          "internalType": "address[]",
          "name": "assets",
          "type": "address[]"
        },
        {
          "internalType": "address",
          "name": "user",
          "type": "address"
        },
        {
          "internalType": "address",
          "name": "to",
          "type": "address"
        }
      ],
      "name": "claimAllRewardsOnBehalf",
      "outputs": [
        {
          "internalType": "address[]",
          "name": "rewardsList",
          "type": "address[]"
        },
        {
          "internalType": "uint256[]",
          "name": "claimedAmounts",
          "type": "uint256[]"
        }
      ],
      "stateMutability": "nonpayable",
      "type": "function"
    },
    {
      "inputs": [
        {
          "internalType": "address[]",
          "name": "assets",
          "type": "address[]"
        }
      ],
      "name": "claimAllRewardsToSelf",
      "outputs": [
        {
          "internalType": "address[]",
          "name": "rewardsList",
          "type": "address[]"
        },
        {
          "internalType": "uint256[]",
          "name": "claimedAmounts",
          "type": "uint256[]"
        }
      ],
      "stateMutability": "nonpayable",
      "type": "function"
    },
    {
      "inputs": [
        {
          "internalType": "address[]",
          "name": "assets",
          "type": "address[]"
        },
        {
          "internalType": "uint256",
          "name": "amount",
          "type": "uint256"
        },
        {
          "internalType": "address",
          "name": "to",
          "type": "address"
        },
        {
          "internalType": "address",
          "name": "reward",
          "type": "address"
        }
      ],
      "name": "claimRewards",
      "outputs": [
        {
          "internalType": "uint256",
          "name": "",
          "type": "uint256"
        }
      ],
      "stateMutability": "nonpayable",
      "type": "function"
    },
    {
      "inputs": [
        {
          "internalType": "address[]",
          "name": "assets",
          "type": "address[]"
        },
        {
          "internalType": "uint256",
          "name": "amount",
          "type": "uint256"
        },
        {
          "internalType": "address",
          "name": "user",
          "type": "address"
        },
        {
          "internalType": "address",
          "name": "to",
          "type": "address"
        },
        {
          "internalType": "address",
          "name": "reward",
          "type": "address"
        }
      ],
      "name": "claimRewardsOnBehalf",
      "outputs": [
        {
          "internalType": "uint256",
          "name": "",
          "type": "uint256"
        }
      ],
      "stateMutability": "nonpayable",
      "type": "function"
    },
    {
      "inputs": [
        {
          "internalType": "address[]",
          "name": "assets",
          "type": "address[]"
        },
        {
          "internalType": "uint256",
          "name": "amount",
          "type": "uint256"
        },
        {
          "internalType": "address",
          "name": "reward",
          "type": "address"
        }
      ],
      "name": "claimRewardsToSelf",
      "outputs": [
        {
          "internalType": "uint256",
          "name": "",
          "type": "uint256"
        }
      ],
      "stateMutability": "nonpayable",
      "type": "function"
    },
    {
      "inputs": [
        {
          "components": [
            {
              "internalType": "uint88",
              "name": "emissionPerSecond",
              "type": "uint88"
            },
            {
              "internalType": "uint256",
              "name": "totalSupply",
              "type": "uint256"
            },
            {
              "internalType": "uint32",
              "name": "distributionEnd",
              "type": "uint32"
            },
            {
              "internalType": "address",
              "name": "asset",
              "type": "address"
            },
            {
              "internalType": "address",
              "name": "reward",
              "type": "address"
            },
            {
              "internalType": "contract ITransferStrategyBase",
              "name": "transferStrategy",
              "type": "address"
            },
            {
              "internalType": "contract IEACAggregatorProxy",
              "name": "rewardOracle",
              "type": "address"
            }
          ],
          "internalType": "struct DistributionTypesV2.RewardsConfigInput[]",
          "name": "config",
          "type": "tuple[]"
        }
      ],
      "name": "configureAssets",
      "outputs": [],
      "stateMutability": "nonpayable",
      "type": "function"
    },
    {
      "inputs": [
        {
          "internalType": "address[]",
          "name": "assets",
          "type": "address[]"
        },
        {
          "internalType": "address",
          "name": "user",
          "type": "address"
        }
      ],
      "name": "getAllUserRewardsBalance",
      "outputs": [
        {
          "internalType": "address[]",
          "name": "rewardsList",
          "type": "address[]"
        },
        {
          "internalType": "uint256[]",
          "name": "unclaimedAmounts",
          "type": "uint256[]"
        }
      ],
      "stateMutability": "view",
      "type": "function"
    },
    {
      "inputs": [
        {
          "internalType": "address",
          "name": "user",
          "type": "address"
        }
      ],
      "name": "getClaimer",
      "outputs": [
        {
          "internalType": "address",
          "name": "",
          "type": "address"
        }
      ],
      "stateMutability": "view",
      "type": "function"
    },
    {
      "inputs": [
        {
          "internalType": "address",
          "name": "asset",
          "type": "address"
        },
        {
          "internalType": "address",
          "name": "reward",
          "type": "address"
        }
      ],
      "name": "getDistributionEnd",
      "outputs": [
        {
          "internalType": "uint256",
          "name": "",
          "type": "uint256"
        }
      ],
      "stateMutability": "view",
      "type": "function"
    },
    {
      "inputs": [
        {
          "internalType": "address",
          "name": "reward",
          "type": "address"
        }
      ],
      "name": "getRewardOracle",
      "outputs": [
        {
          "internalType": "address",
          "name": "",
          "type": "address"
        }
      ],
      "stateMutability": "view",
      "type": "function"
    },
    {
      "inputs": [
        {
          "internalType": "address",
          "name": "asset",
          "type": "address"
        }
      ],
      "name": "getRewardsByAsset",
      "outputs": [
        {
          "internalType": "address[]",
          "name": "",
          "type": "address[]"
        }
      ],
      "stateMutability": "view",
      "type": "function"
    },
    {
      "inputs": [
        {
          "internalType": "address",
          "name": "asset",
          "type": "address"
        },
        {
          "internalType": "address",
          "name": "reward",
          "type": "address"
        }
      ],
      "name": "getRewardsData",
      "outputs": [
        {
          "internalType": "uint256",
          "name": "",
          "type": "uint256"
        },
        {
          "internalType": "uint256",
          "name": "",
          "type": "uint256"
        },
        {
          "internalType": "uint256",
          "name": "",
          "type": "uint256"
        },
        {
          "internalType": "uint256",
          "name": "",
          "type": "uint256"
        }
      ],
      "stateMutability": "view",
      "type": "function"
    },
    {
      "inputs": [],
      "name": "getRewardsList",
      "outputs": [
        {
          "internalType": "address[]",
          "name": "",
          "type": "address[]"
        }
      ],
      "stateMutability": "view",
      "type": "function"
    },
    {
      "inputs": [
        {
          "internalType": "address",
          "name": "reward",
          "type": "address"
        }
      ],
      "name": "getTransferStrategy",
      "outputs": [
        {
          "internalType": "address",
          "name": "",
          "type": "address"
        }
      ],
      "stateMutability": "view",
      "type": "function"
    },
    {
      "inputs": [
        {
          "internalType": "address",
          "name": "user",
          "type": "address"
        },
        {
          "internalType": "address",
          "name": "asset",
          "type": "address"
        },
        {
          "internalType": "address",
          "name": "reward",
          "type": "address"
        }
      ],
      "name": "getUserAssetData",
      "outputs": [
        {
          "internalType": "uint256",
          "name": "",
          "type": "uint256"
        }
      ],
      "stateMutability": "view",
      "type": "function"
    },
    {
      "inputs": [
        {
          "internalType": "address[]",
          "name": "assets",
          "type": "address[]"
        },
        {
          "internalType": "address",
          "name": "user",
          "type": "address"
        },
        {
          "internalType": "address",
          "name": "reward",
          "type": "address"
        }
      ],
      "name": "getUserRewardsBalance",
      "outputs": [
        {
          "internalType": "uint256",
          "name": "",
          "type": "uint256"
        }
      ],
      "stateMutability": "view",
      "type": "function"
    },
    {
      "inputs": [
        {
          "internalType": "address",
          "name": "user",
          "type": "address"
        },
        {
          "internalType": "address",
          "name": "reward",
          "type": "address"
        }
      ],
      "name": "getUserUnclaimedRewardsFromStorage",
      "outputs": [
        {
          "internalType": "uint256",
          "name": "",
          "type": "uint256"
        }
      ],
      "stateMutability": "view",
      "type": "function"
    },
    {
      "inputs": [
        {
          "internalType": "address",
          "name": "user",
          "type": "address"
        },
        {
          "internalType": "uint256",
          "name": "totalSupply",
          "type": "uint256"
        },
        {
          "internalType": "uint256",
          "name": "userBalance",
          "type": "uint256"
        }
      ],
      "name": "handleAction",
      "outputs": [],
      "stateMutability": "nonpayable",
      "type": "function"
    },
    {
      "inputs": [],
      "name": "initialize",
      "outputs": [],
      "stateMutability": "nonpayable",
      "type": "function"
    },
    {
      "inputs": [
        {
          "internalType": "address",
          "name": "user",
          "type": "address"
        },
        {
          "internalType": "address",
          "name": "caller",
          "type": "address"
        }
      ],
      "name": "setClaimer",
      "outputs": [],
      "stateMutability": "nonpayable",
      "type": "function"
    },
    {
      "inputs": [
        {
          "internalType": "address",
          "name": "asset",
          "type": "address"
        },
        {
          "internalType": "address",
          "name": "reward",
          "type": "address"
        },
        {
          "internalType": "uint32",
          "name": "distributionEnd",
          "type": "uint32"
        }
      ],
      "name": "setDistributionEnd",
      "outputs": [],
      "stateMutability": "nonpayable",
      "type": "function"
    },
    {
      "inputs": [
        {
          "internalType": "address",
          "name": "reward",
          "type": "address"
        },
        {
          "internalType": "contract IEACAggregatorProxy",
          "name": "rewardOracle",
          "type": "address"
        }
      ],
      "name": "setRewardOracle",
      "outputs": [],
      "stateMutability": "nonpayable",
      "type": "function"
    },
    {
      "inputs": [
        {
          "internalType": "address",
          "name": "reward",
          "type": "address"
        },
        {
          "internalType": "contract ITransferStrategyBase",
          "name": "transferStrategy",
          "type": "address"
        }
      ],
      "name": "setTransferStrategy",
      "outputs": [],
      "stateMutability": "nonpayable",
      "type": "function"
    }
  ],
  "bytecode": "0x60a060405260006004553480156200001657600080fd5b506040516200367e3803806200367e83398101604081905262000039916200004b565b6001600160a01b03166080526200007d565b6000602082840312156200005e57600080fd5b81516001600160a01b03811681146200007657600080fd5b9392505050565b6080516135c2620000bc600039600081816105690152818161088b01528181610b0001528181610fea01528181611170015261121901526135c26000f3fe608060405234801561001057600080fd5b50600436106101b95760003560e01c8063866bc096116100f9578063bf90f63a11610097578063cbcbb50711610071578063cbcbb50714610564578063dde43cba1461058b578063e15ac62314610593578063f5cf673b146105a657600080fd5b8063bf90f63a1461052b578063c5a7b5381461053e578063c664493a1461055157600080fd5b8063aaf5eb68116100d3578063aaf5eb68146104e3578063af15ec5a146104fd578063b45ac1a914610510578063bb492bf51461051857600080fd5b8063866bc09614610469578063955c2ad7146104af5780639ff55db9146104c257600080fd5b80635453ba10116101665780636657732f116101405780636657732f1461033057806374d945ec146103505780637eff4ba8146103895780638129fc1c1461046157600080fd5b80635453ba10146102d157806357b89883146102e45780635f130b24146102f757600080fd5b806331873e2e1161019757806331873e2e1461025557806333028b991461026a578063507721551461027d57600080fd5b80631b839c77146101be578063236300dc146101e45780632a17bf60146101f7575b600080fd5b6101d16101cc366004612c70565b6105b9565b6040519081526020015b60405180910390f35b6101d16101f2366004612cee565b610617565b610230610205366004612d62565b73ffffffffffffffffffffffffffffffffffffffff9081166000908152603a60205260409020541690565b60405173ffffffffffffffffffffffffffffffffffffffff90911681526020016101db565b610268610263366004612d86565b6106b6565b005b6101d1610278366004612dbb565b6106c7565b6101d161028b366004612e40565b73ffffffffffffffffffffffffffffffffffffffff8083166000908152602081815260408083208585168452825280832093871683526001909301905220549392505050565b6102686102df366004612c70565b610873565b6101d16102f2366004612e8b565b610920565b610230610305366004612d62565b73ffffffffffffffffffffffffffffffffffffffff9081166000908152603960205260409020541690565b61034361033e366004612d62565b61093c565b6040516101db9190612f3b565b61023061035e366004612d62565b73ffffffffffffffffffffffffffffffffffffffff9081166000908152603860205260409020541690565b610441610397366004612c70565b73ffffffffffffffffffffffffffffffffffffffff9182166000908152602081815260408083209390941682529190915220546cffffffffffffffffffffffffff6b010000000000000000000000820416916affffffffffffffffffffff82169163ffffffff780100000000000000000000000000000000000000000000000082048116927c01000000000000000000000000000000000000000000000000000000009092041690565b6040805194855260208501939093529183015260608201526080016101db565b6102686109cd565b6101d1610477366004612c70565b73ffffffffffffffffffffffffffffffffffffffff918216600090815260016020908152604080832093909416825291909152205490565b6102686104bd366004613009565b610ae8565b6104d56104d0366004613142565b610ce8565b6040516101db92919061319f565b6104eb601281565b60405160ff90911681526020016101db565b6101d161050b366004613142565b610e97565b610343610eae565b6104d56105263660046131f6565b610f1d565b6104d5610539366004613242565b610fb6565b61026861054c366004613284565b610fd2565b6104d561055f3660046131f6565b611141565b6102307f000000000000000000000000000000000000000000000000000000000000000081565b6101d1600181565b6102686105a1366004612c70565b611158565b6102686105b4366004612c70565b611201565b73ffffffffffffffffffffffffffffffffffffffff828116600090815260208181526040808320938516835292905220547c0100000000000000000000000000000000000000000000000000000000900463ffffffff165b92915050565b600073ffffffffffffffffffffffffffffffffffffffff831661069b576040517f08c379a000000000000000000000000000000000000000000000000000000000815260206004820152601260248201527f494e56414c49445f544f5f41444452455353000000000000000000000000000060448201526064015b60405180910390fd5b6106aa8686863333888861131c565b90505b95945050505050565b6106c233848385611484565b505050565b73ffffffffffffffffffffffffffffffffffffffff80841660009081526038602052604081205490913391869116821461075d576040517f08c379a000000000000000000000000000000000000000000000000000000000815260206004820152601460248201527f434c41494d45525f554e415554484f52495a45440000000000000000000000006044820152606401610692565b73ffffffffffffffffffffffffffffffffffffffff86166107da576040517f08c379a000000000000000000000000000000000000000000000000000000000815260206004820152601460248201527f494e56414c49445f555345525f414444524553530000000000000000000000006044820152606401610692565b73ffffffffffffffffffffffffffffffffffffffff8516610857576040517f08c379a000000000000000000000000000000000000000000000000000000000815260206004820152601260248201527f494e56414c49445f544f5f4144445245535300000000000000000000000000006044820152606401610692565b610866898989338a8a8a61131c565b9998505050505050505050565b3373ffffffffffffffffffffffffffffffffffffffff7f00000000000000000000000000000000000000000000000000000000000000001614610912576040517f08c379a000000000000000000000000000000000000000000000000000000000815260206004820152601560248201527f4f4e4c595f454d495353494f4e5f4d414e4147455200000000000000000000006044820152606401610692565b61091c82826115f8565b5050565b60006109318585853333338861131c565b90505b949350505050565b73ffffffffffffffffffffffffffffffffffffffff8116600090815260208181526040918290206001018054835181840281018401909452808452606093928301828280156109c157602002820191906000526020600020905b815473ffffffffffffffffffffffffffffffffffffffff168152600190910190602001808311610996575b50505050509050919050565b60055460019060ff16806109e05750303b155b806109ec575060045481115b610a78576040517f08c379a000000000000000000000000000000000000000000000000000000000815260206004820152602e60248201527f436f6e747261637420696e7374616e63652068617320616c726561647920626560448201527f656e20696e697469616c697a65640000000000000000000000000000000000006064820152608401610692565b60055460ff16158015610ab657600580547fffffffffffffffffffffffffffffffffffffffffffffffffffffffffffffff0016600117905560048290555b801561091c57600580547fffffffffffffffffffffffffffffffffffffffffffffffffffffffffffffff001690555050565b3373ffffffffffffffffffffffffffffffffffffffff7f00000000000000000000000000000000000000000000000000000000000000001614610b87576040517f08c379a000000000000000000000000000000000000000000000000000000000815260206004820152601560248201527f4f4e4c595f454d495353494f4e5f4d414e4147455200000000000000000000006044820152606401610692565b60005b8151811015610cdb57818181518110610ba557610ba56132cb565b60200260200101516060015173ffffffffffffffffffffffffffffffffffffffff1663b1bf962d6040518163ffffffff1660e01b8152600401602060405180830381865afa158015610bfb573d6000803e3d6000fd5b505050506040513d601f19601f82011682018060405250810190610c1f91906132fa565b828281518110610c3157610c316132cb565b60200260200101516020018181525050610c85828281518110610c5657610c566132cb565b602002602001015160800151838381518110610c7457610c746132cb565b602002602001015160a0015161174c565b610cc9828281518110610c9a57610c9a6132cb565b602002602001015160800151838381518110610cb857610cb86132cb565b602002602001015160c001516115f8565b80610cd381613342565b915050610b8a565b50610ce58161185b565b50565b73ffffffffffffffffffffffffffffffffffffffff808316600090815260386020526040902054606091829133918691168214610d81576040517f08c379a000000000000000000000000000000000000000000000000000000000815260206004820152601460248201527f434c41494d45525f554e415554484f52495a45440000000000000000000000006044820152606401610692565b73ffffffffffffffffffffffffffffffffffffffff8616610dfe576040517f08c379a000000000000000000000000000000000000000000000000000000000815260206004820152601460248201527f494e56414c49445f555345525f414444524553530000000000000000000000006044820152606401610692565b73ffffffffffffffffffffffffffffffffffffffff8516610e7b576040517f08c379a000000000000000000000000000000000000000000000000000000000815260206004820152601260248201527f494e56414c49445f544f5f4144445245535300000000000000000000000000006044820152606401610692565b610e888888338989611d84565b93509350505094509492505050565b60006109318383610ea9888888611f2b565b612131565b60606003805480602002602001604051908101604052809291908181526020018280548015610f1357602002820191906000526020600020905b815473ffffffffffffffffffffffffffffffffffffffff168152600190910190602001808311610ee8575b5050505050905090565b60608073ffffffffffffffffffffffffffffffffffffffff8316610f9d576040517f08c379a000000000000000000000000000000000000000000000000000000000815260206004820152601260248201527f494e56414c49445f544f5f4144445245535300000000000000000000000000006044820152606401610692565b610faa8585333387611d84565b91509150935093915050565b606080610fc68484333333611d84565b915091505b9250929050565b3373ffffffffffffffffffffffffffffffffffffffff7f00000000000000000000000000000000000000000000000000000000000000001614611071576040517f08c379a000000000000000000000000000000000000000000000000000000000815260206004820152601560248201527f4f4e4c595f454d495353494f4e5f4d414e4147455200000000000000000000006044820152606401610692565b73ffffffffffffffffffffffffffffffffffffffff83811660008181526020818152604080832094871680845294825291829020805463ffffffff87167c010000000000000000000000000000000000000000000000000000000081027bffffffffffffffffffffffffffffffffffffffffffffffffffffffff8316811790935584516affffffffffffffffffffff93841693909216929092178152918201527fec44514a2743afadd78647150195ef92fec31e96087fa5cbbcd72e8d131d9a1c910160405180910390a3505050565b606080610faa83611153878787611f2b565b6121ea565b3373ffffffffffffffffffffffffffffffffffffffff7f000000000000000000000000000000000000000000000000000000000000000016146111f7576040517f08c379a000000000000000000000000000000000000000000000000000000000815260206004820152601560248201527f4f4e4c595f454d495353494f4e5f4d414e4147455200000000000000000000006044820152606401610692565b61091c828261174c565b3373ffffffffffffffffffffffffffffffffffffffff7f000000000000000000000000000000000000000000000000000000000000000016146112a0576040517f08c379a000000000000000000000000000000000000000000000000000000000815260206004820152601560248201527f4f4e4c595f454d495353494f4e5f4d414e4147455200000000000000000000006044820152606401610692565b73ffffffffffffffffffffffffffffffffffffffff82811660008181526038602052604080822080547fffffffffffffffffffffffff0000000000000000000000000000000000000000169486169485179055517f4925eafc82d0c4d67889898eeed64b18488ab19811e61620f387026dec126a289190a35050565b60008561132b57506000611479565b73ffffffffffffffffffffffffffffffffffffffff808516600090815260016020908152604080832093861683529290522054808711156113af5761137a856113758b8b89611f2b565b6124a2565b5073ffffffffffffffffffffffffffffffffffffffff8085166000908152600160209081526040808320938616835292905220545b806113be576000915050611479565b60008188116113cd57876113cf565b815b90506113db818361337b565b73ffffffffffffffffffffffffffffffffffffffff808816600090815260016020908152604080832093891683529290522055611419858583612523565b6040805173ffffffffffffffffffffffffffffffffffffffff8981168252602082018490528088169287821692918a16917fc052130bc4ef84580db505783484b067ea8b71b3bca78a7e12db7aea8658f004910160405180910390a49150505b979650505050505050565b60005b73ffffffffffffffffffffffffffffffffffffffff85166000908152602081905260409020600101548110156115f15773ffffffffffffffffffffffffffffffffffffffff851660009081526020819052604081206001018054839081106114f1576114f16132cb565b600091825260208220015473ffffffffffffffffffffffffffffffffffffffff16915061152186888488886126eb565b905080156115dc5773ffffffffffffffffffffffffffffffffffffffff80871660009081526001602090815260408083209386168352929052908120805483929061156d908490613392565b925050819055508173ffffffffffffffffffffffffffffffffffffffff168673ffffffffffffffffffffffffffffffffffffffff167f68ac6b4d0eeedccf3df154188dfac62d18d2ac5eaac52ecd6e728e33ce75a1d4836040516115d391815260200190565b60405180910390a35b505080806115e990613342565b915050611487565b5050505050565b60008173ffffffffffffffffffffffffffffffffffffffff166350d25bcd6040518163ffffffff1660e01b8152600401602060405180830381865afa158015611645573d6000803e3d6000fd5b505050506040513d601f19601f8201168201806040525081019061166991906132fa565b136116d0576040517f08c379a000000000000000000000000000000000000000000000000000000000815260206004820152601860248201527f4f7261636c65206d7573742072657475726e20707269636500000000000000006044820152606401610692565b73ffffffffffffffffffffffffffffffffffffffff8281166000818152603a602052604080822080547fffffffffffffffffffffffff0000000000000000000000000000000000000000169486169485179055517f1a1cd5483e52e60b9ff7f3b9d1db3bbd9e9d21c6324ad3a8c79dba9b75e62f4d9190a35050565b6001813b1515146117df576040517f08c379a000000000000000000000000000000000000000000000000000000000815260206004820152603160248201527f5472616e736665725374726174656779204c6f6769632061646472657373206d60448201527f757374206265206120636f6e74726163740000000000000000000000000000006064820152608401610692565b73ffffffffffffffffffffffffffffffffffffffff82811660008181526039602052604080822080547fffffffffffffffffffffffff0000000000000000000000000000000000000000169486169485179055517f8ca1d928f1d72493a6b78c4f74aabde976bc37ffe2570f2a1ce5a8abd3dde0aa9190a35050565b60005b815181101561091c57600080600084848151811061187e5761187e6132cb565b60200260200101516060015173ffffffffffffffffffffffffffffffffffffffff1673ffffffffffffffffffffffffffffffffffffffff16815260200190815260200160002060000160008484815181106118db576118db6132cb565b6020908102919091018101516080015173ffffffffffffffffffffffffffffffffffffffff16825281019190915260400160002080549091507801000000000000000000000000000000000000000000000000900463ffffffff16611a0f5760008084848151811061194f5761194f6132cb565b60200260200101516060015173ffffffffffffffffffffffffffffffffffffffff1673ffffffffffffffffffffffffffffffffffffffff1681526020019081526020016000206001018383815181106119aa576119aa6132cb565b6020908102919091018101516080015182546001810184556000938452919092200180547fffffffffffffffffffffffff00000000000000000000000000000000000000001673ffffffffffffffffffffffffffffffffffffffff9092169190911790555b60026000848481518110611a2557611a256132cb565b6020908102919091018101516080015173ffffffffffffffffffffffffffffffffffffffff1682528101919091526040016000205460ff16611b4f57600160026000858581518110611a7957611a796132cb565b60200260200101516080015173ffffffffffffffffffffffffffffffffffffffff1673ffffffffffffffffffffffffffffffffffffffff16815260200190815260200160002060006101000a81548160ff0219169083151502179055506003838381518110611aea57611aea6132cb565b6020908102919091018101516080015182546001810184556000938452919092200180547fffffffffffffffffffffffff00000000000000000000000000000000000000001673ffffffffffffffffffffffffffffffffffffffff9092169190911790555b611bb2838381518110611b6457611b646132cb565b602002602001015160600151848481518110611b8257611b826132cb565b60200260200101516080015183868681518110611ba157611ba16132cb565b6020026020010151602001516127d4565b50828281518110611bc557611bc56132cb565b60209081029190910101515181547fffffffffffffffffffffffffffffffffffffffffff0000000000000000000000166affffffffffffffffffffff9091161781558251839083908110611c1b57611c1b6132cb565b602090810291909101015160400151815463ffffffff9091167c0100000000000000000000000000000000000000000000000000000000027bffffffffffffffffffffffffffffffffffffffffffffffffffffffff9091161781558251839083908110611c8a57611c8a6132cb565b60200260200101516080015173ffffffffffffffffffffffffffffffffffffffff16838381518110611cbe57611cbe6132cb565b60200260200101516060015173ffffffffffffffffffffffffffffffffffffffff167fec44514a2743afadd78647150195ef92fec31e96087fa5cbbcd72e8d131d9a1c858581518110611d1357611d136132cb565b602002602001015160000151868681518110611d3157611d316132cb565b602002602001015160400151604051611d699291906affffffffffffffffffffff92909216825263ffffffff16602082015260400190565b60405180910390a35080611d7c81613342565b91505061185e565b606080611d9684611375898988611f2b565b60005b600354811015611f2057600060038281548110611db857611db86132cb565b600091825260208083209091015473ffffffffffffffffffffffffffffffffffffffff8981168452600183526040808520919092168085529252909120548551919250908290869085908110611e1057611e106132cb565b602002602001019073ffffffffffffffffffffffffffffffffffffffff16908173ffffffffffffffffffffffffffffffffffffffff168152505080848481518110611e5d57611e5d6132cb565b60209081029190910101528015611f0b5773ffffffffffffffffffffffffffffffffffffffff8088166000908152600160209081526040808320938616835292905290812055611eae868383612523565b6040805173ffffffffffffffffffffffffffffffffffffffff8a81168252602082018490528089169285821692918b16917fc052130bc4ef84580db505783484b067ea8b71b3bca78a7e12db7aea8658f004910160405180910390a45b50508080611f1890613342565b915050611d99565b509550959350505050565b60608267ffffffffffffffff811115611f4657611f46612f4e565b604051908082528060200260200182016040528015611fb157816020015b611f9e6040518060600160405280600073ffffffffffffffffffffffffffffffffffffffff16815260200160008152602001600081525090565b815260200190600190039081611f645790505b50905060005b8381101561212957848482818110611fd157611fd16132cb565b9050602002016020810190611fe69190612d62565b828281518110611ff857611ff86132cb565b602090810291909101015173ffffffffffffffffffffffffffffffffffffffff909116905284848281811061202f5761202f6132cb565b90506020020160208101906120449190612d62565b6040517f0afbcdc900000000000000000000000000000000000000000000000000000000815273ffffffffffffffffffffffffffffffffffffffff85811660048301529190911690630afbcdc9906024016040805180830381865afa1580156120b1573d6000803e3d6000fd5b505050506040513d601f19601f820116820180604052508101906120d591906133aa565b8383815181106120e7576120e76132cb565b6020026020010151602001848481518110612104576121046132cb565b602090810291909101015160400191909152528061212181613342565b915050611fb7565b509392505050565b6000805b82518110156121ac57828181518110612150576121506132cb565b602002602001015160200151600014156121695761219a565b61218d8585858481518110612180576121806132cb565b6020026020010151612a40565b6121979083613392565b91505b806121a481613342565b915050612135565b5073ffffffffffffffffffffffffffffffffffffffff8085166000908152600160209081526040808320938716835292905220546109349082613392565b600354606090819067ffffffffffffffff81111561220a5761220a612f4e565b604051908082528060200260200182016040528015612233578160200160208202803683370190505b509150815167ffffffffffffffff81111561225057612250612f4e565b604051908082528060200260200182016040528015612279578160200160208202803683370190505b50905060005b82518110156123d7576003818154811061229b5761229b6132cb565b9060005260206000200160009054906101000a900473ffffffffffffffffffffffffffffffffffffffff168382815181106122d8576122d86132cb565b602002602001019073ffffffffffffffffffffffffffffffffffffffff16908173ffffffffffffffffffffffffffffffffffffffff1681525050600160008673ffffffffffffffffffffffffffffffffffffffff1673ffffffffffffffffffffffffffffffffffffffff1681526020019081526020016000206000848381518110612365576123656132cb565b602002602001015173ffffffffffffffffffffffffffffffffffffffff1673ffffffffffffffffffffffffffffffffffffffff168152602001908152602001600020548282815181106123ba576123ba6132cb565b6020908102919091010152806123cf81613342565b91505061227f565b5060005b835181101561249a578381815181106123f6576123f66132cb565b6020026020010151602001516000141561240f57612488565b60005b83518110156124865761244b86858381518110612431576124316132cb565b6020026020010151878581518110612180576121806132cb565b83828151811061245d5761245d6132cb565b602002602001018181516124719190613392565b9052508061247e81613342565b915050612412565b505b8061249281613342565b9150506123db565b509250929050565b60005b81518110156106c2576125118282815181106124c3576124c36132cb565b602002602001015160000151848484815181106124e2576124e26132cb565b602002602001015160200151858581518110612500576125006132cb565b602002602001015160400151611484565b8061251b81613342565b9150506124a5565b73ffffffffffffffffffffffffffffffffffffffff80831660009081526039602052604090205416806125d8576040517f08c379a000000000000000000000000000000000000000000000000000000000815260206004820152602860248201527f5472616e7366657220696d706c656d656e746174696f6e2063616e206e6f742060448201527f626520656d7074790000000000000000000000000000000000000000000000006064820152608401610692565b6040517f16beb98200000000000000000000000000000000000000000000000000000000815273ffffffffffffffffffffffffffffffffffffffff8581166004830152848116602483015260448201849052600091908316906316beb982906064016020604051808303816000875af1158015612659573d6000803e3d6000fd5b505050506040513d601f19601f8201168201806040525081019061267d91906133ce565b90506001811515146115f1576040517f08c379a000000000000000000000000000000000000000000000000000000000815260206004820152600e60248201527f5472616e73666572206572726f720000000000000000000000000000000000006044820152606401610692565b73ffffffffffffffffffffffffffffffffffffffff80851660009081526020818152604080832087851684528252808320938916835260018401909152812054909190828061273c898986896127d4565b90508083146127c757861561275957612756878285612b4b565b91505b73ffffffffffffffffffffffffffffffffffffffff808b16600081815260018701602052604090819020849055518a8316928c1691907ff5674975ec2736b27b8d52ea7cafb8bc2761685f31f109e028e1498aa2b2f3e5906127be9086815260200190565b60405180910390a45b5098975050505050505050565b81546000906b01000000000000000000000081046cffffffffffffffffffffffffff16907801000000000000000000000000000000000000000000000000900463ffffffff16421415612828579050610934565b835460009061288d9083906affffffffffffffffffffff81169063ffffffff780100000000000000000000000000000000000000000000000082048116917c010000000000000000000000000000000000000000000000000000000090041688612b77565b90508181146129ec576cffffffffffffffffffffffffff81111561290d576040517f08c379a000000000000000000000000000000000000000000000000000000000815260206004820152600e60248201527f496e646578206f766572666c6f770000000000000000000000000000000000006044820152606401610692565b84547fffffffff0000000000000000000000000000000000ffffffffffffffffffffff166b0100000000000000000000006cffffffffffffffffffffffffff8316027fffffffff00000000ffffffffffffffffffffffffffffffffffffffffffffffff161778010000000000000000000000000000000000000000000000004263ffffffff160217855560405181815273ffffffffffffffffffffffffffffffffffffffff87811691908916907f7ecfb468c92138c74e6034d3e9d76f99150e483bd53bcc43524ce7056698751f9060200160405180910390a3612a36565b84547fffffffff00000000ffffffffffffffffffffffffffffffffffffffffffffffff1678010000000000000000000000000000000000000000000000004263ffffffff16021785555b9695505050505050565b805173ffffffffffffffffffffffffffffffffffffffff9081166000908152602081815260408083209386168352929052818120805492840151919290918391612afd916cffffffffffffffffffffffffff6b010000000000000000000000830416916affffffffffffffffffffff81169163ffffffff780100000000000000000000000000000000000000000000000083048116927c010000000000000000000000000000000000000000000000000000000090041690612b77565b9050612a368460200151828460010160008a73ffffffffffffffffffffffffffffffffffffffff1673ffffffffffffffffffffffffffffffffffffffff168152602001908152602001600020545b6000612b596012600a613508565b612b63838561337b565b612b6d9086613514565b6109349190613551565b6000841580612b84575081155b80612ba0575042846fffffffffffffffffffffffffffffffff16145b80612bbd575082846fffffffffffffffffffffffffffffffff1610155b15612bc95750846106ad565b6000834211612bd85742612bda565b835b90506000612bfa6fffffffffffffffffffffffffffffffff87168361337b565b90508784612c0a6012600a613508565b612c14848b613514565b612c1e9190613514565b612c289190613551565b612c329190613392565b98975050505050505050565b73ffffffffffffffffffffffffffffffffffffffff81168114610ce557600080fd5b8035612c6b81612c3e565b919050565b60008060408385031215612c8357600080fd5b8235612c8e81612c3e565b91506020830135612c9e81612c3e565b809150509250929050565b60008083601f840112612cbb57600080fd5b50813567ffffffffffffffff811115612cd357600080fd5b6020830191508360208260051b8501011115610fcb57600080fd5b600080600080600060808688031215612d0657600080fd5b853567ffffffffffffffff811115612d1d57600080fd5b612d2988828901612ca9565b909650945050602086013592506040860135612d4481612c3e565b91506060860135612d5481612c3e565b809150509295509295909350565b600060208284031215612d7457600080fd5b8135612d7f81612c3e565b9392505050565b600080600060608486031215612d9b57600080fd5b8335612da681612c3e565b95602085013595506040909401359392505050565b60008060008060008060a08789031215612dd457600080fd5b863567ffffffffffffffff811115612deb57600080fd5b612df789828a01612ca9565b909750955050602087013593506040870135612e1281612c3e565b92506060870135612e2281612c3e565b91506080870135612e3281612c3e565b809150509295509295509295565b600080600060608486031215612e5557600080fd5b8335612e6081612c3e565b92506020840135612e7081612c3e565b91506040840135612e8081612c3e565b809150509250925092565b60008060008060608587031215612ea157600080fd5b843567ffffffffffffffff811115612eb857600080fd5b612ec487828801612ca9565b909550935050602085013591506040850135612edf81612c3e565b939692955090935050565b600081518084526020808501945080840160005b83811015612f3057815173ffffffffffffffffffffffffffffffffffffffff1687529582019590820190600101612efe565b509495945050505050565b602081526000612d7f6020830184612eea565b7f4e487b7100000000000000000000000000000000000000000000000000000000600052604160045260246000fd5b60405160e0810167ffffffffffffffff81118282101715612fa057612fa0612f4e565b60405290565b604051601f82017fffffffffffffffffffffffffffffffffffffffffffffffffffffffffffffffe016810167ffffffffffffffff81118282101715612fed57612fed612f4e565b604052919050565b803563ffffffff81168114612c6b57600080fd5b6000602080838503121561301c57600080fd5b823567ffffffffffffffff8082111561303457600080fd5b818501915085601f83011261304857600080fd5b81358181111561305a5761305a612f4e565b613068848260051b01612fa6565b818152848101925060e091820284018501918883111561308757600080fd5b938501935b828510156131365780858a0312156130a45760008081fd5b6130ac612f7d565b85356affffffffffffffffffffff811681146130c85760008081fd5b8152858701358782015260406130df818801612ff5565b9082015260606130f0878201612c60565b908201526080613101878201612c60565b9082015260a0613112878201612c60565b9082015260c0613123878201612c60565b908201528452938401939285019261308c565b50979650505050505050565b6000806000806060858703121561315857600080fd5b843567ffffffffffffffff81111561316f57600080fd5b61317b87828801612ca9565b909550935050602085013561318f81612c3e565b91506040850135612edf81612c3e565b6040815260006131b26040830185612eea565b82810360208481019190915284518083528582019282019060005b818110156131e9578451835293830193918301916001016131cd565b5090979650505050505050565b60008060006040848603121561320b57600080fd5b833567ffffffffffffffff81111561322257600080fd5b61322e86828701612ca9565b9094509250506020840135612e8081612c3e565b6000806020838503121561325557600080fd5b823567ffffffffffffffff81111561326c57600080fd5b61327885828601612ca9565b90969095509350505050565b60008060006060848603121561329957600080fd5b83356132a481612c3e565b925060208401356132b481612c3e565b91506132c260408501612ff5565b90509250925092565b7f4e487b7100000000000000000000000000000000000000000000000000000000600052603260045260246000fd5b60006020828403121561330c57600080fd5b5051919050565b7f4e487b7100000000000000000000000000000000000000000000000000000000600052601160045260246000fd5b60007fffffffffffffffffffffffffffffffffffffffffffffffffffffffffffffffff82141561337457613374613313565b5060010190565b60008282101561338d5761338d613313565b500390565b600082198211156133a5576133a5613313565b500190565b600080604083850312156133bd57600080fd5b505080516020909101519092909150565b6000602082840312156133e057600080fd5b81518015158114612d7f57600080fd5b600181815b8085111561249a57817fffffffffffffffffffffffffffffffffffffffffffffffffffffffffffffffff0482111561342f5761342f613313565b8085161561343c57918102915b93841c93908002906133f5565b60008261345857506001610611565b8161346557506000610611565b816001811461347b5760028114613485576134a1565b6001915050610611565b60ff84111561349657613496613313565b50506001821b610611565b5060208310610133831016604e8410600b84101617156134c4575081810a610611565b6134ce83836133f0565b807fffffffffffffffffffffffffffffffffffffffffffffffffffffffffffffffff0482111561350057613500613313565b029392505050565b6000612d7f8383613449565b6000817fffffffffffffffffffffffffffffffffffffffffffffffffffffffffffffffff048311821515161561354c5761354c613313565b500290565b600082613587577f4e487b7100000000000000000000000000000000000000000000000000000000600052601260045260246000fd5b50049056fea26469706673582212205675e188fe327c4b1ab4beb17a938dac0b8b61e15e0d27a591d7f6d6685d36b064736f6c634300080a0033",
  "linkReferences": {},
  "deployedLinkReferences": {}
}