{
  "_format": "hh-sol-artifact-1",
  "contractName": "PoolAddressesProvider",
  "sourceName": "contracts/protocol/configuration/PoolAddressesProvider.sol",
  "abi": [
    {
      "inputs": [
        {
          "internalType": "string",
          "name": "marketId",
          "type": "string"
        }
      ],
      "stateMutability": "nonpayable",
      "type": "constructor"
    },
    {
      "anonymous": false,
      "inputs": [
        {
          "indexed": true,
          "internalType": "address",
          "name": "newAddress",
          "type": "address"
        }
      ],
      "name": "ACLAdminUpdated",
      "type": "event"
    },
    {
      "anonymous": false,
      "inputs": [
        {
          "indexed": true,
          "internalType": "address",
          "name": "newAddress",
          "type": "address"
        }
      ],
      "name": "ACLManagerUpdated",
      "type": "event"
    },
    {
      "anonymous": false,
      "inputs": [
        {
          "indexed": false,
          "internalType": "bytes32",
          "name": "id",
          "type": "bytes32"
        },
        {
          "indexed": true,
          "internalType": "address",
          "name": "newAddress",
          "type": "address"
        },
        {
          "indexed": false,
          "internalType": "bool",
          "name": "hasProxy",
          "type": "bool"
        }
      ],
      "name": "AddressSet",
      "type": "event"
    },
    {
      "anonymous": false,
      "inputs": [
        {
          "indexed": true,
          "internalType": "address",
          "name": "newAddress",
          "type": "address"
        }
      ],
      "name": "BridgeAccessControlUpdated",
      "type": "event"
    },
    {
      "anonymous": false,
      "inputs": [
        {
          "indexed": false,
          "internalType": "string",
          "name": "newMarketId",
          "type": "string"
        }
      ],
      "name": "MarketIdSet",
      "type": "event"
    },
    {
      "anonymous": false,
      "inputs": [
        {
          "indexed": true,
          "internalType": "address",
          "name": "previousOwner",
          "type": "address"
        },
        {
          "indexed": true,
          "internalType": "address",
          "name": "newOwner",
          "type": "address"
        }
      ],
      "name": "OwnershipTransferred",
      "type": "event"
    },
    {
      "anonymous": false,
      "inputs": [
        {
          "indexed": true,
          "internalType": "address",
          "name": "newAddress",
          "type": "address"
        }
      ],
      "name": "PoolConfiguratorUpdated",
      "type": "event"
    },
    {
      "anonymous": false,
      "inputs": [
        {
          "indexed": true,
          "internalType": "address",
          "name": "newAddress",
          "type": "address"
        }
      ],
      "name": "PoolDataProviderUpdated",
      "type": "event"
    },
    {
      "anonymous": false,
      "inputs": [
        {
          "indexed": true,
          "internalType": "address",
          "name": "newAddress",
          "type": "address"
        }
      ],
      "name": "PoolUpdated",
      "type": "event"
    },
    {
      "anonymous": false,
      "inputs": [
        {
          "indexed": true,
          "internalType": "address",
          "name": "newAddress",
          "type": "address"
        }
      ],
      "name": "PriceOracleSentinelUpdated",
      "type": "event"
    },
    {
      "anonymous": false,
      "inputs": [
        {
          "indexed": true,
          "internalType": "address",
          "name": "newAddress",
          "type": "address"
        }
      ],
      "name": "PriceOracleUpdated",
      "type": "event"
    },
    {
      "anonymous": false,
      "inputs": [
        {
          "indexed": false,
          "internalType": "bytes32",
          "name": "id",
          "type": "bytes32"
        },
        {
          "indexed": true,
          "internalType": "address",
          "name": "newAddress",
          "type": "address"
        }
      ],
      "name": "ProxyCreated",
      "type": "event"
    },
    {
      "inputs": [],
      "name": "getACLAdmin",
      "outputs": [
        {
          "internalType": "address",
          "name": "",
          "type": "address"
        }
      ],
      "stateMutability": "view",
      "type": "function"
    },
    {
      "inputs": [],
      "name": "getACLManager",
      "outputs": [
        {
          "internalType": "address",
          "name": "",
          "type": "address"
        }
      ],
      "stateMutability": "view",
      "type": "function"
    },
    {
      "inputs": [
        {
          "internalType": "bytes32",
          "name": "id",
          "type": "bytes32"
        }
      ],
      "name": "getAddress",
      "outputs": [
        {
          "internalType": "address",
          "name": "",
          "type": "address"
        }
      ],
      "stateMutability": "view",
      "type": "function"
    },
    {
      "inputs": [],
      "name": "getMarketId",
      "outputs": [
        {
          "internalType": "string",
          "name": "",
          "type": "string"
        }
      ],
      "stateMutability": "view",
      "type": "function"
    },
    {
      "inputs": [],
      "name": "getPool",
      "outputs": [
        {
          "internalType": "address",
          "name": "",
          "type": "address"
        }
      ],
      "stateMutability": "view",
      "type": "function"
    },
    {
      "inputs": [],
      "name": "getPoolConfigurator",
      "outputs": [
        {
          "internalType": "address",
          "name": "",
          "type": "address"
        }
      ],
      "stateMutability": "view",
      "type": "function"
    },
    {
      "inputs": [],
      "name": "getPoolDataProvider",
      "outputs": [
        {
          "internalType": "address",
          "name": "",
          "type": "address"
        }
      ],
      "stateMutability": "view",
      "type": "function"
    },
    {
      "inputs": [],
      "name": "getPriceOracle",
      "outputs": [
        {
          "internalType": "address",
          "name": "",
          "type": "address"
        }
      ],
      "stateMutability": "view",
      "type": "function"
    },
    {
      "inputs": [],
      "name": "getPriceOracleSentinel",
      "outputs": [
        {
          "internalType": "address",
          "name": "",
          "type": "address"
        }
      ],
      "stateMutability": "view",
      "type": "function"
    },
    {
      "inputs": [],
      "name": "owner",
      "outputs": [
        {
          "internalType": "address",
          "name": "",
          "type": "address"
        }
      ],
      "stateMutability": "view",
      "type": "function"
    },
    {
      "inputs": [],
      "name": "renounceOwnership",
      "outputs": [],
      "stateMutability": "nonpayable",
      "type": "function"
    },
    {
      "inputs": [
        {
          "internalType": "address",
          "name": "aclAdmin",
          "type": "address"
        }
      ],
      "name": "setACLAdmin",
      "outputs": [],
      "stateMutability": "nonpayable",
      "type": "function"
    },
    {
      "inputs": [
        {
          "internalType": "address",
          "name": "aclManager",
          "type": "address"
        }
      ],
      "name": "setACLManager",
      "outputs": [],
      "stateMutability": "nonpayable",
      "type": "function"
    },
    {
      "inputs": [
        {
          "internalType": "bytes32",
          "name": "id",
          "type": "bytes32"
        },
        {
          "internalType": "address",
          "name": "newAddress",
          "type": "address"
        }
      ],
      "name": "setAddress",
      "outputs": [],
      "stateMutability": "nonpayable",
      "type": "function"
    },
    {
      "inputs": [
        {
          "internalType": "bytes32",
          "name": "id",
          "type": "bytes32"
        },
        {
          "internalType": "address",
          "name": "implementationAddress",
          "type": "address"
        }
      ],
      "name": "setAddressAsProxy",
      "outputs": [],
      "stateMutability": "nonpayable",
      "type": "function"
    },
    {
      "inputs": [
        {
          "internalType": "string",
          "name": "marketId",
          "type": "string"
        }
      ],
      "name": "setMarketId",
      "outputs": [],
      "stateMutability": "nonpayable",
      "type": "function"
    },
    {
      "inputs": [
        {
          "internalType": "address",
          "name": "configurator",
          "type": "address"
        }
      ],
      "name": "setPoolConfiguratorImpl",
      "outputs": [],
      "stateMutability": "nonpayable",
      "type": "function"
    },
    {
      "inputs": [
        {
          "internalType": "address",
          "name": "dataProvider",
          "type": "address"
        }
      ],
      "name": "setPoolDataProvider",
      "outputs": [],
      "stateMutability": "nonpayable",
      "type": "function"
    },
    {
      "inputs": [
        {
          "internalType": "address",
          "name": "pool",
          "type": "address"
        }
      ],
      "name": "setPoolImpl",
      "outputs": [],
      "stateMutability": "nonpayable",
      "type": "function"
    },
    {
      "inputs": [
        {
          "internalType": "address",
          "name": "priceOracle",
          "type": "address"
        }
      ],
      "name": "setPriceOracle",
      "outputs": [],
      "stateMutability": "nonpayable",
      "type": "function"
    },
    {
      "inputs": [
        {
          "internalType": "address",
          "name": "oracleSentinel",
          "type": "address"
        }
      ],
      "name": "setPriceOracleSentinel",
      "outputs": [],
      "stateMutability": "nonpayable",
      "type": "function"
    },
    {
      "inputs": [
        {
          "internalType": "address",
          "name": "newOwner",
          "type": "address"
        }
      ],
      "name": "transferOwnership",
      "outputs": [],
      "stateMutability": "nonpayable",
      "type": "function"
    }
  ],
  "bytecode": "0x60806040523480156200001157600080fd5b50604051620026e9380380620026e98339810160408190526200003491620001c8565b600080546001600160a01b031916339081178255604051909182917f8be0079c531659141344cd1fd0a4f28419497f9722a3daafe3b4186f6b6457e0908290a350620000808162000087565b50620002f2565b80516200009c906001906020840190620000d9565b507f5e667c32fd847cf8bce48ab3400175cbf107bdc82b2dea62e3364909dfaee79981604051620000ce919062000280565b60405180910390a150565b828054620000e790620002b5565b90600052602060002090601f0160209004810192826200010b576000855562000156565b82601f106200012657805160ff191683800117855562000156565b8280016001018555821562000156579182015b828111156200015657825182559160200191906001019062000139565b506200016492915062000168565b5090565b5b8082111562000164576000815560010162000169565b634e487b7160e01b600052604160045260246000fd5b60005b83811015620001b257818101518382015260200162000198565b83811115620001c2576000848401525b50505050565b600060208284031215620001db57600080fd5b81516001600160401b0380821115620001f357600080fd5b818401915084601f8301126200020857600080fd5b8151818111156200021d576200021d6200017f565b604051601f8201601f19908116603f011681019083821181831017156200024857620002486200017f565b816040528281528760208487010111156200026257600080fd5b6200027583602083016020880162000195565b979650505050505050565b6020815260008251806020840152620002a181604085016020870162000195565b601f01601f19169190910160400192915050565b600181811c90821680620002ca57607f821691505b60208210811415620002ec57634e487b7160e01b600052602260045260246000fd5b50919050565b6123e780620003026000396000f3fe608060405234801561001057600080fd5b50600436106101825760003560e01c806376d84ffc116100d8578063e4ca28b71161008c578063f2fde38b11610066578063f2fde38b1461052f578063f67b184714610542578063fca513a81461055557600080fd5b8063e4ca28b7146104a3578063e860accb146104b6578063ed301ca91461051c57600080fd5b8063a1564406116100bd578063a15644061461046a578063ca446dd91461047d578063e44e9ed11461049057600080fd5b806376d84ffc146104395780638da5cb5b1461044c57600080fd5b80635dcc528c1161013a578063707cd71611610114578063707cd716146103b8578063715018a61461041e57806374944cec1461042657600080fd5b80635dcc528c146102d95780635eb88d3d146102ec578063631adfca1461035257600080fd5b806321f8a7211161016b57806321f8a72114610279578063530e784f146102af578063568ef470146102c457600080fd5b8063026b1d5f146101875780630e67178c14610213575b600080fd5b7f504f4f4c0000000000000000000000000000000000000000000000000000000060005260026020527f4fe005067814bb4b024d9515847377d15011b64593c006223b4a722952d2c05a5473ffffffffffffffffffffffffffffffffffffffff165b60405173ffffffffffffffffffffffffffffffffffffffff90911681526020015b60405180910390f35b7f41434c5f41444d494e000000000000000000000000000000000000000000000060005260026020527ffab167ad2009dcb80ee379700bb4bd029d97c1181ed9d961625632c8a6f051c65473ffffffffffffffffffffffffffffffffffffffff166101e9565b6101e961028736600461170c565b60009081526002602052604090205473ffffffffffffffffffffffffffffffffffffffff1690565b6102c26102bd36600461174e565b6105bb565b005b6102cc6106f9565b60405161020a91906117db565b6102c26102e73660046117ee565b61078b565b7f50524943455f4f5241434c455f53454e54494e454c000000000000000000000060005260026020527f0d2c1bcee56447b4f46248272f34207a580a5c40f666a31f4e2fbb470ea53ab85473ffffffffffffffffffffffffffffffffffffffff166101e9565b7f504f4f4c5f434f4e464947555241544f5200000000000000000000000000000060005260026020527f90c127ef1c12c03f5781afeca3079527ea5333738078bba6fea26825bf9bf2c55473ffffffffffffffffffffffffffffffffffffffff166101e9565b7f41434c5f4d414e4147455200000000000000000000000000000000000000000060005260026020527f9edef266ef35fd0c6e131df0f31a330f3dd4c4d19dd31ed615c21d005c68116b5473ffffffffffffffffffffffffffffffffffffffff166101e9565b6102c261086c565b6102c261043436600461174e565b61095c565b6102c261044736600461174e565b610a95565b60005473ffffffffffffffffffffffffffffffffffffffff166101e9565b6102c261047836600461174e565b610bce565b6102c261048b3660046117ee565b610cbd565b6102c261049e36600461174e565b610dc4565b6102c26104b136600461174e565b610efd565b7f444154415f50524f56494445520000000000000000000000000000000000000060005260026020527fcd7944601aaa5cd7ccdae1bebec659e98c6aac8f12486b30e59db0d39698051f5473ffffffffffffffffffffffffffffffffffffffff166101e9565b6102c261052a36600461174e565b610fec565b6102c261053d36600461174e565b611125565b6102c2610550366004611849565b6112d6565b7f50524943455f4f5241434c45000000000000000000000000000000000000000060005260026020527f740f710666bd7a12af42df98311e541e47f7fd33d382d11602457a6d540cbd635473ffffffffffffffffffffffffffffffffffffffff166101e9565b60005473ffffffffffffffffffffffffffffffffffffffff163314610641576040517f08c379a000000000000000000000000000000000000000000000000000000000815260206004820181905260248201527f4f776e61626c653a2063616c6c6572206973206e6f7420746865206f776e657260448201526064015b60405180910390fd5b7f50524943455f4f5241434c450000000000000000000000000000000000000000600090815260026020527f740f710666bd7a12af42df98311e541e47f7fd33d382d11602457a6d540cbd6380547fffffffffffffffffffffffff00000000000000000000000000000000000000001673ffffffffffffffffffffffffffffffffffffffff841690811790915560405190917fefe8ab924ca486283a79dc604baa67add51afb82af1db8ac386ebbba643cdffd91a250565b60606001805461070890611918565b80601f016020809104026020016040519081016040528092919081815260200182805461073490611918565b80156107815780601f1061075657610100808354040283529160200191610781565b820191906000526020600020905b81548152906001019060200180831161076457829003601f168201915b5050505050905090565b60005473ffffffffffffffffffffffffffffffffffffffff16331461080c576040517f08c379a000000000000000000000000000000000000000000000000000000000815260206004820181905260248201527f4f776e61626c653a2063616c6c6572206973206e6f7420746865206f776e65726044820152606401610638565b6108168282611363565b604080518381526001602082015273ffffffffffffffffffffffffffffffffffffffff8316917ff2689d5d5cd0c639e137642cae5d40afced201a1a0327e7ac9358461dc9fff3191015b60405180910390a25050565b60005473ffffffffffffffffffffffffffffffffffffffff1633146108ed576040517f08c379a000000000000000000000000000000000000000000000000000000000815260206004820181905260248201527f4f776e61626c653a2063616c6c6572206973206e6f7420746865206f776e65726044820152606401610638565b6000805460405173ffffffffffffffffffffffffffffffffffffffff909116907f8be0079c531659141344cd1fd0a4f28419497f9722a3daafe3b4186f6b6457e0908390a3600080547fffffffffffffffffffffffff0000000000000000000000000000000000000000169055565b60005473ffffffffffffffffffffffffffffffffffffffff1633146109dd576040517f08c379a000000000000000000000000000000000000000000000000000000000815260206004820181905260248201527f4f776e61626c653a2063616c6c6572206973206e6f7420746865206f776e65726044820152606401610638565b7f50524943455f4f5241434c455f53454e54494e454c0000000000000000000000600090815260026020527f0d2c1bcee56447b4f46248272f34207a580a5c40f666a31f4e2fbb470ea53ab880547fffffffffffffffffffffffff00000000000000000000000000000000000000001673ffffffffffffffffffffffffffffffffffffffff841690811790915560405190917f6acd66c97ae438dfe868061fb89a505d1b13fb38b7e9db6450393da2dd70df4191a250565b60005473ffffffffffffffffffffffffffffffffffffffff163314610b16576040517f08c379a000000000000000000000000000000000000000000000000000000000815260206004820181905260248201527f4f776e61626c653a2063616c6c6572206973206e6f7420746865206f776e65726044820152606401610638565b7f41434c5f41444d494e0000000000000000000000000000000000000000000000600090815260026020527ffab167ad2009dcb80ee379700bb4bd029d97c1181ed9d961625632c8a6f051c680547fffffffffffffffffffffffff00000000000000000000000000000000000000001673ffffffffffffffffffffffffffffffffffffffff841690811790915560405190917f6ab6686d343f0e461c115392ae57c07afcdfeba7e5907def7933a98bac3167f191a250565b60005473ffffffffffffffffffffffffffffffffffffffff163314610c4f576040517f08c379a000000000000000000000000000000000000000000000000000000000815260206004820181905260248201527f4f776e61626c653a2063616c6c6572206973206e6f7420746865206f776e65726044820152606401610638565b610c797f504f4f4c0000000000000000000000000000000000000000000000000000000082611363565b60405173ffffffffffffffffffffffffffffffffffffffff8216907f380cec482764ddef4f75351b5398e3e2bea99ba23e53a00d5521f569fb668e1f90600090a250565b60005473ffffffffffffffffffffffffffffffffffffffff163314610d3e576040517f08c379a000000000000000000000000000000000000000000000000000000000815260206004820181905260248201527f4f776e61626c653a2063616c6c6572206973206e6f7420746865206f776e65726044820152606401610638565b600082815260026020908152604080832080547fffffffffffffffffffffffff00000000000000000000000000000000000000001673ffffffffffffffffffffffffffffffffffffffff86169081179091558151868152928301939093527ff2689d5d5cd0c639e137642cae5d40afced201a1a0327e7ac9358461dc9fff319101610860565b60005473ffffffffffffffffffffffffffffffffffffffff163314610e45576040517f08c379a000000000000000000000000000000000000000000000000000000000815260206004820181905260248201527f4f776e61626c653a2063616c6c6572206973206e6f7420746865206f776e65726044820152606401610638565b7f444154415f50524f564944455200000000000000000000000000000000000000600090815260026020527fcd7944601aaa5cd7ccdae1bebec659e98c6aac8f12486b30e59db0d39698051f80547fffffffffffffffffffffffff00000000000000000000000000000000000000001673ffffffffffffffffffffffffffffffffffffffff841690811790915560405190917f571d68d2e6247b604609ccb22c507d1f2759bd29fed56b588e8f4e26bfd4bae991a250565b60005473ffffffffffffffffffffffffffffffffffffffff163314610f7e576040517f08c379a000000000000000000000000000000000000000000000000000000000815260206004820181905260248201527f4f776e61626c653a2063616c6c6572206973206e6f7420746865206f776e65726044820152606401610638565b610fa87f504f4f4c5f434f4e464947555241544f5200000000000000000000000000000082611363565b60405173ffffffffffffffffffffffffffffffffffffffff8216907f9f43c88f90fc4fb0e2a512ad225da1df322b4c37b521b8b826a0a3e71059f1d090600090a250565b60005473ffffffffffffffffffffffffffffffffffffffff16331461106d576040517f08c379a000000000000000000000000000000000000000000000000000000000815260206004820181905260248201527f4f776e61626c653a2063616c6c6572206973206e6f7420746865206f776e65726044820152606401610638565b7f41434c5f4d414e41474552000000000000000000000000000000000000000000600090815260026020527f9edef266ef35fd0c6e131df0f31a330f3dd4c4d19dd31ed615c21d005c68116b80547fffffffffffffffffffffffff00000000000000000000000000000000000000001673ffffffffffffffffffffffffffffffffffffffff841690811790915560405190917f4b4fe5109685f750718c828ad9dd0af7b0939146fe8b3e6dec5b3af94de21ad491a250565b60005473ffffffffffffffffffffffffffffffffffffffff1633146111a6576040517f08c379a000000000000000000000000000000000000000000000000000000000815260206004820181905260248201527f4f776e61626c653a2063616c6c6572206973206e6f7420746865206f776e65726044820152606401610638565b73ffffffffffffffffffffffffffffffffffffffff8116611249576040517f08c379a000000000000000000000000000000000000000000000000000000000815260206004820152602660248201527f4f776e61626c653a206e6577206f776e657220697320746865207a65726f206160448201527f64647265737300000000000000000000000000000000000000000000000000006064820152608401610638565b6000805460405173ffffffffffffffffffffffffffffffffffffffff808516939216917f8be0079c531659141344cd1fd0a4f28419497f9722a3daafe3b4186f6b6457e091a3600080547fffffffffffffffffffffffff00000000000000000000000000000000000000001673ffffffffffffffffffffffffffffffffffffffff92909216919091179055565b60005473ffffffffffffffffffffffffffffffffffffffff163314611357576040517f08c379a000000000000000000000000000000000000000000000000000000000815260206004820181905260248201527f4f776e61626c653a2063616c6c6572206973206e6f7420746865206f776e65726044820152606401610638565b61136081611618565b50565b60008281526002602052604080822054905130602482015273ffffffffffffffffffffffffffffffffffffffff909116918291604401604080517fffffffffffffffffffffffffffffffffffffffffffffffffffffffffffffffe08184030181529190526020810180517bffffffffffffffffffffffffffffffffffffffffffffffffffffffff167fc4d66de800000000000000000000000000000000000000000000000000000000179052905073ffffffffffffffffffffffffffffffffffffffff831661158a573060405161143990611666565b73ffffffffffffffffffffffffffffffffffffffff9091168152602001604051809103906000f080158015611472573d6000803e3d6000fd5b506000868152600260205260409081902080547fffffffffffffffffffffffff00000000000000000000000000000000000000001673ffffffffffffffffffffffffffffffffffffffff841690811790915590517fd1f578940000000000000000000000000000000000000000000000000000000081529193509063d1f5789490611503908790859060040161196c565b600060405180830381600087803b15801561151d57600080fd5b505af1158015611531573d6000803e3d6000fd5b505050508173ffffffffffffffffffffffffffffffffffffffff167f1eb35cb4b5bbb23d152f3b4016a5a46c37a07ae930ed0956aba951e2311424388660405161157d91815260200190565b60405180910390a2611611565b6040517f4f1ef28600000000000000000000000000000000000000000000000000000000815273ffffffffffffffffffffffffffffffffffffffff831690634f1ef286906115de908790859060040161196c565b600060405180830381600087803b1580156115f857600080fd5b505af115801561160c573d6000803e3d6000fd5b505050505b5050505050565b805161162b906001906020840190611673565b507f5e667c32fd847cf8bce48ab3400175cbf107bdc82b2dea62e3364909dfaee7998160405161165b91906117db565b60405180910390a150565b610a0e806119a483390190565b82805461167f90611918565b90600052602060002090601f0160209004810192826116a157600085556116e7565b82601f106116ba57805160ff19168380011785556116e7565b828001600101855582156116e7579182015b828111156116e75782518255916020019190600101906116cc565b506116f39291506116f7565b5090565b5b808211156116f357600081556001016116f8565b60006020828403121561171e57600080fd5b5035919050565b803573ffffffffffffffffffffffffffffffffffffffff8116811461174957600080fd5b919050565b60006020828403121561176057600080fd5b61176982611725565b9392505050565b6000815180845260005b818110156117965760208185018101518683018201520161177a565b818111156117a8576000602083870101525b50601f017fffffffffffffffffffffffffffffffffffffffffffffffffffffffffffffffe0169290920160200192915050565b6020815260006117696020830184611770565b6000806040838503121561180157600080fd5b8235915061181160208401611725565b90509250929050565b7f4e487b7100000000000000000000000000000000000000000000000000000000600052604160045260246000fd5b60006020828403121561185b57600080fd5b813567ffffffffffffffff8082111561187357600080fd5b818401915084601f83011261188757600080fd5b8135818111156118995761189961181a565b604051601f82017fffffffffffffffffffffffffffffffffffffffffffffffffffffffffffffffe0908116603f011681019083821181831017156118df576118df61181a565b816040528281528760208487010111156118f857600080fd5b826020860160208301376000928101602001929092525095945050505050565b600181811c9082168061192c57607f821691505b60208210811415611966577f4e487b7100000000000000000000000000000000000000000000000000000000600052602260045260246000fd5b50919050565b73ffffffffffffffffffffffffffffffffffffffff8316815260406020820152600061199b6040830184611770565b94935050505056fe60a060405234801561001057600080fd5b50604051610a0e380380610a0e83398101604081905261002f91610040565b6001600160a01b0316608052610070565b60006020828403121561005257600080fd5b81516001600160a01b038116811461006957600080fd5b9392505050565b6080516109606100ae6000396000818161014f015281816101a101528181610274015281816104110152818161043a01526105ab01526109606000f3fe60806040526004361061005a5760003560e01c80635c60da1b116100435780635c60da1b14610097578063d1f57894146100d5578063f851a440146100e85761005a565b80633659cfe6146100645780634f1ef28614610084575b6100626100fd565b005b34801561007057600080fd5b5061006261007f3660046106be565b610137565b6100626100923660046106e0565b610189565b3480156100a357600080fd5b506100ac61025a565b60405173ffffffffffffffffffffffffffffffffffffffff909116815260200160405180910390f35b6100626100e3366004610792565b6102cb565b3480156100f457600080fd5b506100ac6103f7565b61010561045c565b6101356101307f360894a13ba1a3210667c828492db98dca3e2076cc3735a920a3ca505d382bbc5490565b610464565b565b3373ffffffffffffffffffffffffffffffffffffffff7f00000000000000000000000000000000000000000000000000000000000000001614156101815761017e81610488565b50565b61017e6100fd565b3373ffffffffffffffffffffffffffffffffffffffff7f000000000000000000000000000000000000000000000000000000000000000016141561024d576101d083610488565b60008373ffffffffffffffffffffffffffffffffffffffff1683836040516101f9929190610872565b600060405180830381855af49150503d8060008114610234576040519150601f19603f3d011682016040523d82523d6000602084013e610239565b606091505b505090508061024757600080fd5b50505050565b6102556100fd565b505050565b60003373ffffffffffffffffffffffffffffffffffffffff7f00000000000000000000000000000000000000000000000000000000000000001614156102c057507f360894a13ba1a3210667c828492db98dca3e2076cc3735a920a3ca505d382bbc5490565b6102c86100fd565b90565b60006102f57f360894a13ba1a3210667c828492db98dca3e2076cc3735a920a3ca505d382bbc5490565b73ffffffffffffffffffffffffffffffffffffffff161461031557600080fd5b61034060017f360894a13ba1a3210667c828492db98dca3e2076cc3735a920a3ca505d382bbd610882565b7f360894a13ba1a3210667c828492db98dca3e2076cc3735a920a3ca505d382bbc1461036e5761036e6108c0565b610377826104d5565b8051156103f35760008273ffffffffffffffffffffffffffffffffffffffff16826040516103a591906108ef565b600060405180830381855af49150503d80600081146103e0576040519150601f19603f3d011682016040523d82523d6000602084013e6103e5565b606091505b505090508061025557600080fd5b5050565b60003373ffffffffffffffffffffffffffffffffffffffff7f00000000000000000000000000000000000000000000000000000000000000001614156102c057507f000000000000000000000000000000000000000000000000000000000000000090565b610135610593565b3660008037600080366000845af43d6000803e808015610483573d6000f35b3d6000fd5b610491816104d5565b60405173ffffffffffffffffffffffffffffffffffffffff8216907fbc7cd75a20ee27fd9adebab32041f755214dbc6bffa90cc0225b39da2e5c2d3b90600090a250565b6104de81610659565b61056f576040517f08c379a000000000000000000000000000000000000000000000000000000000815260206004820152603b60248201527f43616e6e6f742073657420612070726f787920696d706c656d656e746174696f60448201527f6e20746f2061206e6f6e2d636f6e74726163742061646472657373000000000060648201526084015b60405180910390fd5b7f360894a13ba1a3210667c828492db98dca3e2076cc3735a920a3ca505d382bbc55565b3373ffffffffffffffffffffffffffffffffffffffff7f0000000000000000000000000000000000000000000000000000000000000000161415610135576040517f08c379a000000000000000000000000000000000000000000000000000000000815260206004820152603260248201527f43616e6e6f742063616c6c2066616c6c6261636b2066756e6374696f6e20667260448201527f6f6d207468652070726f78792061646d696e00000000000000000000000000006064820152608401610566565b6000813f7fc5d2460186f7233c927e7db2dcc703c0e500b653ca82273b7bfad8045d85a47081811480159061068d57508115155b949350505050565b803573ffffffffffffffffffffffffffffffffffffffff811681146106b957600080fd5b919050565b6000602082840312156106d057600080fd5b6106d982610695565b9392505050565b6000806000604084860312156106f557600080fd5b6106fe84610695565b9250602084013567ffffffffffffffff8082111561071b57600080fd5b818601915086601f83011261072f57600080fd5b81358181111561073e57600080fd5b87602082850101111561075057600080fd5b6020830194508093505050509250925092565b7f4e487b7100000000000000000000000000000000000000000000000000000000600052604160045260246000fd5b600080604083850312156107a557600080fd5b6107ae83610695565b9150602083013567ffffffffffffffff808211156107cb57600080fd5b818501915085601f8301126107df57600080fd5b8135818111156107f1576107f1610763565b604051601f82017fffffffffffffffffffffffffffffffffffffffffffffffffffffffffffffffe0908116603f0116810190838211818310171561083757610837610763565b8160405282815288602084870101111561085057600080fd5b8260208601602083013760006020848301015280955050505050509250929050565b8183823760009101908152919050565b6000828210156108bb577f4e487b7100000000000000000000000000000000000000000000000000000000600052601160045260246000fd5b500390565b7f4e487b7100000000000000000000000000000000000000000000000000000000600052600160045260246000fd5b6000825160005b8181101561091057602081860181015185830152016108f6565b8181111561091f576000828501525b50919091019291505056fea2646970667358221220ad717467043003e8aca203b61620477bdc93766a9ab49f04c419b39bafe7187064736f6c634300080a0033a264697066735822122074926a467569d645595455e14feb51a3e69c2d94977bb9c5bf337160e6c7b47864736f6c634300080a0033",
  "linkReferences": {},
  "deployedLinkReferences": {}
}