{
  "_format": "hh-sol-artifact-1",
  "contractName": "StableDebtToken",
  "sourceName": "contracts/protocol/tokenization/StableDebtToken.sol",
  "abi": [
    {
      "inputs": [
        {
          "internalType": "contract IPool",
          "name": "pool",
          "type": "address"
        }
      ],
      "stateMutability": "nonpayable",
      "type": "constructor"
    },
    {
      "anonymous": false,
      "inputs": [
        {
          "indexed": true,
          "internalType": "address",
          "name": "owner",
          "type": "address"
        },
        {
          "indexed": true,
          "internalType": "address",
          "name": "spender",
          "type": "address"
        },
        {
          "indexed": false,
          "internalType": "uint256",
          "name": "value",
          "type": "uint256"
        }
      ],
      "name": "Approval",
      "type": "event"
    },
    {
      "anonymous": false,
      "inputs": [
        {
          "indexed": true,
          "internalType": "address",
          "name": "fromUser",
          "type": "address"
        },
        {
          "indexed": true,
          "internalType": "address",
          "name": "toUser",
          "type": "address"
        },
        {
          "indexed": false,
          "internalType": "address",
          "name": "asset",
          "type": "address"
        },
        {
          "indexed": false,
          "internalType": "uint256",
          "name": "amount",
          "type": "uint256"
        }
      ],
      "name": "BorrowAllowanceDelegated",
      "type": "event"
    },
    {
      "anonymous": false,
      "inputs": [
        {
          "indexed": true,
          "internalType": "address",
          "name": "user",
          "type": "address"
        },
        {
          "indexed": false,
          "internalType": "uint256",
          "name": "amount",
          "type": "uint256"
        },
        {
          "indexed": false,
          "internalType": "uint256",
          "name": "currentBalance",
          "type": "uint256"
        },
        {
          "indexed": false,
          "internalType": "uint256",
          "name": "balanceIncrease",
          "type": "uint256"
        },
        {
          "indexed": false,
          "internalType": "uint256",
          "name": "avgStableRate",
          "type": "uint256"
        },
        {
          "indexed": false,
          "internalType": "uint256",
          "name": "newTotalSupply",
          "type": "uint256"
        }
      ],
      "name": "Burn",
      "type": "event"
    },
    {
      "anonymous": false,
      "inputs": [
        {
          "indexed": true,
          "internalType": "address",
          "name": "underlyingAsset",
          "type": "address"
        },
        {
          "indexed": true,
          "internalType": "address",
          "name": "pool",
          "type": "address"
        },
        {
          "indexed": false,
          "internalType": "address",
          "name": "incentivesController",
          "type": "address"
        },
        {
          "indexed": false,
          "internalType": "uint8",
          "name": "debtTokenDecimals",
          "type": "uint8"
        },
        {
          "indexed": false,
          "internalType": "string",
          "name": "debtTokenName",
          "type": "string"
        },
        {
          "indexed": false,
          "internalType": "string",
          "name": "debtTokenSymbol",
          "type": "string"
        },
        {
          "indexed": false,
          "internalType": "bytes",
          "name": "params",
          "type": "bytes"
        }
      ],
      "name": "Initialized",
      "type": "event"
    },
    {
      "anonymous": false,
      "inputs": [
        {
          "indexed": true,
          "internalType": "address",
          "name": "user",
          "type": "address"
        },
        {
          "indexed": true,
          "internalType": "address",
          "name": "onBehalfOf",
          "type": "address"
        },
        {
          "indexed": false,
          "internalType": "uint256",
          "name": "amount",
          "type": "uint256"
        },
        {
          "indexed": false,
          "internalType": "uint256",
          "name": "currentBalance",
          "type": "uint256"
        },
        {
          "indexed": false,
          "internalType": "uint256",
          "name": "balanceIncrease",
          "type": "uint256"
        },
        {
          "indexed": false,
          "internalType": "uint256",
          "name": "newRate",
          "type": "uint256"
        },
        {
          "indexed": false,
          "internalType": "uint256",
          "name": "avgStableRate",
          "type": "uint256"
        },
        {
          "indexed": false,
          "internalType": "uint256",
          "name": "newTotalSupply",
          "type": "uint256"
        }
      ],
      "name": "Mint",
      "type": "event"
    },
    {
      "anonymous": false,
      "inputs": [
        {
          "indexed": true,
          "internalType": "address",
          "name": "from",
          "type": "address"
        },
        {
          "indexed": true,
          "internalType": "address",
          "name": "to",
          "type": "address"
        },
        {
          "indexed": false,
          "internalType": "uint256",
          "name": "value",
          "type": "uint256"
        }
      ],
      "name": "Transfer",
      "type": "event"
    },
    {
      "inputs": [],
      "name": "DEBT_TOKEN_REVISION",
      "outputs": [
        {
          "internalType": "uint256",
          "name": "",
          "type": "uint256"
        }
      ],
      "stateMutability": "view",
      "type": "function"
    },
    {
      "inputs": [],
      "name": "DELEGATION_WITH_SIG_TYPEHASH",
      "outputs": [
        {
          "internalType": "bytes32",
          "name": "",
          "type": "bytes32"
        }
      ],
      "stateMutability": "view",
      "type": "function"
    },
    {
      "inputs": [],
      "name": "DOMAIN_SEPARATOR",
      "outputs": [
        {
          "internalType": "bytes32",
          "name": "",
          "type": "bytes32"
        }
      ],
      "stateMutability": "view",
      "type": "function"
    },
    {
      "inputs": [],
      "name": "EIP712_REVISION",
      "outputs": [
        {
          "internalType": "bytes",
          "name": "",
          "type": "bytes"
        }
      ],
      "stateMutability": "view",
      "type": "function"
    },
    {
      "inputs": [],
      "name": "POOL",
      "outputs": [
        {
          "internalType": "contract IPool",
          "name": "",
          "type": "address"
        }
      ],
      "stateMutability": "view",
      "type": "function"
    },
    {
      "inputs": [],
      "name": "UNDERLYING_ASSET_ADDRESS",
      "outputs": [
        {
          "internalType": "address",
          "name": "",
          "type": "address"
        }
      ],
      "stateMutability": "view",
      "type": "function"
    },
    {
      "inputs": [
        {
          "internalType": "address",
          "name": "",
          "type": "address"
        },
        {
          "internalType": "address",
          "name": "",
          "type": "address"
        }
      ],
      "name": "allowance",
      "outputs": [
        {
          "internalType": "uint256",
          "name": "",
          "type": "uint256"
        }
      ],
      "stateMutability": "view",
      "type": "function"
    },
    {
      "inputs": [
        {
          "internalType": "address",
          "name": "",
          "type": "address"
        },
        {
          "internalType": "uint256",
          "name": "",
          "type": "uint256"
        }
      ],
      "name": "approve",
      "outputs": [
        {
          "internalType": "bool",
          "name": "",
          "type": "bool"
        }
      ],
      "stateMutability": "nonpayable",
      "type": "function"
    },
    {
      "inputs": [
        {
          "internalType": "address",
          "name": "delegatee",
          "type": "address"
        },
        {
          "internalType": "uint256",
          "name": "amount",
          "type": "uint256"
        }
      ],
      "name": "approveDelegation",
      "outputs": [],
      "stateMutability": "nonpayable",
      "type": "function"
    },
    {
      "inputs": [
        {
          "internalType": "address",
          "name": "account",
          "type": "address"
        }
      ],
      "name": "balanceOf",
      "outputs": [
        {
          "internalType": "uint256",
          "name": "",
          "type": "uint256"
        }
      ],
      "stateMutability": "view",
      "type": "function"
    },
    {
      "inputs": [
        {
          "internalType": "address",
          "name": "fromUser",
          "type": "address"
        },
        {
          "internalType": "address",
          "name": "toUser",
          "type": "address"
        }
      ],
      "name": "borrowAllowance",
      "outputs": [
        {
          "internalType": "uint256",
          "name": "",
          "type": "uint256"
        }
      ],
      "stateMutability": "view",
      "type": "function"
    },
    {
      "inputs": [
        {
          "internalType": "address",
          "name": "user",
          "type": "address"
        },
        {
          "internalType": "uint256",
          "name": "amount",
          "type": "uint256"
        }
      ],
      "name": "burn",
      "outputs": [
        {
          "internalType": "uint256",
          "name": "",
          "type": "uint256"
        },
        {
          "internalType": "uint256",
          "name": "",
          "type": "uint256"
        }
      ],
      "stateMutability": "nonpayable",
      "type": "function"
    },
    {
      "inputs": [],
      "name": "decimals",
      "outputs": [
        {
          "internalType": "uint8",
          "name": "",
          "type": "uint8"
        }
      ],
      "stateMutability": "view",
      "type": "function"
    },
    {
      "inputs": [
        {
          "internalType": "address",
          "name": "",
          "type": "address"
        },
        {
          "internalType": "uint256",
          "name": "",
          "type": "uint256"
        }
      ],
      "name": "decreaseAllowance",
      "outputs": [
        {
          "internalType": "bool",
          "name": "",
          "type": "bool"
        }
      ],
      "stateMutability": "nonpayable",
      "type": "function"
    },
    {
      "inputs": [
        {
          "internalType": "address",
          "name": "delegator",
          "type": "address"
        },
        {
          "internalType": "address",
          "name": "delegatee",
          "type": "address"
        },
        {
          "internalType": "uint256",
          "name": "value",
          "type": "uint256"
        },
        {
          "internalType": "uint256",
          "name": "deadline",
          "type": "uint256"
        },
        {
          "internalType": "uint8",
          "name": "v",
          "type": "uint8"
        },
        {
          "internalType": "bytes32",
          "name": "r",
          "type": "bytes32"
        },
        {
          "internalType": "bytes32",
          "name": "s",
          "type": "bytes32"
        }
      ],
      "name": "delegationWithSig",
      "outputs": [],
      "stateMutability": "nonpayable",
      "type": "function"
    },
    {
      "inputs": [],
      "name": "getAverageStableRate",
      "outputs": [
        {
          "internalType": "uint256",
          "name": "",
          "type": "uint256"
        }
      ],
      "stateMutability": "view",
      "type": "function"
    },
    {
      "inputs": [],
      "name": "getIncentivesController",
      "outputs": [
        {
          "internalType": "contract IAaveIncentivesController",
          "name": "",
          "type": "address"
        }
      ],
      "stateMutability": "view",
      "type": "function"
    },
    {
      "inputs": [],
      "name": "getSupplyData",
      "outputs": [
        {
          "internalType": "uint256",
          "name": "",
          "type": "uint256"
        },
        {
          "internalType": "uint256",
          "name": "",
          "type": "uint256"
        },
        {
          "internalType": "uint256",
          "name": "",
          "type": "uint256"
        },
        {
          "internalType": "uint40",
          "name": "",
          "type": "uint40"
        }
      ],
      "stateMutability": "view",
      "type": "function"
    },
    {
      "inputs": [],
      "name": "getTotalSupplyAndAvgRate",
      "outputs": [
        {
          "internalType": "uint256",
          "name": "",
          "type": "uint256"
        },
        {
          "internalType": "uint256",
          "name": "",
          "type": "uint256"
        }
      ],
      "stateMutability": "view",
      "type": "function"
    },
    {
      "inputs": [],
      "name": "getTotalSupplyLastUpdated",
      "outputs": [
        {
          "internalType": "uint40",
          "name": "",
          "type": "uint40"
        }
      ],
      "stateMutability": "view",
      "type": "function"
    },
    {
      "inputs": [
        {
          "internalType": "address",
          "name": "user",
          "type": "address"
        }
      ],
      "name": "getUserLastUpdated",
      "outputs": [
        {
          "internalType": "uint40",
          "name": "",
          "type": "uint40"
        }
      ],
      "stateMutability": "view",
      "type": "function"
    },
    {
      "inputs": [
        {
          "internalType": "address",
          "name": "user",
          "type": "address"
        }
      ],
      "name": "getUserStableRate",
      "outputs": [
        {
          "internalType": "uint256",
          "name": "",
          "type": "uint256"
        }
      ],
      "stateMutability": "view",
      "type": "function"
    },
    {
      "inputs": [
        {
          "internalType": "address",
          "name": "",
          "type": "address"
        },
        {
          "internalType": "uint256",
          "name": "",
          "type": "uint256"
        }
      ],
      "name": "increaseAllowance",
      "outputs": [
        {
          "internalType": "bool",
          "name": "",
          "type": "bool"
        }
      ],
      "stateMutability": "nonpayable",
      "type": "function"
    },
    {
      "inputs": [
        {
          "internalType": "address",
          "name": "underlyingAsset",
          "type": "address"
        },
        {
          "internalType": "contract IAaveIncentivesController",
          "name": "incentivesController",
          "type": "address"
        },
        {
          "internalType": "uint8",
          "name": "debtTokenDecimals",
          "type": "uint8"
        },
        {
          "internalType": "string",
          "name": "debtTokenName",
          "type": "string"
        },
        {
          "internalType": "string",
          "name": "debtTokenSymbol",
          "type": "string"
        },
        {
          "internalType": "bytes",
          "name": "params",
          "type": "bytes"
        }
      ],
      "name": "initialize",
      "outputs": [],
      "stateMutability": "nonpayable",
      "type": "function"
    },
    {
      "inputs": [
        {
          "internalType": "address",
          "name": "user",
          "type": "address"
        },
        {
          "internalType": "address",
          "name": "onBehalfOf",
          "type": "address"
        },
        {
          "internalType": "uint256",
          "name": "amount",
          "type": "uint256"
        },
        {
          "internalType": "uint256",
          "name": "rate",
          "type": "uint256"
        }
      ],
      "name": "mint",
      "outputs": [
        {
          "internalType": "bool",
          "name": "",
          "type": "bool"
        },
        {
          "internalType": "uint256",
          "name": "",
          "type": "uint256"
        },
        {
          "internalType": "uint256",
          "name": "",
          "type": "uint256"
        }
      ],
      "stateMutability": "nonpayable",
      "type": "function"
    },
    {
      "inputs": [],
      "name": "name",
      "outputs": [
        {
          "internalType": "string",
          "name": "",
          "type": "string"
        }
      ],
      "stateMutability": "view",
      "type": "function"
    },
    {
      "inputs": [
        {
          "internalType": "address",
          "name": "owner",
          "type": "address"
        }
      ],
      "name": "nonces",
      "outputs": [
        {
          "internalType": "uint256",
          "name": "",
          "type": "uint256"
        }
      ],
      "stateMutability": "view",
      "type": "function"
    },
    {
      "inputs": [
        {
          "internalType": "address",
          "name": "user",
          "type": "address"
        }
      ],
      "name": "principalBalanceOf",
      "outputs": [
        {
          "internalType": "uint256",
          "name": "",
          "type": "uint256"
        }
      ],
      "stateMutability": "view",
      "type": "function"
    },
    {
      "inputs": [
        {
          "internalType": "contract IAaveIncentivesController",
          "name": "controller",
          "type": "address"
        }
      ],
      "name": "setIncentivesController",
      "outputs": [],
      "stateMutability": "nonpayable",
      "type": "function"
    },
    {
      "inputs": [],
      "name": "symbol",
      "outputs": [
        {
          "internalType": "string",
          "name": "",
          "type": "string"
        }
      ],
      "stateMutability": "view",
      "type": "function"
    },
    {
      "inputs": [],
      "name": "totalSupply",
      "outputs": [
        {
          "internalType": "uint256",
          "name": "",
          "type": "uint256"
        }
      ],
      "stateMutability": "view",
      "type": "function"
    },
    {
      "inputs": [
        {
          "internalType": "address",
          "name": "",
          "type": "address"
        },
        {
          "internalType": "uint256",
          "name": "",
          "type": "uint256"
        }
      ],
      "name": "transfer",
      "outputs": [
        {
          "internalType": "bool",
          "name": "",
          "type": "bool"
        }
      ],
      "stateMutability": "nonpayable",
      "type": "function"
    },
    {
      "inputs": [
        {
          "internalType": "address",
          "name": "",
          "type": "address"
        },
        {
          "internalType": "address",
          "name": "",
          "type": "address"
        },
        {
          "internalType": "uint256",
          "name": "",
          "type": "uint256"
        }
      ],
      "name": "transferFrom",
      "outputs": [
        {
          "internalType": "bool",
          "name": "",
          "type": "bool"
        }
      ],
      "stateMutability": "nonpayable",
      "type": "function"
    }
  ],
  "bytecode": "0x60e060405260006008553480156200001657600080fd5b5060405162002d7b38038062002d7b8339810160408190526200003991620001fe565b80806001600160a01b031663fe65acfe6040518163ffffffff1660e01b8152600401602060405180830381865afa15801562000079573d6000803e3d6000fd5b505050506040513d601f19601f820116820180604052508101906200009f9190620001fe565b604080518082018252600f8082526e1111509517d513d2d15397d2535413608a1b602080840182815285518087019096529285528401526001600160a01b0384166080528151919291600091620000fa91600391906200013f565b508151620001109060049060208501906200013f565b506005805460ff191660ff9290921691909117905550504660a052506001600160a01b031660c0525062000262565b8280546200014d9062000225565b90600052602060002090601f016020900481019282620001715760008555620001bc565b82601f106200018c57805160ff1916838001178555620001bc565b82800160010185558215620001bc579182015b82811115620001bc5782518255916020019190600101906200019f565b50620001ca929150620001ce565b5090565b5b80821115620001ca5760008155600101620001cf565b6001600160a01b0381168114620001fb57600080fd5b50565b6000602082840312156200021157600080fd5b81516200021e81620001e5565b9392505050565b600181811c908216806200023a57607f821691505b602082108114156200025c57634e487b7160e01b600052602260045260246000fd5b50919050565b60805160a05160c051612ad4620002a76000396000818161031a01528181610e5801528181610f69015261146401526000610b2e015260006118dc0152612ad46000f3fe608060405234801561001057600080fd5b506004361061020b5760003560e01c80637fdd585f1161012a578063b9a7b622116100bd578063e655dbd81161008c578063e78c9b3b11610071578063e78c9b3b146105d6578063f3bfc73814610632578063f731e9be1461065957600080fd5b8063e655dbd8146105a0578063e7484890146105b357600080fd5b8063b9a7b6221461052f578063c04a8a1014610537578063c634dfaa1461054a578063dd62ed3e1461059257600080fd5b8063a457c2d7116100f9578063a457c2d7146102ac578063a9059cbb146104d3578063b16a19de146104e1578063b3f1c93d146104ff57600080fd5b80637fdd585f1461047657806390f6fcf21461048957806395d89b41146104a35780639dc29fac146104ab57600080fd5b80636bd76d24116101a25780637816037611610171578063781603761461038257806379774338146103be57806379ce6b8c146103ed5780637ecebe001461044057600080fd5b80636bd76d24146102bf57806370a08231146103055780637535d2461461031857806375d264131461035f57600080fd5b806323b872dd116101de57806323b872dd1461027c578063313ce5671461028f5780633644e515146102a457806339509351146102ac57600080fd5b806306fdde0314610210578063095ea7b31461022e5780630b52d5581461025157806318160ddd14610266575b600080fd5b610218610661565b60405161022591906123a2565b60405180910390f35b61024161023c3660046123da565b6106f3565b6040519015158152602001610225565b61026461025f366004612417565b61075d565b005b61026e610a9f565b604051908152602001610225565b61024161028a366004612485565b610ac5565b60055460405160ff9091168152602001610225565b61026e610b2a565b6102416102ba3660046123da565b610b63565b61026e6102cd3660046124c6565b73ffffffffffffffffffffffffffffffffffffffff9182166000908152603c6020908152604080832093909416825291909152205490565b61026e6103133660046124ff565b610bc8565b7f00000000000000000000000000000000000000000000000000000000000000005b60405173ffffffffffffffffffffffffffffffffffffffff9091168152602001610225565b600554610100900473ffffffffffffffffffffffffffffffffffffffff1661033a565b6102186040518060400160405280600181526020017f310000000000000000000000000000000000000000000000000000000000000081525081565b6103c6610c74565b6040805194855260208501939093529183015264ffffffffff166060820152608001610225565b61042a6103fb3660046124ff565b73ffffffffffffffffffffffffffffffffffffffff166000908152603d602052604090205464ffffffffff1690565b60405164ffffffffff9091168152602001610225565b61026e61044e3660046124ff565b73ffffffffffffffffffffffffffffffffffffffff1660009081526006602052604090205490565b6102646104843660046125f6565b610cd0565b603e546fffffffffffffffffffffffffffffffff1661026e565b610218610f1e565b6104be6104b93660046123da565b610f2d565b60408051928352602083019190915201610225565b61024161028a3660046123da565b603f5473ffffffffffffffffffffffffffffffffffffffff1661033a565b61051261050d3660046126e8565b611449565b604080519315158452602084019290925290820152606001610225565b61026e600281565b6102646105453660046123da565b6118c9565b61026e6105583660046124ff565b73ffffffffffffffffffffffffffffffffffffffff166000908152602081905260409020546fffffffffffffffffffffffffffffffff1690565b61026e6102ba3660046124c6565b6102646105ae3660046124ff565b6118d8565b603e54700100000000000000000000000000000000900464ffffffffff1661042a565b61026e6105e43660046124ff565b73ffffffffffffffffffffffffffffffffffffffff1660009081526020819052604090205470010000000000000000000000000000000090046fffffffffffffffffffffffffffffffff1690565b61026e7f3f8f1584d261c3704820464a741b70ed265924afb92939f833452d3a71c21c9c81565b6104be611ab6565b6060600380546106709061272e565b80601f016020809104026020016040519081016040528092919081815260200182805461069c9061272e565b80156106e95780601f106106be576101008083540402835291602001916106e9565b820191906000526020600020905b8154815290600101906020018083116106cc57829003601f168201915b5050505050905090565b6040517f08c379a000000000000000000000000000000000000000000000000000000000815260206004820152601660248201527f415050524f56414c5f4e4f545f535550504f525445440000000000000000000060448201526000906064015b60405180910390fd5b73ffffffffffffffffffffffffffffffffffffffff87166107da576040517f08c379a000000000000000000000000000000000000000000000000000000000815260206004820152601160248201527f494e56414c49445f44454c454741544f520000000000000000000000000000006044820152606401610754565b83421115610844576040517f08c379a000000000000000000000000000000000000000000000000000000000815260206004820152601260248201527f494e56414c49445f45585049524154494f4e00000000000000000000000000006044820152606401610754565b73ffffffffffffffffffffffffffffffffffffffff871660009081526006602052604081205490610873610b2a565b604080517f3f8f1584d261c3704820464a741b70ed265924afb92939f833452d3a71c21c9c602082015273ffffffffffffffffffffffffffffffffffffffff808d1692820192909252908a1660608201526080810189905260a0810184905260c0810188905260e001604051602081830303815290604052805190602001206040516020016109349291907f190100000000000000000000000000000000000000000000000000000000000081526002810192909252602282015260420190565b604080517fffffffffffffffffffffffffffffffffffffffffffffffffffffffffffffffe081840301815282825280516020918201206000845290830180835281905260ff8816918301919091526060820186905260808201859052915060019060a0016020604051602081039080840390855afa1580156109ba573d6000803e3d6000fd5b5050506020604051035173ffffffffffffffffffffffffffffffffffffffff168973ffffffffffffffffffffffffffffffffffffffff1614610a58576040517f08c379a000000000000000000000000000000000000000000000000000000000815260206004820152601160248201527f494e56414c49445f5349474e41545552450000000000000000000000000000006044820152606401610754565b610a638260016127b1565b73ffffffffffffffffffffffffffffffffffffffff8a16600090815260066020526040902055610a94898989611ae1565b505050505050505050565b603e54600090610ac0906fffffffffffffffffffffffffffffffff16611b8c565b905090565b6040517f08c379a000000000000000000000000000000000000000000000000000000000815260206004820152601660248201527f5452414e534645525f4e4f545f535550504f52544544000000000000000000006044820152600090606401610754565b60007f0000000000000000000000000000000000000000000000000000000000000000461415610b5b575060075490565b610ac0611bdb565b6040517f08c379a000000000000000000000000000000000000000000000000000000000815260206004820152601760248201527f414c4c4f57414e43455f4e4f545f535550504f525445440000000000000000006044820152600090606401610754565b73ffffffffffffffffffffffffffffffffffffffff81166000908152602081905260408120546fffffffffffffffffffffffffffffffff8082169170010000000000000000000000000000000090041681610c27575060009392505050565b73ffffffffffffffffffffffffffffffffffffffff84166000908152603d6020526040812054610c5f90839064ffffffffff16611ca6565b9050610c6b8382611cba565b95945050505050565b603e546000908190819081906fffffffffffffffffffffffffffffffff16610c9b60025490565b610ca482611b8c565b603e549197909650919450700100000000000000000000000000000000900464ffffffffff1692509050565b60095460029060ff1680610ce35750303b155b80610cef575060085481115b610d7b576040517f08c379a000000000000000000000000000000000000000000000000000000000815260206004820152602e60248201527f436f6e747261637420696e7374616e63652068617320616c726561647920626560448201527f656e20696e697469616c697a65640000000000000000000000000000000000006064820152608401610754565b60095460ff16158015610db957600980547fffffffffffffffffffffffffffffffffffffffffffffffffffffffffffffff0016600117905560088290555b610dc286611d11565b610dcb85611d24565b60058054603f805473ffffffffffffffffffffffffffffffffffffffff8d81167fffffffffffffffffffffffff0000000000000000000000000000000000000000909216919091179091558a16610100027fffffffffffffffffffffff00000000000000000000000000000000000000000090911660ff8a1617179055610e50611bdb565b6007819055507f000000000000000000000000000000000000000000000000000000000000000073ffffffffffffffffffffffffffffffffffffffff168973ffffffffffffffffffffffffffffffffffffffff167f40251fbfb6656cfa65a00d7879029fec1fad21d28fdcff2f4f68f52795b74f2c8a8a8a8a8a8a604051610edd969594939291906127c9565b60405180910390a38015610a9457600980547fffffffffffffffffffffffffffffffffffffffffffffffffffffffffffffff00169055505050505050505050565b6060600480546106709061272e565b60408051808201909152600281527f323900000000000000000000000000000000000000000000000000000000000060208201526000908190337f000000000000000000000000000000000000000000000000000000000000000073ffffffffffffffffffffffffffffffffffffffff1614610fd6576040517f08c379a000000000000000000000000000000000000000000000000000000000815260040161075491906123a2565b50600080610fe386611d37565b92509250506000610ff2610a9f565b73ffffffffffffffffffffffffffffffffffffffff881660009081526020819052604081205491925090819070010000000000000000000000000000000090046fffffffffffffffffffffffffffffffff1688841161107d57603e80547fffffffffffffffffffffffffffffffff000000000000000000000000000000001690556000600255611177565b6110878985612869565b6002819055915060006110b761109c86611dc6565b603e546fffffffffffffffffffffffffffffffff1690611cba565b905060006110ce6110c78c611dc6565b8490611cba565b905081811061110d57603e80547fffffffffffffffffffffffffffffffff00000000000000000000000000000000169055600060028190559450611174565b61113161112c61111c86611dc6565b6111268486612869565b90611de1565b611e1d565b603e80547fffffffffffffffffffffffffffffffff00000000000000000000000000000000166fffffffffffffffffffffffffffffffff92909216918217905594505b50505b858914156111ed5773ffffffffffffffffffffffffffffffffffffffff8a1660009081526020818152604080832080546fffffffffffffffffffffffffffffffff169055603d909152902080547fffffffffffffffffffffffffffffffffffffffffffffffffffffff0000000000169055611242565b73ffffffffffffffffffffffffffffffffffffffff8a166000908152603d6020526040902080547fffffffffffffffffffffffffffffffffffffffffffffffffffffff0000000000164264ffffffffff161790555b603e80547fffffffffffffffffffffff0000000000ffffffffffffffffffffffffffffffff167001000000000000000000000000000000004264ffffffffff16021790558885111561136b57600061129a8a87612869565b90506112a78b8287611ea6565b60405181815273ffffffffffffffffffffffffffffffffffffffff8c16906000907fddf252ad1be2c89b69c2b068fc378daa952ba7f163c4a11628f55a4df523b3ef9060200160405180910390a36040805182815260208101899052908101879052606081018390526080810185905260a0810184905273ffffffffffffffffffffffffffffffffffffffff8c169081907fc16f4e4ca34d790de4c656c72fd015c667d688f20be64eea360618545c4c530f9060c00160405180910390a35061143b565b6000611377868b612869565b90506113848b8287612017565b60405181815260009073ffffffffffffffffffffffffffffffffffffffff8d16907fddf252ad1be2c89b69c2b068fc378daa952ba7f163c4a11628f55a4df523b3ef9060200160405180910390a36040805182815260208101899052908101879052606081018590526080810184905273ffffffffffffffffffffffffffffffffffffffff8c16907f44bd20a79e993bdcc7cbedf54a3b4d19fb78490124b6b90d04fe3242eea579e89060a00160405180910390a2505b509890975095505050505050565b6000808073ffffffffffffffffffffffffffffffffffffffff7f0000000000000000000000000000000000000000000000000000000000000000163373ffffffffffffffffffffffffffffffffffffffff16146040518060400160405280600281526020017f32390000000000000000000000000000000000000000000000000000000000008152509061150a576040517f08c379a000000000000000000000000000000000000000000000000000000000815260040161075491906123a2565b506115446040518060c001604052806000815260200160008152602001600081526020016000815260200160008152602001600081525090565b8673ffffffffffffffffffffffffffffffffffffffff168873ffffffffffffffffffffffffffffffffffffffff161461158257611582878988612067565b60008061158e89611d37565b925092505061159b610a9f565b808452603e546fffffffffffffffffffffffffffffffff1660a08501526115c39089906127b1565b600281905560208401526115d688611dc6565b60408481019190915273ffffffffffffffffffffffffffffffffffffffff8a1660009081526020819052205470010000000000000000000000000000000090046fffffffffffffffffffffffffffffffff16606084015261167261164261163d8a856127b1565b611dc6565b6040850151611651908a611cba565b61166861165d86611dc6565b606088015190611cba565b61112691906127b1565b6080840181905261168290611e1d565b73ffffffffffffffffffffffffffffffffffffffff8a1660009081526020818152604080832080546fffffffffffffffffffffffffffffffff908116700100000000000000000000000000000000969091168602179055603d825290912080547fffffffffffffffffffffffffffffffffffffffffffffffffffffff0000000000164264ffffffffff16908117909155603e80547fffffffffffffffffffffff0000000000ffffffffffffffffffffffffffffffff16919093021790915583015161177f9061112c9061175490611dc6565b6040860151611764908b90611cba565b6116686117748860000151611dc6565b60a089015190611cba565b603e80547fffffffffffffffffffffffffffffffff00000000000000000000000000000000166fffffffffffffffffffffffffffffffff92909216918217905560a084015260006117d0828a6127b1565b90506117e18a828660000151611ea6565b60405181815273ffffffffffffffffffffffffffffffffffffffff8b16906000907fddf252ad1be2c89b69c2b068fc378daa952ba7f163c4a11628f55a4df523b3ef9060200160405180910390a360808085015160a080870151602080890151604080518881529283018a9052820188905260608201949094529384015282015273ffffffffffffffffffffffffffffffffffffffff808c1691908d16907fc16f4e4ca34d790de4c656c72fd015c667d688f20be64eea360618545c4c530f9060c00160405180910390a35050602082015160a0909201519015999198509650945050505050565b6118d4338383611ae1565b5050565b60007f000000000000000000000000000000000000000000000000000000000000000073ffffffffffffffffffffffffffffffffffffffff1663707cd7166040518163ffffffff1660e01b8152600401602060405180830381865afa158015611945573d6000803e3d6000fd5b505050506040513d601f19601f820116820180604052508101906119699190612880565b6040517f7be53ca100000000000000000000000000000000000000000000000000000000815233600482015290915073ffffffffffffffffffffffffffffffffffffffff821690637be53ca190602401602060405180830381865afa1580156119d6573d6000803e3d6000fd5b505050506040513d601f19601f820116820180604052508101906119fa919061289d565b6040518060400160405280600281526020017f333300000000000000000000000000000000000000000000000000000000000081525090611a68576040517f08c379a000000000000000000000000000000000000000000000000000000000815260040161075491906123a2565b50506005805473ffffffffffffffffffffffffffffffffffffffff909216610100027fffffffffffffffffffffff0000000000000000000000000000000000000000ff909216919091179055565b603e5460009081906fffffffffffffffffffffffffffffffff16611ad981611b8c565b939092509050565b73ffffffffffffffffffffffffffffffffffffffff8084166000818152603c602090815260408083209487168084529490915290208390557fda919360433220e13b51e8c211e490d148e61a3bd53de8c097194e458b97f3e1611b59603f5473ffffffffffffffffffffffffffffffffffffffff1690565b6040805173ffffffffffffffffffffffffffffffffffffffff9092168252602082018690520160405180910390a3505050565b600080611b9860025490565b905080611ba85750600092915050565b6000611bc784603e60109054906101000a900464ffffffffff16611ca6565b9050611bd38282611cba565b949350505050565b60007f8b73c3c69bb8fe3d512ecc4cf759cc79239f7b179b0ffacaa9a75d522b39400f6003604051611c0d91906128bf565b604080519182900382208282018252600183527f31000000000000000000000000000000000000000000000000000000000000006020938401528151928301939093528101919091527fc89efdaa54c0f20c7adf612882df0950f5a951637e0307cdcb4c672f298b8bc660608201524660808201523060a082015260c00160405160208183030381529060405280519060200120905090565b6000611cb3838342612157565b9392505050565b600081157ffffffffffffffffffffffffffffffffffffffffffe6268e1b017bfe18bffffff83900484111517611cef57600080fd5b506b033b2e3c9fd0803ce800000091026b019d971e4fe8401e74000000010490565b80516118d490600390602084019061229e565b80516118d490600490602084019061229e565b600080600080611d7b8573ffffffffffffffffffffffffffffffffffffffff166000908152602081905260409020546fffffffffffffffffffffffffffffffff1690565b905080611d9357600080600093509350935050611dbf565b600081611d9f87610bc8565b611da99190612869565b905081611db682826127b1565b90955093509150505b9193909250565b633b9aca008181029081048214611ddc57600080fd5b919050565b60006b033b2e3c9fd0803ce8000000600283041904831115611e0257600080fd5b506b033b2e3c9fd0803ce80000009190910260028204010490565b60408051808201909152600381527f313030000000000000000000000000000000000000000000000000000000000060208201526000906fffffffffffffffffffffffffffffffff831115611e9f576040517f08c379a000000000000000000000000000000000000000000000000000000000815260040161075491906123a2565b5090919050565b6000611eb183611e1d565b73ffffffffffffffffffffffffffffffffffffffff85166000908152602081905260409020549091506fffffffffffffffffffffffffffffffff16611ef68282612992565b73ffffffffffffffffffffffffffffffffffffffff868116600090815260208190526040902080547fffffffffffffffffffffffffffffffff00000000000000000000000000000000166fffffffffffffffffffffffffffffffff939093169290921790915560055461010090041615612010576005546040517f31873e2e00000000000000000000000000000000000000000000000000000000815273ffffffffffffffffffffffffffffffffffffffff8781166004830152602482018690526fffffffffffffffffffffffffffffffff84166044830152610100909204909116906331873e2e90606401600060405180830381600087803b158015611ffc57600080fd5b505af1158015610a94573d6000803e3d6000fd5b5050505050565b600061202283611e1d565b73ffffffffffffffffffffffffffffffffffffffff85166000908152602081905260409020549091506fffffffffffffffffffffffffffffffff16611ef682826129c6565b73ffffffffffffffffffffffffffffffffffffffff8084166000908152603c602090815260408083209386168352929052908120546120a7908390612869565b73ffffffffffffffffffffffffffffffffffffffff8086166000818152603c60209081526040808320948916808452949091529020839055919250907fda919360433220e13b51e8c211e490d148e61a3bd53de8c097194e458b97f3e1612123603f5473ffffffffffffffffffffffffffffffffffffffff1690565b6040805173ffffffffffffffffffffffffffffffffffffffff9092168252602082018690520160405180910390a350505050565b60008061216b64ffffffffff851684612869565b905080612187576b033b2e3c9fd0803ce8000000915050611cb3565b7fffffffffffffffffffffffffffffffffffffffffffffffffffffffffffffffff810160008080600285116121bd5760006121c2565b600285035b925066038882915c40006121d68a80611cba565b816121e3576121e36129f7565b0491506301e133806121f5838b611cba565b81612202576122026129f7565b0490506000826122128688612a26565b61221c9190612a26565b60029004905060008285612230888a612a26565b61223a9190612a26565b6122449190612a26565b60069004905080826301e1338061225b8a8f612a26565b6122659190612a63565b61227b906b033b2e3c9fd0803ce80000006127b1565b61228591906127b1565b61228f91906127b1565b9b9a5050505050505050505050565b8280546122aa9061272e565b90600052602060002090601f0160209004810192826122cc5760008555612312565b82601f106122e557805160ff1916838001178555612312565b82800160010185558215612312579182015b828111156123125782518255916020019190600101906122f7565b5061231e929150612322565b5090565b5b8082111561231e5760008155600101612323565b6000815180845260005b8181101561235d57602081850181015186830182015201612341565b8181111561236f576000602083870101525b50601f017fffffffffffffffffffffffffffffffffffffffffffffffffffffffffffffffe0169290920160200192915050565b602081526000611cb36020830184612337565b73ffffffffffffffffffffffffffffffffffffffff811681146123d757600080fd5b50565b600080604083850312156123ed57600080fd5b82356123f8816123b5565b946020939093013593505050565b803560ff81168114611ddc57600080fd5b600080600080600080600060e0888a03121561243257600080fd5b873561243d816123b5565b9650602088013561244d816123b5565b9550604088013594506060880135935061246960808901612406565b925060a0880135915060c0880135905092959891949750929550565b60008060006060848603121561249a57600080fd5b83356124a5816123b5565b925060208401356124b5816123b5565b929592945050506040919091013590565b600080604083850312156124d957600080fd5b82356124e4816123b5565b915060208301356124f4816123b5565b809150509250929050565b60006020828403121561251157600080fd5b8135611cb3816123b5565b7f4e487b7100000000000000000000000000000000000000000000000000000000600052604160045260246000fd5b600082601f83011261255c57600080fd5b813567ffffffffffffffff808211156125775761257761251c565b604051601f83017fffffffffffffffffffffffffffffffffffffffffffffffffffffffffffffffe0908116603f011681019082821181831017156125bd576125bd61251c565b816040528381528660208588010111156125d657600080fd5b836020870160208301376000602085830101528094505050505092915050565b600080600080600080600060c0888a03121561261157600080fd5b873561261c816123b5565b9650602088013561262c816123b5565b955061263a60408901612406565b9450606088013567ffffffffffffffff8082111561265757600080fd5b6126638b838c0161254b565b955060808a013591508082111561267957600080fd5b6126858b838c0161254b565b945060a08a013591508082111561269b57600080fd5b818a0191508a601f8301126126af57600080fd5b8135818111156126be57600080fd5b8b60208285010111156126d057600080fd5b60208301945080935050505092959891949750929550565b600080600080608085870312156126fe57600080fd5b8435612709816123b5565b93506020850135612719816123b5565b93969395505050506040820135916060013590565b600181811c9082168061274257607f821691505b6020821081141561277c577f4e487b7100000000000000000000000000000000000000000000000000000000600052602260045260246000fd5b50919050565b7f4e487b7100000000000000000000000000000000000000000000000000000000600052601160045260246000fd5b600082198211156127c4576127c4612782565b500190565b73ffffffffffffffffffffffffffffffffffffffff8716815260ff8616602082015260a06040820152600061280160a0830187612337565b82810360608401526128138187612337565b905082810360808401528381528385602083013760006020858301015260207fffffffffffffffffffffffffffffffffffffffffffffffffffffffffffffffe0601f860116820101915050979650505050505050565b60008282101561287b5761287b612782565b500390565b60006020828403121561289257600080fd5b8151611cb3816123b5565b6000602082840312156128af57600080fd5b81518015158114611cb357600080fd5b600080835481600182811c9150808316806128db57607f831692505b6020808410821415612914577f4e487b710000000000000000000000000000000000000000000000000000000086526022600452602486fd5b818015612928576001811461295757612984565b7fffffffffffffffffffffffffffffffffffffffffffffffffffffffffffffff00861689528489019650612984565b60008a81526020902060005b8681101561297c5781548b820152908501908301612963565b505084890196505b509498975050505050505050565b60006fffffffffffffffffffffffffffffffff8083168185168083038211156129bd576129bd612782565b01949350505050565b60006fffffffffffffffffffffffffffffffff838116908316818110156129ef576129ef612782565b039392505050565b7f4e487b7100000000000000000000000000000000000000000000000000000000600052601260045260246000fd5b6000817fffffffffffffffffffffffffffffffffffffffffffffffffffffffffffffffff0483118215151615612a5e57612a5e612782565b500290565b600082612a99577f4e487b7100000000000000000000000000000000000000000000000000000000600052601260045260246000fd5b50049056fea26469706673582212202501fc1c4ff9f64d726171c78e37716086f01f777dba98d5f2b81d62a3c4eefd64736f6c634300080a0033",
  "linkReferences": {},
  "deployedLinkReferences": {}
}