{
  "_format": "hh-sol-artifact-1",
  "contractName": "DefaultReserveInterestRateStrategy",
  "sourceName": "contracts/protocol/lendingpool/DefaultReserveInterestRateStrategy.sol",
  "abi": [
    {
      "inputs": [
        {
          "internalType": "contract ILendingPoolAddressesProvider",
          "name": "provider",
          "type": "address"
        },
        {
          "internalType": "uint256",
          "name": "optimalUtilizationRate",
          "type": "uint256"
        },
        {
          "internalType": "uint256",
          "name": "baseVariableBorrowRate",
          "type": "uint256"
        },
        {
          "internalType": "uint256",
          "name": "variableRateSlope1",
          "type": "uint256"
        },
        {
          "internalType": "uint256",
          "name": "variableRateSlope2",
          "type": "uint256"
        },
        {
          "internalType": "uint256",
          "name": "stableRateSlope1",
          "type": "uint256"
        },
        {
          "internalType": "uint256",
          "name": "stableRateSlope2",
          "type": "uint256"
        }
      ],
      "stateMutability": "nonpayable",
      "type": "constructor"
    },
    {
      "inputs": [],
      "name": "EXCESS_UTILIZATION_RATE",
      "outputs": [
        {
          "internalType": "uint256",
          "name": "",
          "type": "uint256"
        }
      ],
      "stateMutability": "view",
      "type": "function"
    },
    {
      "inputs": [],
      "name": "OPTIMAL_UTILIZATION_RATE",
      "outputs": [
        {
          "internalType": "uint256",
          "name": "",
          "type": "uint256"
        }
      ],
      "stateMutability": "view",
      "type": "function"
    },
    {
      "inputs": [],
      "name": "addressesProvider",
      "outputs": [
        {
          "internalType": "contract ILendingPoolAddressesProvider",
          "name": "",
          "type": "address"
        }
      ],
      "stateMutability": "view",
      "type": "function"
    },
    {
      "inputs": [],
      "name": "baseVariableBorrowRate",
      "outputs": [
        {
          "internalType": "uint256",
          "name": "",
          "type": "uint256"
        }
      ],
      "stateMutability": "view",
      "type": "function"
    },
    {
      "inputs": [
        {
          "internalType": "address",
          "name": "reserve",
          "type": "address"
        },
        {
          "internalType": "uint256",
          "name": "availableLiquidity",
          "type": "uint256"
        },
        {
          "internalType": "uint256",
          "name": "totalStableDebt",
          "type": "uint256"
        },
        {
          "internalType": "uint256",
          "name": "totalVariableDebt",
          "type": "uint256"
        },
        {
          "internalType": "uint256",
          "name": "averageStableBorrowRate",
          "type": "uint256"
        },
        {
          "internalType": "uint256",
          "name": "reserveFactor",
          "type": "uint256"
        }
      ],
      "name": "calculateInterestRates",
      "outputs": [
        {
          "internalType": "uint256",
          "name": "",
          "type": "uint256"
        },
        {
          "internalType": "uint256",
          "name": "",
          "type": "uint256"
        },
        {
          "internalType": "uint256",
          "name": "",
          "type": "uint256"
        }
      ],
      "stateMutability": "view",
      "type": "function"
    },
    {
      "inputs": [],
      "name": "getMaxVariableBorrowRate",
      "outputs": [
        {
          "internalType": "uint256",
          "name": "",
          "type": "uint256"
        }
      ],
      "stateMutability": "view",
      "type": "function"
    },
    {
      "inputs": [],
      "name": "stableRateSlope1",
      "outputs": [
        {
          "internalType": "uint256",
          "name": "",
          "type": "uint256"
        }
      ],
      "stateMutability": "view",
      "type": "function"
    },
    {
      "inputs": [],
      "name": "stableRateSlope2",
      "outputs": [
        {
          "internalType": "uint256",
          "name": "",
          "type": "uint256"
        }
      ],
      "stateMutability": "view",
      "type": "function"
    },
    {
      "inputs": [],
      "name": "variableRateSlope1",
      "outputs": [
        {
          "internalType": "uint256",
          "name": "",
          "type": "uint256"
        }
      ],
      "stateMutability": "view",
      "type": "function"
    },
    {
      "inputs": [],
      "name": "variableRateSlope2",
      "outputs": [
        {
          "internalType": "uint256",
          "name": "",
          "type": "uint256"
        }
      ],
      "stateMutability": "view",
      "type": "function"
    }
  ],
  "bytecode": "0x61018060405234801561001157600080fd5b50604051610e75380380610e75833981810160405260e081101561003457600080fd5b5080516020808301516040840151606085015160808087015160a088015160c0909801519185905295969395929491939161008e90879061007c9061070c6100c3821b17901c565b6100d360201b61071c1790919060201c565b60a05260609690961b6001600160601b03191660c05260e09390935261010091909152610120526101405250610160526101b9565b6b033b2e3c9fd0803ce800000090565b600061011b83836040518060400160405280601e81526020017f536166654d6174683a207375627472616374696f6e206f766572666c6f77000081525061012260201b60201c565b9392505050565b600081848411156101b15760405162461bcd60e51b81526004018080602001828103825283818151815260200191508051906020019080838360005b8381101561017657818101518382015260200161015e565b50505050905090810190601f1680156101a35780820380516001836020036101000a031916815260200191505b509250505060405180910390fd5b505050900390565b60805160a05160c05160601c60e05161010051610120516101405161016051610c0761026e6000398061046852806106ea52508061017d528061049852806105755250806101c5528061021252806104c95250806101e95280610257528061051452806105d752508061023652806104f352806105fd52806106a25250806102e252806106c65250806101a1528061040f5250806103e25280610434528061054f52806105b2528061067e5250610c076000f3fe608060405234801561001057600080fd5b506004361061009e5760003560e01c80639584df28116100665780639584df28146100dd578063a15f30ac1461013f578063b258954414610147578063c72c4d101461014f578063ccab01a3146101735761009e565b80630bdf953f146100a357806317319873146100bd57806365614f81146100c55780637b832f58146100cd57806380031e37146100d5575b600080fd5b6100ab61017b565b60408051918252519081900360200190f35b6100ab61019f565b6100ab6101c3565b6100ab6101e7565b6100ab61020b565b610121600480360360c08110156100f357600080fd5b506001600160a01b038135169060208101359060408101359060608101359060808101359060a00135610286565b60408051938452602084019290925282820152519081900360600190f35b6100ab61067c565b6100ab6106a0565b6101576106c4565b604080516001600160a01b039092168252519081900360200190f35b6100ab6106e8565b7f000000000000000000000000000000000000000000000000000000000000000090565b7f000000000000000000000000000000000000000000000000000000000000000081565b7f000000000000000000000000000000000000000000000000000000000000000090565b7f000000000000000000000000000000000000000000000000000000000000000090565b60006102817f000000000000000000000000000000000000000000000000000000000000000061027b7f00000000000000000000000000000000000000000000000000000000000000007f0000000000000000000000000000000000000000000000000000000000000000610767565b90610767565b905090565b6000806000610293610ba2565b61029d8888610767565b808252600060208301819052604083018190526060830181905290156102db5781516102d6906102ce908c90610767565b8351906107c1565b6102de565b60005b90507f00000000000000000000000000000000000000000000000000000000000000006001600160a01b0316633618abba6040518163ffffffff1660e01b815260040160206040518083038186803b15801561033957600080fd5b505afa15801561034d573d6000803e3d6000fd5b505050506040513d602081101561036357600080fd5b50516040805163bb85c0bb60e01b81526001600160a01b038e811660048301529151919092169163bb85c0bb916024808301926020929190829003018186803b1580156103af57600080fd5b505afa1580156103c3573d6000803e3d6000fd5b505050506040513d60208110156103d957600080fd5b505160408301527f000000000000000000000000000000000000000000000000000000000000000081111561054357600061045e7f0000000000000000000000000000000000000000000000000000000000000000610458847f000000000000000000000000000000000000000000000000000000000000000061071c565b906107c1565b90506104bc61048d7f000000000000000000000000000000000000000000000000000000000000000083610905565b604085015161027b907f0000000000000000000000000000000000000000000000000000000000000000610767565b60408401526105386104ee7f000000000000000000000000000000000000000000000000000000000000000083610905565b61027b7f00000000000000000000000000000000000000000000000000000000000000007f0000000000000000000000000000000000000000000000000000000000000000610767565b602084015250610628565b6105a561059a610573837f00000000000000000000000000000000000000000000000000000000000000006107c1565b7f000000000000000000000000000000000000000000000000000000000000000090610905565b604084015190610767565b60408301526106226105fb7f0000000000000000000000000000000000000000000000000000000000000000610458847f0000000000000000000000000000000000000000000000000000000000000000610905565b7f000000000000000000000000000000000000000000000000000000000000000090610767565b60208301525b6106576106376127108861071c565b6106518361064b8d8d88602001518e6109c6565b90610905565b90610a2d565b606083018190526040830151602090930151909c929b50995090975050505050505050565b7f000000000000000000000000000000000000000000000000000000000000000081565b7f000000000000000000000000000000000000000000000000000000000000000090565b7f000000000000000000000000000000000000000000000000000000000000000081565b7f000000000000000000000000000000000000000000000000000000000000000090565b6b033b2e3c9fd0803ce800000090565b600061075e83836040518060400160405280601e81526020017f536166654d6174683a207375627472616374696f6e206f766572666c6f770000815250610aca565b90505b92915050565b60008282018381101561075e576040805162461bcd60e51b815260206004820152601b60248201527f536166654d6174683a206164646974696f6e206f766572666c6f770000000000604482015290519081900360640190fd5b604080518082019091526002815261035360f41b6020820152600090826108665760405162461bcd60e51b81526004018080602001828103825283818151815260200191508051906020019080838360005b8381101561082b578181015183820152602001610813565b50505050905090810190601f1680156108585780820380516001836020036101000a031916815260200191505b509250505060405180910390fd5b5060408051808201909152600280825261068760f31b60208301528304906b033b2e3c9fd0803ce80000008219048511156108e25760405162461bcd60e51b815260206004820181815283516024840152835190928392604490910191908501908083836000831561082b578181015183820152602001610813565b5082816b033b2e3c9fd0803ce8000000860201816108fc57fe5b04949350505050565b6000821580610912575081155b1561091f57506000610761565b816b019d971e4fe8401e74000000198161093557fe5b0483111560405180604001604052806002815260200161068760f31b815250906109a05760405162461bcd60e51b815260206004820181815283516024840152835190928392604490910191908501908083836000831561082b578181015183820152602001610813565b506b033b2e3c9fd0803ce80000006002815b0483850201816109be57fe5b049392505050565b6000806109d38686610767565b9050806109e4576000915050610a25565b60006109f38561064b88610b24565b90506000610a048561064b8a610b24565b90506000610a1e610a1485610b24565b6104588585610767565b9450505050505b949350505050565b6000821580610a3a575081155b15610a4757506000610761565b816113881981610a5357fe5b0483111560405180604001604052806002815260200161068760f31b81525090610abe5760405162461bcd60e51b815260206004820181815283516024840152835190928392604490910191908501908083836000831561082b578181015183820152602001610813565b506127106002816109b2565b60008184841115610b1c5760405162461bcd60e51b815260206004820181815283516024840152835190928392604490910191908501908083836000831561082b578181015183820152602001610813565b505050900390565b6000633b9aca0082810290839082041460405180604001604052806002815260200161068760f31b81525090610b9b5760405162461bcd60e51b815260206004820181815283516024840152835190928392604490910191908501908083836000831561082b578181015183820152602001610813565b5092915050565b6040518060a001604052806000815260200160008152602001600081526020016000815260200160008152509056fea26469706673582212209ad0ee993cb490602384e1598564a1643fec4462f4fe9d2d15b82ae45ed7043164736f6c634300060c0033",
  "linkReferences": {},
  "deployedLinkReferences": {}
}