{
  "contractName": "IERC20DetailedBytes",
  "abi": [
    {
      "constant": true,
      "inputs": [],
      "name": "decimals",
      "outputs": [
        {
          "internalType": "uint256",
          "name": "",
          "type": "uint256"
        }
      ],
      "payable": false,
      "stateMutability": "view",
      "type": "function"
    },
    {
      "constant": true,
      "inputs": [],
      "name": "name",
      "outputs": [
        {
          "internalType": "bytes32",
          "name": "",
          "type": "bytes32"
        }
      ],
      "payable": false,
      "stateMutability": "view",
      "type": "function"
    },
    {
      "constant": true,
      "inputs": [],
      "name": "symbol",
      "outputs": [
        {
          "internalType": "bytes32",
          "name": "",
          "type": "bytes32"
        }
      ],
      "payable": false,
      "stateMutability": "view",
      "type": "function"
    }
  ],
  "bytecode": "0x608060405234801561001057600080fd5b5060ac8061001f6000396000f3fe6080604052348015600f57600080fd5b5060043610603c5760003560e01c806306fdde03146041578063313ce56714605957806395d89b4114605f575b600080fd5b60476065565b60408051918252519081900360200190f35b6047606b565b60476071565b60005481565b60025481565b6001548156fea265627a7a723158200d94aff80b95faadab8d8ea4ddec04edad3f19136d7ab6ebd8662823cc78b71b64736f6c634300050e0032",
  "source": "pragma solidity ^0.5.0;\n\ncontract IERC20DetailedBytes {\n    bytes32  public  name;\n    bytes32  public  symbol;\n    uint256  public  decimals;\n}\n",
  "sourcePath": "/Users/sendra/aave/contracts/contracts/misc/IERC20DetailedBytes.sol",
  "compiler": {
    "name": "solc",
    "version": "0.5.14+commit.01f1aaa4.Emscripten.clang"
  },
  "schemaVersion": "3.0.11",
  "updatedAt": "2020-11-03T22:06:21.248Z",
  "devdoc": {
    "methods": {}
  },
  "userdoc": {
    "methods": {}
  }
}