{
  "_format": "hh-sol-artifact-1",
  "contractName": "DefaultReserveInterestRateStrategy",
  "sourceName": "contracts/protocol/pool/DefaultReserveInterestRateStrategy.sol",
  "abi": [
    {
      "inputs": [
        {
          "internalType": "contract IPoolAddressesProvider",
          "name": "provider",
          "type": "address"
        },
        {
          "internalType": "uint256",
          "name": "optimalUtilizationRate",
          "type": "uint256"
        },
        {
          "internalType": "uint256",
          "name": "baseVariableBorrowRate",
          "type": "uint256"
        },
        {
          "internalType": "uint256",
          "name": "variableRateSlope1",
          "type": "uint256"
        },
        {
          "internalType": "uint256",
          "name": "variableRateSlope2",
          "type": "uint256"
        },
        {
          "internalType": "uint256",
          "name": "stableRateSlope1",
          "type": "uint256"
        },
        {
          "internalType": "uint256",
          "name": "stableRateSlope2",
          "type": "uint256"
        },
        {
          "internalType": "uint256",
          "name": "baseStableRateOffset",
          "type": "uint256"
        },
        {
          "internalType": "uint256",
          "name": "stableRateExcessOffset",
          "type": "uint256"
        },
        {
          "internalType": "uint256",
          "name": "optimalStableToTotalDebtRatio",
          "type": "uint256"
        }
      ],
      "stateMutability": "nonpayable",
      "type": "constructor"
    },
    {
      "inputs": [],
      "name": "ADDRESSES_PROVIDER",
      "outputs": [
        {
          "internalType": "contract IPoolAddressesProvider",
          "name": "",
          "type": "address"
        }
      ],
      "stateMutability": "view",
      "type": "function"
    },
    {
      "inputs": [],
      "name": "EXCESS_UTILIZATION_RATE",
      "outputs": [
        {
          "internalType": "uint256",
          "name": "",
          "type": "uint256"
        }
      ],
      "stateMutability": "view",
      "type": "function"
    },
    {
      "inputs": [],
      "name": "OPTIMAL_STABLE_TO_TOTAL_DEBT_RATIO",
      "outputs": [
        {
          "internalType": "uint256",
          "name": "",
          "type": "uint256"
        }
      ],
      "stateMutability": "view",
      "type": "function"
    },
    {
      "inputs": [],
      "name": "OPTIMAL_UTILIZATION_RATE",
      "outputs": [
        {
          "internalType": "uint256",
          "name": "",
          "type": "uint256"
        }
      ],
      "stateMutability": "view",
      "type": "function"
    },
    {
      "inputs": [
        {
          "components": [
            {
              "internalType": "uint256",
              "name": "unbacked",
              "type": "uint256"
            },
            {
              "internalType": "uint256",
              "name": "liquidityAdded",
              "type": "uint256"
            },
            {
              "internalType": "uint256",
              "name": "liquidityTaken",
              "type": "uint256"
            },
            {
              "internalType": "uint256",
              "name": "totalStableDebt",
              "type": "uint256"
            },
            {
              "internalType": "uint256",
              "name": "totalVariableDebt",
              "type": "uint256"
            },
            {
              "internalType": "uint256",
              "name": "averageStableBorrowRate",
              "type": "uint256"
            },
            {
              "internalType": "uint256",
              "name": "reserveFactor",
              "type": "uint256"
            },
            {
              "internalType": "address",
              "name": "reserve",
              "type": "address"
            },
            {
              "internalType": "address",
              "name": "aToken",
              "type": "address"
            }
          ],
          "internalType": "struct DataTypes.CalculateInterestRatesParams",
          "name": "params",
          "type": "tuple"
        }
      ],
      "name": "calculateInterestRates",
      "outputs": [
        {
          "internalType": "uint256",
          "name": "",
          "type": "uint256"
        },
        {
          "internalType": "uint256",
          "name": "",
          "type": "uint256"
        },
        {
          "internalType": "uint256",
          "name": "",
          "type": "uint256"
        }
      ],
      "stateMutability": "view",
      "type": "function"
    },
    {
      "inputs": [],
      "name": "getBaseStableBorrowRate",
      "outputs": [
        {
          "internalType": "uint256",
          "name": "",
          "type": "uint256"
        }
      ],
      "stateMutability": "view",
      "type": "function"
    },
    {
      "inputs": [],
      "name": "getBaseVariableBorrowRate",
      "outputs": [
        {
          "internalType": "uint256",
          "name": "",
          "type": "uint256"
        }
      ],
      "stateMutability": "view",
      "type": "function"
    },
    {
      "inputs": [],
      "name": "getMaxVariableBorrowRate",
      "outputs": [
        {
          "internalType": "uint256",
          "name": "",
          "type": "uint256"
        }
      ],
      "stateMutability": "view",
      "type": "function"
    },
    {
      "inputs": [],
      "name": "getStableRateSlope1",
      "outputs": [
        {
          "internalType": "uint256",
          "name": "",
          "type": "uint256"
        }
      ],
      "stateMutability": "view",
      "type": "function"
    },
    {
      "inputs": [],
      "name": "getStableRateSlope2",
      "outputs": [
        {
          "internalType": "uint256",
          "name": "",
          "type": "uint256"
        }
      ],
      "stateMutability": "view",
      "type": "function"
    },
    {
      "inputs": [],
      "name": "getVariableRateSlope1",
      "outputs": [
        {
          "internalType": "uint256",
          "name": "",
          "type": "uint256"
        }
      ],
      "stateMutability": "view",
      "type": "function"
    },
    {
      "inputs": [],
      "name": "getVariableRateSlope2",
      "outputs": [
        {
          "internalType": "uint256",
          "name": "",
          "type": "uint256"
        }
      ],
      "stateMutability": "view",
      "type": "function"
    }
  ],
  "bytecode": "0x6101e060405234801561001157600080fd5b50604051610dc4380380610dc48339810160408190526100309161008a565b608089905261004b896b033b2e3c9fd0803ce8000000610115565b60c05260a0526001600160a01b0390981660e05261010095909552610120939093526101409190915261016052610180526101a052506101c05261013a565b6000806000806000806000806000806101408b8d0312156100aa57600080fd5b8a516001600160a01b03811681146100c157600080fd5b809a505060208b0151985060408b0151975060608b0151965060808b0151955060a08b0151945060c08b0151935060e08b015192506101008b015191506101208b015190509295989b9194979a5092959850565b60008282101561013557634e487b7160e01b600052601160045260246000fd5b500390565b60805160a05160c05160e05161010051610120516101405161016051610180516101a0516101c051610b7961024b6000396000610836015260006108d901526000818161015c01526105b601526000818161025b015281816105dd01526106d1015260008181610281015281816102a9015261061f01526000818161012c015281816102cd015281816106490152818161074301526108fa0152600081816101a9015281816102ee0152818161066a015261076e0152600060de015260008181610185015261055a0152600081816101d20152818161079a015281816107ce01526108010152600081816102010152818161052e0152818161057b015281816106a8015261071d0152610b796000f3fe608060405234801561001057600080fd5b50600436106100d45760003560e01c806380031e3711610081578063acd786861161005b578063acd7868614610251578063d5cd739114610259578063f42024091461027f57600080fd5b806380031e37146101f4578063a15f30ac146101fc578063a58987091461022357600080fd5b806317319873116100b2578063173198731461018057806334762ca5146101a75780636fb92589146101cd57600080fd5b80630542975c146100d95780630b3429a21461012a57806314e32da41461015a575b600080fd5b6101007f000000000000000000000000000000000000000000000000000000000000000081565b60405173ffffffffffffffffffffffffffffffffffffffff90911681526020015b60405180910390f35b7f00000000000000000000000000000000000000000000000000000000000000005b604051908152602001610121565b7f000000000000000000000000000000000000000000000000000000000000000061014c565b61014c7f000000000000000000000000000000000000000000000000000000000000000081565b7f000000000000000000000000000000000000000000000000000000000000000061014c565b61014c7f000000000000000000000000000000000000000000000000000000000000000081565b61014c6102a5565b61014c7f000000000000000000000000000000000000000000000000000000000000000081565b610236610231366004610a76565b610321565b60408051938452602084019290925290820152606001610121565b61014c6108d2565b7f000000000000000000000000000000000000000000000000000000000000000061014c565b7f000000000000000000000000000000000000000000000000000000000000000061014c565b60007f00000000000000000000000000000000000000000000000000000000000000006103127f00000000000000000000000000000000000000000000000000000000000000007f0000000000000000000000000000000000000000000000000000000000000000610abe565b61031c9190610abe565b905090565b600080600061036e60405180610100016040528060008152602001600081526020016000815260200160008152602001600081526020016000815260200160008152602001600081525090565b60408501356020860135610389610100880160e08901610ad6565b73ffffffffffffffffffffffffffffffffffffffff166370a082316103b66101208a016101008b01610ad6565b6040517fffffffff0000000000000000000000000000000000000000000000000000000060e084901b16815273ffffffffffffffffffffffffffffffffffffffff9091166004820152602401602060405180830381865afa15801561041f573d6000803e3d6000fd5b505050506040513d601f19601f820116820180604052508101906104439190610b13565b61044d9190610abe565b6104579190610b2c565b815261046b60808601356060870135610abe565b6020820181905261047d576000610491565b60208101516104919060608701359061091e565b60e08201526000604082018190526060820181905260808201526020810151156104d957602081015181516104d4916104c991610abe565b60208301519061091e565b6104dc565b60005b60a0820152602081015115610512576020810151815161050d919061050390883590610abe565b6104c99190610abe565b610515565b60005b60c08201526105226108d2565b606082015260a08101517f000000000000000000000000000000000000000000000000000000000000000010156106a35760006105af7f00000000000000000000000000000000000000000000000000000000000000007f00000000000000000000000000000000000000000000000000000000000000008460a001516105a99190610b2c565b9061091e565b90506105db7f00000000000000000000000000000000000000000000000000000000000000008261095a565b7f0000000000000000000000000000000000000000000000000000000000000000836060015161060b9190610abe565b6106159190610abe565b60608301526106447f00000000000000000000000000000000000000000000000000000000000000008261095a565b61068e7f00000000000000000000000000000000000000000000000000000000000000007f0000000000000000000000000000000000000000000000000000000000000000610abe565b6106989190610abe565b604083015250610798565b6106fe7f00000000000000000000000000000000000000000000000000000000000000006105a98360a001517f000000000000000000000000000000000000000000000000000000000000000061095a90919063ffffffff16565b816060015161070d9190610abe565b606082015260a0810151610768907f0000000000000000000000000000000000000000000000000000000000000000906105a9907f00000000000000000000000000000000000000000000000000000000000000009061095a565b610792907f0000000000000000000000000000000000000000000000000000000000000000610abe565b60408201525b7f00000000000000000000000000000000000000000000000000000000000000008160e00151111561087157600061082f6107ff7f00000000000000000000000000000000000000000000000000000000000000006b033b2e3c9fd0803ce8000000610b2c565b7f00000000000000000000000000000000000000000000000000000000000000008460e001516105a99190610b2c565b905061085b7f00000000000000000000000000000000000000000000000000000000000000008261095a565b8260600181815161086c9190610abe565b905250505b6108b461088460c0870135612710610b2c565b6108ae8360c001516108a889606001358a6080013587604001518c60a001356109b1565b9061095a565b90610a18565b60808201819052606082015160409092015190969195509350915050565b600061031c7f00000000000000000000000000000000000000000000000000000000000000007f0000000000000000000000000000000000000000000000000000000000000000610abe565b60006b033b2e3c9fd0803ce800000060028304190483111561093f57600080fd5b506b033b2e3c9fd0803ce80000009190910260028204010490565b600081157ffffffffffffffffffffffffffffffffffffffffffe6268e1b017bfe18bffffff8390048411151761098f57600080fd5b506b033b2e3c9fd0803ce800000091026b019d971e4fe8401e74000000010490565b6000806109be8587610abe565b9050806109cf576000915050610a10565b60006109de856108a888610a5b565b905060006109ef856108a88a610a5b565b90506000610a096109ff85610a5b565b6105a98486610abe565b9450505050505b949350505050565b600081157fffffffffffffffffffffffffffffffffffffffffffffffffffffffffffffec7783900484111517610a4d57600080fd5b506127109102611388010490565b633b9aca008181029081048214610a7157600080fd5b919050565b60006101208284031215610a8957600080fd5b50919050565b7f4e487b7100000000000000000000000000000000000000000000000000000000600052601160045260246000fd5b60008219821115610ad157610ad1610a8f565b500190565b600060208284031215610ae857600080fd5b813573ffffffffffffffffffffffffffffffffffffffff81168114610b0c57600080fd5b9392505050565b600060208284031215610b2557600080fd5b5051919050565b600082821015610b3e57610b3e610a8f565b50039056fea2646970667358221220aabb5d6d6c47056fec2b3ef1c149280875273ef25fa708d45a33c846a247443d64736f6c634300080a0033",
  "linkReferences": {},
  "deployedLinkReferences": {}
}