{
  "_format": "hh-sol-artifact-1",
  "contractName": "PoolConfigurator",
  "sourceName": "contracts/protocol/pool/PoolConfigurator.sol",
  "abi": [
    {
      "anonymous": false,
      "inputs": [
        {
          "indexed": true,
          "internalType": "address",
          "name": "asset",
          "type": "address"
        },
        {
          "indexed": true,
          "internalType": "address",
          "name": "proxy",
          "type": "address"
        },
        {
          "indexed": true,
          "internalType": "address",
          "name": "implementation",
          "type": "address"
        }
      ],
      "name": "ATokenUpgraded",
      "type": "event"
    },
    {
      "anonymous": false,
      "inputs": [
        {
          "indexed": true,
          "internalType": "address",
          "name": "asset",
          "type": "address"
        },
        {
          "indexed": false,
          "internalType": "uint256",
          "name": "borrowCap",
          "type": "uint256"
        }
      ],
      "name": "BorrowCapChanged",
      "type": "event"
    },
    {
      "anonymous": false,
      "inputs": [
        {
          "indexed": false,
          "internalType": "address",
          "name": "asset",
          "type": "address"
        },
        {
          "indexed": false,
          "internalType": "bool",
          "name": "borrowable",
          "type": "bool"
        }
      ],
      "name": "BorrowableInIsolationChanged",
      "type": "event"
    },
    {
      "anonymous": false,
      "inputs": [
        {
          "indexed": true,
          "internalType": "address",
          "name": "asset",
          "type": "address"
        }
      ],
      "name": "BorrowingDisabledOnReserve",
      "type": "event"
    },
    {
      "anonymous": false,
      "inputs": [
        {
          "indexed": true,
          "internalType": "address",
          "name": "asset",
          "type": "address"
        },
        {
          "indexed": false,
          "internalType": "bool",
          "name": "stableRateEnabled",
          "type": "bool"
        }
      ],
      "name": "BorrowingEnabledOnReserve",
      "type": "event"
    },
    {
      "anonymous": false,
      "inputs": [
        {
          "indexed": false,
          "internalType": "uint256",
          "name": "protocolFee",
          "type": "uint256"
        }
      ],
      "name": "BridgeProtocolFeeUpdated",
      "type": "event"
    },
    {
      "anonymous": false,
      "inputs": [
        {
          "indexed": true,
          "internalType": "address",
          "name": "asset",
          "type": "address"
        },
        {
          "indexed": false,
          "internalType": "uint256",
          "name": "ltv",
          "type": "uint256"
        },
        {
          "indexed": false,
          "internalType": "uint256",
          "name": "liquidationThreshold",
          "type": "uint256"
        },
        {
          "indexed": false,
          "internalType": "uint256",
          "name": "liquidationBonus",
          "type": "uint256"
        }
      ],
      "name": "CollateralConfigurationChanged",
      "type": "event"
    },
    {
      "anonymous": false,
      "inputs": [
        {
          "indexed": true,
          "internalType": "address",
          "name": "asset",
          "type": "address"
        },
        {
          "indexed": false,
          "internalType": "uint256",
          "name": "ceiling",
          "type": "uint256"
        }
      ],
      "name": "DebtCeilingChanged",
      "type": "event"
    },
    {
      "anonymous": false,
      "inputs": [
        {
          "indexed": true,
          "internalType": "address",
          "name": "asset",
          "type": "address"
        },
        {
          "indexed": false,
          "internalType": "uint8",
          "name": "categoryId",
          "type": "uint8"
        }
      ],
      "name": "EModeAssetCategoryChanged",
      "type": "event"
    },
    {
      "anonymous": false,
      "inputs": [
        {
          "indexed": true,
          "internalType": "uint8",
          "name": "categoryId",
          "type": "uint8"
        },
        {
          "indexed": false,
          "internalType": "uint256",
          "name": "ltv",
          "type": "uint256"
        },
        {
          "indexed": false,
          "internalType": "uint256",
          "name": "liquidationThreshold",
          "type": "uint256"
        },
        {
          "indexed": false,
          "internalType": "uint256",
          "name": "liquidationBonus",
          "type": "uint256"
        },
        {
          "indexed": false,
          "internalType": "address",
          "name": "oracle",
          "type": "address"
        },
        {
          "indexed": false,
          "internalType": "string",
          "name": "label",
          "type": "string"
        }
      ],
      "name": "EModeCategoryAdded",
      "type": "event"
    },
    {
      "anonymous": false,
      "inputs": [
        {
          "indexed": false,
          "internalType": "uint256",
          "name": "flashloanPremiumToProtocol",
          "type": "uint256"
        }
      ],
      "name": "FlashloanPremiumToProtocolUpdated",
      "type": "event"
    },
    {
      "anonymous": false,
      "inputs": [
        {
          "indexed": false,
          "internalType": "uint256",
          "name": "flashloanPremiumTotal",
          "type": "uint256"
        }
      ],
      "name": "FlashloanPremiumTotalUpdated",
      "type": "event"
    },
    {
      "anonymous": false,
      "inputs": [
        {
          "indexed": true,
          "internalType": "address",
          "name": "asset",
          "type": "address"
        },
        {
          "indexed": false,
          "internalType": "uint256",
          "name": "fee",
          "type": "uint256"
        }
      ],
      "name": "LiquidationProtocolFeeChanged",
      "type": "event"
    },
    {
      "anonymous": false,
      "inputs": [
        {
          "indexed": true,
          "internalType": "address",
          "name": "asset",
          "type": "address"
        }
      ],
      "name": "ReserveActivated",
      "type": "event"
    },
    {
      "anonymous": false,
      "inputs": [
        {
          "indexed": true,
          "internalType": "address",
          "name": "asset",
          "type": "address"
        }
      ],
      "name": "ReserveDeactivated",
      "type": "event"
    },
    {
      "anonymous": false,
      "inputs": [
        {
          "indexed": true,
          "internalType": "address",
          "name": "asset",
          "type": "address"
        },
        {
          "indexed": false,
          "internalType": "uint256",
          "name": "decimals",
          "type": "uint256"
        }
      ],
      "name": "ReserveDecimalsChanged",
      "type": "event"
    },
    {
      "anonymous": false,
      "inputs": [
        {
          "indexed": true,
          "internalType": "address",
          "name": "asset",
          "type": "address"
        }
      ],
      "name": "ReserveDropped",
      "type": "event"
    },
    {
      "anonymous": false,
      "inputs": [
        {
          "indexed": true,
          "internalType": "address",
          "name": "asset",
          "type": "address"
        },
        {
          "indexed": false,
          "internalType": "uint256",
          "name": "factor",
          "type": "uint256"
        }
      ],
      "name": "ReserveFactorChanged",
      "type": "event"
    },
    {
      "anonymous": false,
      "inputs": [
        {
          "indexed": true,
          "internalType": "address",
          "name": "asset",
          "type": "address"
        }
      ],
      "name": "ReserveFrozen",
      "type": "event"
    },
    {
      "anonymous": false,
      "inputs": [
        {
          "indexed": true,
          "internalType": "address",
          "name": "asset",
          "type": "address"
        },
        {
          "indexed": true,
          "internalType": "address",
          "name": "aToken",
          "type": "address"
        },
        {
          "indexed": false,
          "internalType": "address",
          "name": "stableDebtToken",
          "type": "address"
        },
        {
          "indexed": false,
          "internalType": "address",
          "name": "variableDebtToken",
          "type": "address"
        },
        {
          "indexed": false,
          "internalType": "address",
          "name": "interestRateStrategyAddress",
          "type": "address"
        }
      ],
      "name": "ReserveInitialized",
      "type": "event"
    },
    {
      "anonymous": false,
      "inputs": [
        {
          "indexed": true,
          "internalType": "address",
          "name": "asset",
          "type": "address"
        },
        {
          "indexed": false,
          "internalType": "address",
          "name": "strategy",
          "type": "address"
        }
      ],
      "name": "ReserveInterestRateStrategyChanged",
      "type": "event"
    },
    {
      "anonymous": false,
      "inputs": [
        {
          "indexed": true,
          "internalType": "address",
          "name": "asset",
          "type": "address"
        }
      ],
      "name": "ReservePaused",
      "type": "event"
    },
    {
      "anonymous": false,
      "inputs": [
        {
          "indexed": true,
          "internalType": "address",
          "name": "asset",
          "type": "address"
        }
      ],
      "name": "ReserveUnfrozen",
      "type": "event"
    },
    {
      "anonymous": false,
      "inputs": [
        {
          "indexed": true,
          "internalType": "address",
          "name": "asset",
          "type": "address"
        }
      ],
      "name": "ReserveUnpaused",
      "type": "event"
    },
    {
      "anonymous": false,
      "inputs": [
        {
          "indexed": true,
          "internalType": "address",
          "name": "admin",
          "type": "address"
        }
      ],
      "name": "RiskAdminRegistered",
      "type": "event"
    },
    {
      "anonymous": false,
      "inputs": [
        {
          "indexed": true,
          "internalType": "address",
          "name": "admin",
          "type": "address"
        }
      ],
      "name": "RiskAdminUnregistered",
      "type": "event"
    },
    {
      "anonymous": false,
      "inputs": [
        {
          "indexed": true,
          "internalType": "address",
          "name": "asset",
          "type": "address"
        },
        {
          "indexed": true,
          "internalType": "address",
          "name": "proxy",
          "type": "address"
        },
        {
          "indexed": true,
          "internalType": "address",
          "name": "implementation",
          "type": "address"
        }
      ],
      "name": "StableDebtTokenUpgraded",
      "type": "event"
    },
    {
      "anonymous": false,
      "inputs": [
        {
          "indexed": true,
          "internalType": "address",
          "name": "asset",
          "type": "address"
        }
      ],
      "name": "StableRateDisabledOnReserve",
      "type": "event"
    },
    {
      "anonymous": false,
      "inputs": [
        {
          "indexed": true,
          "internalType": "address",
          "name": "asset",
          "type": "address"
        }
      ],
      "name": "StableRateEnabledOnReserve",
      "type": "event"
    },
    {
      "anonymous": false,
      "inputs": [
        {
          "indexed": true,
          "internalType": "address",
          "name": "asset",
          "type": "address"
        },
        {
          "indexed": false,
          "internalType": "uint256",
          "name": "supplyCap",
          "type": "uint256"
        }
      ],
      "name": "SupplyCapChanged",
      "type": "event"
    },
    {
      "anonymous": false,
      "inputs": [
        {
          "indexed": true,
          "internalType": "address",
          "name": "asset",
          "type": "address"
        },
        {
          "indexed": false,
          "internalType": "uint256",
          "name": "unbackedMintCap",
          "type": "uint256"
        }
      ],
      "name": "UnbackedMintCapChanged",
      "type": "event"
    },
    {
      "anonymous": false,
      "inputs": [
        {
          "indexed": true,
          "internalType": "address",
          "name": "asset",
          "type": "address"
        },
        {
          "indexed": true,
          "internalType": "address",
          "name": "proxy",
          "type": "address"
        },
        {
          "indexed": true,
          "internalType": "address",
          "name": "implementation",
          "type": "address"
        }
      ],
      "name": "VariableDebtTokenUpgraded",
      "type": "event"
    },
    {
      "inputs": [
        {
          "internalType": "address",
          "name": "asset",
          "type": "address"
        }
      ],
      "name": "activateReserve",
      "outputs": [],
      "stateMutability": "nonpayable",
      "type": "function"
    },
    {
      "inputs": [
        {
          "internalType": "address",
          "name": "asset",
          "type": "address"
        },
        {
          "internalType": "uint256",
          "name": "ltv",
          "type": "uint256"
        },
        {
          "internalType": "uint256",
          "name": "liquidationThreshold",
          "type": "uint256"
        },
        {
          "internalType": "uint256",
          "name": "liquidationBonus",
          "type": "uint256"
        }
      ],
      "name": "configureReserveAsCollateral",
      "outputs": [],
      "stateMutability": "nonpayable",
      "type": "function"
    },
    {
      "inputs": [
        {
          "internalType": "address",
          "name": "asset",
          "type": "address"
        }
      ],
      "name": "deactivateReserve",
      "outputs": [],
      "stateMutability": "nonpayable",
      "type": "function"
    },
    {
      "inputs": [
        {
          "internalType": "address",
          "name": "asset",
          "type": "address"
        }
      ],
      "name": "disableBorrowingOnReserve",
      "outputs": [],
      "stateMutability": "nonpayable",
      "type": "function"
    },
    {
      "inputs": [
        {
          "internalType": "address",
          "name": "asset",
          "type": "address"
        }
      ],
      "name": "disableReserveStableRate",
      "outputs": [],
      "stateMutability": "nonpayable",
      "type": "function"
    },
    {
      "inputs": [
        {
          "internalType": "address",
          "name": "asset",
          "type": "address"
        }
      ],
      "name": "dropReserve",
      "outputs": [],
      "stateMutability": "nonpayable",
      "type": "function"
    },
    {
      "inputs": [
        {
          "internalType": "address",
          "name": "asset",
          "type": "address"
        },
        {
          "internalType": "uint256",
          "name": "borrowCap",
          "type": "uint256"
        },
        {
          "internalType": "bool",
          "name": "stableBorrowRateEnabled",
          "type": "bool"
        }
      ],
      "name": "enableBorrowingOnReserve",
      "outputs": [],
      "stateMutability": "nonpayable",
      "type": "function"
    },
    {
      "inputs": [
        {
          "internalType": "address",
          "name": "asset",
          "type": "address"
        }
      ],
      "name": "enableReserveStableRate",
      "outputs": [],
      "stateMutability": "nonpayable",
      "type": "function"
    },
    {
      "inputs": [
        {
          "internalType": "address",
          "name": "asset",
          "type": "address"
        }
      ],
      "name": "freezeReserve",
      "outputs": [],
      "stateMutability": "nonpayable",
      "type": "function"
    },
    {
      "inputs": [
        {
          "components": [
            {
              "internalType": "address",
              "name": "aTokenImpl",
              "type": "address"
            },
            {
              "internalType": "address",
              "name": "stableDebtTokenImpl",
              "type": "address"
            },
            {
              "internalType": "address",
              "name": "variableDebtTokenImpl",
              "type": "address"
            },
            {
              "internalType": "uint8",
              "name": "underlyingAssetDecimals",
              "type": "uint8"
            },
            {
              "internalType": "address",
              "name": "interestRateStrategyAddress",
              "type": "address"
            },
            {
              "internalType": "address",
              "name": "underlyingAsset",
              "type": "address"
            },
            {
              "internalType": "address",
              "name": "treasury",
              "type": "address"
            },
            {
              "internalType": "address",
              "name": "incentivesController",
              "type": "address"
            },
            {
              "internalType": "string",
              "name": "underlyingAssetName",
              "type": "string"
            },
            {
              "internalType": "string",
              "name": "aTokenName",
              "type": "string"
            },
            {
              "internalType": "string",
              "name": "aTokenSymbol",
              "type": "string"
            },
            {
              "internalType": "string",
              "name": "variableDebtTokenName",
              "type": "string"
            },
            {
              "internalType": "string",
              "name": "variableDebtTokenSymbol",
              "type": "string"
            },
            {
              "internalType": "string",
              "name": "stableDebtTokenName",
              "type": "string"
            },
            {
              "internalType": "string",
              "name": "stableDebtTokenSymbol",
              "type": "string"
            },
            {
              "internalType": "bytes",
              "name": "params",
              "type": "bytes"
            }
          ],
          "internalType": "struct ConfiguratorInputTypes.InitReserveInput[]",
          "name": "input",
          "type": "tuple[]"
        }
      ],
      "name": "initReserves",
      "outputs": [],
      "stateMutability": "nonpayable",
      "type": "function"
    },
    {
      "inputs": [
        {
          "internalType": "contract IPoolAddressesProvider",
          "name": "provider",
          "type": "address"
        }
      ],
      "name": "initialize",
      "outputs": [],
      "stateMutability": "nonpayable",
      "type": "function"
    },
    {
      "inputs": [
        {
          "internalType": "address",
          "name": "asset",
          "type": "address"
        },
        {
          "internalType": "uint8",
          "name": "categoryId",
          "type": "uint8"
        }
      ],
      "name": "setAssetEModeCategory",
      "outputs": [],
      "stateMutability": "nonpayable",
      "type": "function"
    },
    {
      "inputs": [
        {
          "internalType": "address",
          "name": "asset",
          "type": "address"
        },
        {
          "internalType": "uint256",
          "name": "borrowCap",
          "type": "uint256"
        }
      ],
      "name": "setBorrowCap",
      "outputs": [],
      "stateMutability": "nonpayable",
      "type": "function"
    },
    {
      "inputs": [
        {
          "internalType": "address",
          "name": "asset",
          "type": "address"
        },
        {
          "internalType": "bool",
          "name": "borrowable",
          "type": "bool"
        }
      ],
      "name": "setBorrowableInIsolation",
      "outputs": [],
      "stateMutability": "nonpayable",
      "type": "function"
    },
    {
      "inputs": [
        {
          "internalType": "address",
          "name": "asset",
          "type": "address"
        },
        {
          "internalType": "uint256",
          "name": "ceiling",
          "type": "uint256"
        }
      ],
      "name": "setDebtCeiling",
      "outputs": [],
      "stateMutability": "nonpayable",
      "type": "function"
    },
    {
      "inputs": [
        {
          "internalType": "uint8",
          "name": "categoryId",
          "type": "uint8"
        },
        {
          "internalType": "uint16",
          "name": "ltv",
          "type": "uint16"
        },
        {
          "internalType": "uint16",
          "name": "liquidationThreshold",
          "type": "uint16"
        },
        {
          "internalType": "uint16",
          "name": "liquidationBonus",
          "type": "uint16"
        },
        {
          "internalType": "address",
          "name": "oracle",
          "type": "address"
        },
        {
          "internalType": "string",
          "name": "label",
          "type": "string"
        }
      ],
      "name": "setEModeCategory",
      "outputs": [],
      "stateMutability": "nonpayable",
      "type": "function"
    },
    {
      "inputs": [
        {
          "internalType": "address",
          "name": "asset",
          "type": "address"
        },
        {
          "internalType": "uint256",
          "name": "fee",
          "type": "uint256"
        }
      ],
      "name": "setLiquidationProtocolFee",
      "outputs": [],
      "stateMutability": "nonpayable",
      "type": "function"
    },
    {
      "inputs": [
        {
          "internalType": "bool",
          "name": "paused",
          "type": "bool"
        }
      ],
      "name": "setPoolPause",
      "outputs": [],
      "stateMutability": "nonpayable",
      "type": "function"
    },
    {
      "inputs": [
        {
          "internalType": "address",
          "name": "asset",
          "type": "address"
        },
        {
          "internalType": "uint256",
          "name": "reserveFactor",
          "type": "uint256"
        }
      ],
      "name": "setReserveFactor",
      "outputs": [],
      "stateMutability": "nonpayable",
      "type": "function"
    },
    {
      "inputs": [
        {
          "internalType": "address",
          "name": "asset",
          "type": "address"
        },
        {
          "internalType": "address",
          "name": "rateStrategyAddress",
          "type": "address"
        }
      ],
      "name": "setReserveInterestRateStrategyAddress",
      "outputs": [],
      "stateMutability": "nonpayable",
      "type": "function"
    },
    {
      "inputs": [
        {
          "internalType": "address",
          "name": "asset",
          "type": "address"
        },
        {
          "internalType": "bool",
          "name": "paused",
          "type": "bool"
        }
      ],
      "name": "setReservePause",
      "outputs": [],
      "stateMutability": "nonpayable",
      "type": "function"
    },
    {
      "inputs": [
        {
          "internalType": "address",
          "name": "asset",
          "type": "address"
        },
        {
          "internalType": "uint256",
          "name": "supplyCap",
          "type": "uint256"
        }
      ],
      "name": "setSupplyCap",
      "outputs": [],
      "stateMutability": "nonpayable",
      "type": "function"
    },
    {
      "inputs": [
        {
          "internalType": "address",
          "name": "asset",
          "type": "address"
        },
        {
          "internalType": "uint256",
          "name": "unbackedMintCap",
          "type": "uint256"
        }
      ],
      "name": "setUnbackedMintCap",
      "outputs": [],
      "stateMutability": "nonpayable",
      "type": "function"
    },
    {
      "inputs": [
        {
          "internalType": "address",
          "name": "asset",
          "type": "address"
        }
      ],
      "name": "unfreezeReserve",
      "outputs": [],
      "stateMutability": "nonpayable",
      "type": "function"
    },
    {
      "inputs": [
        {
          "components": [
            {
              "internalType": "address",
              "name": "asset",
              "type": "address"
            },
            {
              "internalType": "address",
              "name": "treasury",
              "type": "address"
            },
            {
              "internalType": "address",
              "name": "incentivesController",
              "type": "address"
            },
            {
              "internalType": "string",
              "name": "name",
              "type": "string"
            },
            {
              "internalType": "string",
              "name": "symbol",
              "type": "string"
            },
            {
              "internalType": "address",
              "name": "implementation",
              "type": "address"
            },
            {
              "internalType": "bytes",
              "name": "params",
              "type": "bytes"
            }
          ],
          "internalType": "struct ConfiguratorInputTypes.UpdateATokenInput",
          "name": "input",
          "type": "tuple"
        }
      ],
      "name": "updateAToken",
      "outputs": [],
      "stateMutability": "nonpayable",
      "type": "function"
    },
    {
      "inputs": [
        {
          "internalType": "uint256",
          "name": "protocolFee",
          "type": "uint256"
        }
      ],
      "name": "updateBridgeProtocolFee",
      "outputs": [],
      "stateMutability": "nonpayable",
      "type": "function"
    },
    {
      "inputs": [
        {
          "internalType": "uint256",
          "name": "flashloanPremiumToProtocol",
          "type": "uint256"
        }
      ],
      "name": "updateFlashloanPremiumToProtocol",
      "outputs": [],
      "stateMutability": "nonpayable",
      "type": "function"
    },
    {
      "inputs": [
        {
          "internalType": "uint256",
          "name": "flashloanPremiumTotal",
          "type": "uint256"
        }
      ],
      "name": "updateFlashloanPremiumTotal",
      "outputs": [],
      "stateMutability": "nonpayable",
      "type": "function"
    },
    {
      "inputs": [
        {
          "components": [
            {
              "internalType": "address",
              "name": "asset",
              "type": "address"
            },
            {
              "internalType": "address",
              "name": "incentivesController",
              "type": "address"
            },
            {
              "internalType": "string",
              "name": "name",
              "type": "string"
            },
            {
              "internalType": "string",
              "name": "symbol",
              "type": "string"
            },
            {
              "internalType": "address",
              "name": "implementation",
              "type": "address"
            },
            {
              "internalType": "bytes",
              "name": "params",
              "type": "bytes"
            }
          ],
          "internalType": "struct ConfiguratorInputTypes.UpdateDebtTokenInput",
          "name": "input",
          "type": "tuple"
        }
      ],
      "name": "updateStableDebtToken",
      "outputs": [],
      "stateMutability": "nonpayable",
      "type": "function"
    },
    {
      "inputs": [
        {
          "components": [
            {
              "internalType": "address",
              "name": "asset",
              "type": "address"
            },
            {
              "internalType": "address",
              "name": "incentivesController",
              "type": "address"
            },
            {
              "internalType": "string",
              "name": "name",
              "type": "string"
            },
            {
              "internalType": "string",
              "name": "symbol",
              "type": "string"
            },
            {
              "internalType": "address",
              "name": "implementation",
              "type": "address"
            },
            {
              "internalType": "bytes",
              "name": "params",
              "type": "bytes"
            }
          ],
          "internalType": "struct ConfiguratorInputTypes.UpdateDebtTokenInput",
          "name": "input",
          "type": "tuple"
        }
      ],
      "name": "updateVariableDebtToken",
      "outputs": [],
      "stateMutability": "nonpayable",
      "type": "function"
    }
  ],
  "bytecode": "0x60806040526000805534801561001457600080fd5b50614db7806100246000396000f3fe608060405234801561001057600080fd5b50600436106101da5760003560e01c80637641f3d911610104578063bb01c37c116100a2578063d14a098311610071578063d14a0983146103cf578063d4fe3f99146103e2578063ef1f9373146103f5578063f53a25151461040857600080fd5b8063bb01c37c14610383578063bf34418314610396578063c19d61e4146103a9578063c4d66de8146103bc57600080fd5b8063a8dc0f45116100de578063a8dc0f4514610337578063ad4e64321461034a578063aeb4fcc11461035d578063b75d6f341461037057600080fd5b80637641f3d9146102fe5780637aca76eb146103115780637c4e560b1461032457600080fd5b80633e72a4541161017c57806352c72de71161014b57806352c72de7146102b2578063571f03e5146102c557806363c9b860146102d85780637626cde3146102eb57600080fd5b80633e72a45414610266578063443191831461027957806348d9fba91461028c5780634b4e67531461029f57600080fd5b806323432bd3116101b857806323432bd31461021a57806326d2cec21461022d5780633036b4391461024057806338ae0cc31461025357600080fd5b8063145f5892146101df578063165a91c4146101f45780631d2118f914610207575b600080fd5b6101f26101ed366004613fc8565b61041b565b005b6101f2610202366004613ff4565b610580565b6101f261021536600461400d565b6107db565b6101f2610228366004614046565b6108a7565b6101f261023b366004613fc8565b61096b565b6101f261024e366004613ff4565b610ac3565b6101f26102613660046140c9565b610bca565b6101f26102743660046140f7565b610d30565b6101f261028736600461411b565b610e8f565b6101f261029a3660046140c9565b61100c565b6101f26102ad366004613fc8565b6111a2565b6101f26102c0366004613ff4565b6112fa565b6101f26102d3366004613fc8565b611557565b6101f26102e63660046140f7565b6116af565b6101f26102f936600461415d565b611766565b6101f261030c366004614198565b6117fe565b6101f261031f3660046140f7565b611924565b6101f26103323660046141b5565b611a7a565b6101f26103453660046140f7565b611d7a565b6101f261035836600461415d565b611ed0565b6101f261036b366004613fc8565b611f35565b6101f261037e3660046140f7565b6120a7565b6101f26103913660046141f0565b6121fd565b6101f26103a43660046140f7565b612262565b6101f26103b736600461424c565b6123b8565b6101f26103ca3660046140f7565b612636565b6101f26103dd366004613fc8565b61281b565b6101f26103f036600461431a565b612973565b6101f26104033660046140f7565b612bf2565b6101f26104163660046140f7565b612d48565b610423612e9e565b6035546040517fc44b11f70000000000000000000000000000000000000000000000000000000081526001600160a01b038481166004830152600092169063c44b11f790602401602060405180830381865afa158015610487573d6000803e3d6000fd5b505050506040513d601f19601f820116820180604052508101906104ab91906143f6565b90506104b78183613088565b60355481516040517fb8d292760000000000000000000000000000000000000000000000000000000081526001600160a01b038681166004830152602482019290925291169063b8d2927690604401600060405180830381600087803b15801561052057600080fd5b505af1158015610534573d6000803e3d6000fd5b50505050826001600160a01b03167f7f54148a1bff5598088768d87a9c8a29519acb6775aff1b4a4eed416464c07748360405161057391815260200190565b60405180910390a2505050565b610588613112565b60408051808201909152600281527f3936000000000000000000000000000000000000000000000000000000000000602082015261271082106105e75760405162461bcd60e51b81526004016105de91906144ae565b60405180910390fd5b50603560009054906101000a90046001600160a01b03166001600160a01b031663074b2e436040518163ffffffff1660e01b8152600401602060405180830381865afa15801561063b573d6000803e3d6000fd5b505050506040513d601f19601f8201168201806040525081019061065f91906144c1565b8111156040518060400160405280600281526020017f3935000000000000000000000000000000000000000000000000000000000000815250906106b65760405162461bcd60e51b81526004016105de91906144ae565b50603554604080517f074b2e4300000000000000000000000000000000000000000000000000000000815290516001600160a01b0390921691631b350b9b91839163074b2e43916004808201926020929091908290030181865afa158015610722573d6000803e3d6000fd5b505050506040513d601f19601f8201168201806040525081019061074691906144c1565b836040518363ffffffff1660e01b815260040161076d929190918252602082015260400190565b600060405180830381600087803b15801561078757600080fd5b505af115801561079b573d6000803e3d6000fd5b505050507ffb6f7fd2a1cc52625fe3bbc6966b500506db6f4c7c0c60344eefb8fe3a8356a4816040516107d091815260200190565b60405180910390a150565b6107e3612e9e565b6035546040517f1d2118f90000000000000000000000000000000000000000000000000000000081526001600160a01b038481166004830152838116602483015290911690631d2118f990604401600060405180830381600087803b15801561084b57600080fd5b505af115801561085f573d6000803e3d6000fd5b50506040516001600160a01b038481168252851692507f5644b64ebb0ce18c4032248ca52f58355469092ff072866c3dcd8640e817d6a5915060200160405180910390a25050565b6108af613271565b6035546001600160a01b031660005b828110156109655773__$3ddc574512022f331a6a4c7e4bbb5c67b6$__63d16d7643838686858181106108f3576108f36144da565b90506020028101906109059190614509565b6040518363ffffffff1660e01b81526004016109229291906145fb565b60006040518083038186803b15801561093a57600080fd5b505af415801561094e573d6000803e3d6000fd5b50505050808061095d9061486c565b9150506108be565b50505050565b610973612e9e565b6035546040517fc44b11f70000000000000000000000000000000000000000000000000000000081526001600160a01b038481166004830152600092169063c44b11f790602401602060405180830381865afa1580156109d7573d6000803e3d6000fd5b505050506040513d601f19601f820116820180604052508101906109fb91906143f6565b9050610a078183613457565b60355481516040517fb8d292760000000000000000000000000000000000000000000000000000000081526001600160a01b038681166004830152602482019290925291169063b8d2927690604401600060405180830381600087803b158015610a7057600080fd5b505af1158015610a84573d6000803e3d6000fd5b50505050826001600160a01b03167fa5c7b75302aed63b8b5d43b57061132cf6d5238b028d7f09603f4c3e3f00345c8360405161057391815260200190565b610acb613112565b60408051808201909152600381527f313130000000000000000000000000000000000000000000000000000000000060208201526127108210610b215760405162461bcd60e51b81526004016105de91906144ae565b506035546040517f3036b439000000000000000000000000000000000000000000000000000000008152600481018390526001600160a01b0390911690633036b43990602401600060405180830381600087803b158015610b8157600080fd5b505af1158015610b95573d6000803e3d6000fd5b505050507fd248b075dd2f20fcaeeed4f05f456268c49eeacfa1c64fe337fe3942d32646c8816040516107d091815260200190565b610bd2612e9e565b6035546040517fc44b11f70000000000000000000000000000000000000000000000000000000081526001600160a01b038481166004830152600092169063c44b11f790602401602060405180830381865afa158015610c36573d6000803e3d6000fd5b505050506040513d601f19601f82011682018060405250810190610c5a91906143f6565b9050610c6681836134de565b60355481516040517fb8d292760000000000000000000000000000000000000000000000000000000081526001600160a01b038681166004830152602482019290925291169063b8d2927690604401600060405180830381600087803b158015610ccf57600080fd5b505af1158015610ce3573d6000803e3d6000fd5b5050604080516001600160a01b038716815285151560208201527f74adf6aaf58c08bc4f993640385e136522375ea3d1589a10d02adbb906c67d1c935001905060405180910390a1505050565b610d38613112565b610d4181613523565b6035546040517fc44b11f70000000000000000000000000000000000000000000000000000000081526001600160a01b038381166004830152600092169063c44b11f790602401602060405180830381865afa158015610da5573d6000803e3d6000fd5b505050506040513d601f19601f82011682018060405250810190610dc991906143f6565b9050610dd6816000613685565b60355481516040517fb8d292760000000000000000000000000000000000000000000000000000000081526001600160a01b038581166004830152602482019290925291169063b8d2927690604401600060405180830381600087803b158015610e3f57600080fd5b505af1158015610e53573d6000803e3d6000fd5b50506040516001600160a01b03851692507f6f60cf8bd0f218cabe1ea3150bd07b0b758c35c4cfdf7138017a283e65564d5e9150600090a25050565b610e97612e9e565b6035546040517fc44b11f70000000000000000000000000000000000000000000000000000000081526001600160a01b038581166004830152600092169063c44b11f790602401602060405180830381865afa158015610efb573d6000803e3d6000fd5b505050506040513d601f19601f82011682018060405250810190610f1f91906143f6565b9050610f2c8160016136ca565b610f36818461370f565b610f408183613799565b60355481516040517fb8d292760000000000000000000000000000000000000000000000000000000081526001600160a01b038781166004830152602482019290925291169063b8d2927690604401600060405180830381600087803b158015610fa957600080fd5b505af1158015610fbd573d6000803e3d6000fd5b50505050836001600160a01b03167fab2f7f9e5ca2772fafa94f355c1842a80ae6b9e41f83083098d81f67d7a0b50883604051610ffe911515815260200190565b60405180910390a250505050565b6110146137de565b6035546040517fc44b11f70000000000000000000000000000000000000000000000000000000081526001600160a01b038481166004830152600092169063c44b11f790602401602060405180830381865afa158015611078573d6000803e3d6000fd5b505050506040513d601f19601f8201168201806040525081019061109c91906143f6565b90506110a881836139c4565b60355481516040517fb8d292760000000000000000000000000000000000000000000000000000000081526001600160a01b038681166004830152602482019290925291169063b8d2927690604401600060405180830381600087803b15801561111157600080fd5b505af1158015611125573d6000803e3d6000fd5b505050508115611168576040516001600160a01b038416907f76fbdd4354dc9418c0c566bb694eb4f77c55b468b137d36da290a1bef6c91ce790600090a2505050565b6040516001600160a01b038416907f1d3a3dc47be46ddf308a9b0bfb38011c4570656694fa65582a1a8bb7b45d5e8490600090a25b505050565b6111aa612e9e565b6035546040517fc44b11f70000000000000000000000000000000000000000000000000000000081526001600160a01b038481166004830152600092169063c44b11f790602401602060405180830381865afa15801561120e573d6000803e3d6000fd5b505050506040513d601f19601f8201168201806040525081019061123291906143f6565b905061123e8183613a09565b60355481516040517fb8d292760000000000000000000000000000000000000000000000000000000081526001600160a01b038681166004830152602482019290925291169063b8d2927690604401600060405180830381600087803b1580156112a757600080fd5b505af11580156112bb573d6000803e3d6000fd5b50505050826001600160a01b03167f2694ccb0b585b6a54b8d8b4a47aa874b05c257b43d34e98aee50838be00d34058360405161057391815260200190565b611302613112565b60408051808201909152600281527f3936000000000000000000000000000000000000000000000000000000000000602082015261271082106113585760405162461bcd60e51b81526004016105de91906144ae565b50603560009054906101000a90046001600160a01b03166001600160a01b0316636a99c0366040518163ffffffff1660e01b8152600401602060405180830381865afa1580156113ac573d6000803e3d6000fd5b505050506040513d601f19601f820116820180604052508101906113d091906144c1565b8110156040518060400160405280600281526020017f3935000000000000000000000000000000000000000000000000000000000000815250906114275760405162461bcd60e51b81526004016105de91906144ae565b50603554604080517f6a99c03600000000000000000000000000000000000000000000000000000000815290516001600160a01b0390921691631b350b9b9184918491636a99c0369160048083019260209291908290030181865afa158015611494573d6000803e3d6000fd5b505050506040513d601f19601f820116820180604052508101906114b891906144c1565b6040517fffffffff0000000000000000000000000000000000000000000000000000000060e085901b16815260048101929092526024820152604401600060405180830381600087803b15801561150e57600080fd5b505af1158015611522573d6000803e3d6000fd5b505050507f0b9bdf39dfe243f1d69768be72013abe6e1e0227fa0b8529826e7824c76a8d17816040516107d091815260200190565b61155f612e9e565b6035546040517fc44b11f70000000000000000000000000000000000000000000000000000000081526001600160a01b038481166004830152600092169063c44b11f790602401602060405180830381865afa1580156115c3573d6000803e3d6000fd5b505050506040513d601f19601f820116820180604052508101906115e791906143f6565b90506115f38183613a90565b60355481516040517fb8d292760000000000000000000000000000000000000000000000000000000081526001600160a01b038681166004830152602482019290925291169063b8d2927690604401600060405180830381600087803b15801561165c57600080fd5b505af1158015611670573d6000803e3d6000fd5b50505050826001600160a01b03167f7667cde738f3b2f178f6dd27f65ae2d93110aaa12b04b3b341dccb7a0cc1f1608360405161057391815260200190565b6116b7613112565b6035546040517f63c9b8600000000000000000000000000000000000000000000000000000000081526001600160a01b038381166004830152909116906363c9b86090602401600060405180830381600087803b15801561171757600080fd5b505af115801561172b573d6000803e3d6000fd5b50506040516001600160a01b03841692507feeec4c06f7adad215cbdb4d2960896c83c26aedce02dde76d36fa28588d62da49150600090a250565b61176e613112565b6035546040517f79d89ab200000000000000000000000000000000000000000000000000000000815273__$3ddc574512022f331a6a4c7e4bbb5c67b6$__916379d89ab2916117cb916001600160a01b03169085906004016148cc565b60006040518083038186803b1580156117e357600080fd5b505af41580156117f7573d6000803e3d6000fd5b5050505050565b611806613b1a565b603554604080517fd1946dbc00000000000000000000000000000000000000000000000000000000815290516000926001600160a01b03169163d1946dbc91600480830192869291908290030181865afa158015611868573d6000803e3d6000fd5b505050506040513d6000823e601f3d9081017fffffffffffffffffffffffffffffffffffffffffffffffffffffffffffffffe01682016040526118ae91908101906149b7565b905060005b815181101561119d5760006001600160a01b03168282815181106118d9576118d96144da565b60200260200101516001600160a01b03161461191257611912828281518110611904576119046144da565b60200260200101518461100c565b8061191c8161486c565b9150506118b3565b61192c612e9e565b6035546040517fc44b11f70000000000000000000000000000000000000000000000000000000081526001600160a01b038381166004830152600092169063c44b11f790602401602060405180830381865afa158015611990573d6000803e3d6000fd5b505050506040513d601f19601f820116820180604052508101906119b491906143f6565b90506119c1816001613c79565b60355481516040517fb8d292760000000000000000000000000000000000000000000000000000000081526001600160a01b038581166004830152602482019290925291169063b8d2927690604401600060405180830381600087803b158015611a2a57600080fd5b505af1158015611a3e573d6000803e3d6000fd5b50506040516001600160a01b03851692507f85dc710add8a0914461a7dc5a63f6fc529a7700f8c6089a3faf5e93256ccf12a9150600090a25050565b611a82612e9e565b6035546040517fc44b11f70000000000000000000000000000000000000000000000000000000081526001600160a01b038681166004830152600092169063c44b11f790602401602060405180830381865afa158015611ae6573d6000803e3d6000fd5b505050506040513d601f19601f82011682018060405250810190611b0a91906143f6565b9050828411156040518060400160405280600281526020017f373500000000000000000000000000000000000000000000000000000000000081525090611b645760405162461bcd60e51b81526004016105de91906144ae565b508215611c2b5760408051808201909152600281527f373500000000000000000000000000000000000000000000000000000000000060208201526127108311611bc15760405162461bcd60e51b81526004016105de91906144ae565b50612710611bcf8484613cbe565b11156040518060400160405280600281526020017f373500000000000000000000000000000000000000000000000000000000000081525090611c255760405162461bcd60e51b81526004016105de91906144ae565b50611c88565b60408051808201909152600281527f373500000000000000000000000000000000000000000000000000000000000060208201528215611c7e5760405162461bcd60e51b81526004016105de91906144ae565b50611c8885613523565b611c928185613d01565b611c9c8184613d82565b611ca68183613e09565b60355481516040517fb8d292760000000000000000000000000000000000000000000000000000000081526001600160a01b038881166004830152602482019290925291169063b8d2927690604401600060405180830381600087803b158015611d0f57600080fd5b505af1158015611d23573d6000803e3d6000fd5b505060408051878152602081018790529081018590526001600160a01b03881692507f637febbda9275aea2e85c0ff690444c8d87eb2e8339bbede9715abcc89cb0995915060600160405180910390a25050505050565b611d82612e9e565b6035546040517fc44b11f70000000000000000000000000000000000000000000000000000000081526001600160a01b038381166004830152600092169063c44b11f790602401602060405180830381865afa158015611de6573d6000803e3d6000fd5b505050506040513d601f19601f82011682018060405250810190611e0a91906143f6565b9050611e178160006136ca565b60355481516040517fb8d292760000000000000000000000000000000000000000000000000000000081526001600160a01b038581166004830152602482019290925291169063b8d2927690604401600060405180830381600087803b158015611e8057600080fd5b505af1158015611e94573d6000803e3d6000fd5b50506040516001600160a01b03851692507fe9a7e5fd4fc8ea18e602350324bf48e8f05d12434af0ce0be05743e6a5fdcb9e9150600090a25050565b611ed8613112565b6035546040517fb870106f00000000000000000000000000000000000000000000000000000000815273__$3ddc574512022f331a6a4c7e4bbb5c67b6$__9163b870106f916117cb916001600160a01b03169085906004016148cc565b611f3d612e9e565b6035546040517fc44b11f70000000000000000000000000000000000000000000000000000000081526001600160a01b038481166004830152600092169063c44b11f790602401602060405180830381865afa158015611fa1573d6000803e3d6000fd5b505050506040513d601f19601f82011682018060405250810190611fc591906143f6565b805190915060d41c64ffffffffff16611fe157611fe183613523565b611feb8183613e90565b60355481516040517fb8d292760000000000000000000000000000000000000000000000000000000081526001600160a01b038681166004830152602482019290925291169063b8d2927690604401600060405180830381600087803b15801561205457600080fd5b505af1158015612068573d6000803e3d6000fd5b50505050826001600160a01b03167f89790a56bf64e6811819d984a1ecfdeee69816723e34d8cd4e555a346733bd8d8360405161057391815260200190565b6120af613112565b6035546040517fc44b11f70000000000000000000000000000000000000000000000000000000081526001600160a01b038381166004830152600092169063c44b11f790602401602060405180830381865afa158015612113573d6000803e3d6000fd5b505050506040513d601f19601f8201168201806040525081019061213791906143f6565b9050612144816001613685565b60355481516040517fb8d292760000000000000000000000000000000000000000000000000000000081526001600160a01b038581166004830152602482019290925291169063b8d2927690604401600060405180830381600087803b1580156121ad57600080fd5b505af11580156121c1573d6000803e3d6000fd5b50506040516001600160a01b03851692507f35b80cd8ea3440e9a8454f116fa658b858da1b64c86c48451f4559cefcdfb56c9150600090a25050565b612205613112565b6035546040517fcd0b6dd600000000000000000000000000000000000000000000000000000000815273__$3ddc574512022f331a6a4c7e4bbb5c67b6$__9163cd0b6dd6916117cb916001600160a01b0316908590600401614a69565b61226a612e9e565b6035546040517fc44b11f70000000000000000000000000000000000000000000000000000000081526001600160a01b038381166004830152600092169063c44b11f790602401602060405180830381865afa1580156122ce573d6000803e3d6000fd5b505050506040513d601f19601f820116820180604052508101906122f291906143f6565b90506122ff816001613799565b60355481516040517fb8d292760000000000000000000000000000000000000000000000000000000081526001600160a01b038581166004830152602482019290925291169063b8d2927690604401600060405180830381600087803b15801561236857600080fd5b505af115801561237c573d6000803e3d6000fd5b50506040516001600160a01b03851692507f8dee2b2f3e98319ae6347eda521788f73f4086c9be9a594942b370b137fb8cb19150600090a25050565b6123c0612e9e565b8461ffff168661ffff1611156040518060400160405280600281526020017f3939000000000000000000000000000000000000000000000000000000000000815250906124205760405162461bcd60e51b81526004016105de91906144ae565b5060408051808201909152600281527f3939000000000000000000000000000000000000000000000000000000000000602082015261271061ffff86161161247b5760405162461bcd60e51b81526004016105de91906144ae565b5061271061249061ffff878116908716613cbe565b11156040518060400160405280600281526020017f3939000000000000000000000000000000000000000000000000000000000000815250906124e65760405162461bcd60e51b81526004016105de91906144ae565b50603560009054906101000a90046001600160a01b03166001600160a01b031663d579ea7d886040518060a001604052808a61ffff1681526020018961ffff1681526020018861ffff168152602001876001600160a01b0316815260200186868080601f01602080910402602001604051908101604052809392919081815260200183838082843760009201919091525050509152506040517fffffffff0000000000000000000000000000000000000000000000000000000060e085901b1681526125b6929190600401614b74565b600060405180830381600087803b1580156125d057600080fd5b505af11580156125e4573d6000803e3d6000fd5b505050508660ff167f0acf8b4a3cace10779798a89a206a0ae73a71b63acdd3be2801d39c2ef7ab3cb87878787878760405161262596959493929190614bdd565b60405180910390a250505050505050565b6001805460ff16806126475750303b155b80612653575060005481115b6126c55760405162461bcd60e51b815260206004820152602e60248201527f436f6e747261637420696e7374616e63652068617320616c726561647920626560448201527f656e20696e697469616c697a656400000000000000000000000000000000000060648201526084016105de565b60015460ff1615801561270257600180547fffffffffffffffffffffffffffffffffffffffffffffffffffffffffffffff00168117905560008290555b603480547fffffffffffffffffffffffff0000000000000000000000000000000000000000166001600160a01b038516908117909155604080517f026b1d5f000000000000000000000000000000000000000000000000000000008152905163026b1d5f916004808201926020929091908290030181865afa15801561278c573d6000803e3d6000fd5b505050506040513d601f19601f820116820180604052508101906127b09190614c1c565b603580547fffffffffffffffffffffffff0000000000000000000000000000000000000000166001600160a01b0392909216919091179055801561119d57600180547fffffffffffffffffffffffffffffffffffffffffffffffffffffffffffffff00169055505050565b612823612e9e565b6035546040517fc44b11f70000000000000000000000000000000000000000000000000000000081526001600160a01b038481166004830152600092169063c44b11f790602401602060405180830381865afa158015612887573d6000803e3d6000fd5b505050506040513d601f19601f820116820180604052508101906128ab91906143f6565b90506128b7818361370f565b60355481516040517fb8d292760000000000000000000000000000000000000000000000000000000081526001600160a01b038681166004830152602482019290925291169063b8d2927690604401600060405180830381600087803b15801561292057600080fd5b505af1158015612934573d6000803e3d6000fd5b50505050826001600160a01b03167fba7829d227ff41c60f4eb3e5be13a7a5926f26c920b58ec987c3709f5e07bfa38360405161057391815260200190565b61297b612e9e565b6035546040517fc44b11f70000000000000000000000000000000000000000000000000000000081526001600160a01b038481166004830152600092169063c44b11f790602401602060405180830381865afa1580156129df573d6000803e3d6000fd5b505050506040513d601f19601f82011682018060405250810190612a0391906143f6565b905060ff821615612b26576035546040517f6c6f6ae100000000000000000000000000000000000000000000000000000000815260ff841660048201526000916001600160a01b031690636c6f6ae190602401600060405180830381865afa158015612a73573d6000803e3d6000fd5b505050506040513d6000823e601f3d9081017fffffffffffffffffffffffffffffffffffffffffffffffffffffffffffffffe0168201604052612ab99190810190614c39565b825190915060101c61ffff16816020015161ffff16116040518060400160405280600281526020017f393900000000000000000000000000000000000000000000000000000000000081525090612b235760405162461bcd60e51b81526004016105de91906144ae565b50505b612b338160ff8416613f1a565b60355481516040517fb8d292760000000000000000000000000000000000000000000000000000000081526001600160a01b038681166004830152602482019290925291169063b8d2927690604401600060405180830381600087803b158015612b9c57600080fd5b505af1158015612bb0573d6000803e3d6000fd5b505060405160ff851681526001600160a01b03861692507f57ebca3de470b0d298bff08538bc93227f3d622af46886f2924cba89cb1062049150602001610573565b612bfa612e9e565b6035546040517fc44b11f70000000000000000000000000000000000000000000000000000000081526001600160a01b038381166004830152600092169063c44b11f790602401602060405180830381865afa158015612c5e573d6000803e3d6000fd5b505050506040513d601f19601f82011682018060405250810190612c8291906143f6565b9050612c8f816000613c79565b60355481516040517fb8d292760000000000000000000000000000000000000000000000000000000081526001600160a01b038581166004830152602482019290925291169063b8d2927690604401600060405180830381600087803b158015612cf857600080fd5b505af1158015612d0c573d6000803e3d6000fd5b50506040516001600160a01b03851692507f838ecdc4709a31a26db48b0c853212cedde3f725f07030079d793fb0719647609150600090a25050565b612d50612e9e565b6035546040517fc44b11f70000000000000000000000000000000000000000000000000000000081526001600160a01b038381166004830152600092169063c44b11f790602401602060405180830381865afa158015612db4573d6000803e3d6000fd5b505050506040513d601f19601f82011682018060405250810190612dd891906143f6565b9050612de5816000613799565b60355481516040517fb8d292760000000000000000000000000000000000000000000000000000000081526001600160a01b038581166004830152602482019290925291169063b8d2927690604401600060405180830381600087803b158015612e4e57600080fd5b505af1158015612e62573d6000803e3d6000fd5b50506040516001600160a01b03851692507f8bbf35441ac2c607ddecadd3d8ee58636d32f217fad201fb2655581502dd84e39150600090a25050565b603454604080517f707cd71600000000000000000000000000000000000000000000000000000000815290516000926001600160a01b03169163707cd7169160048083019260209291908290030181865afa158015612f01573d6000803e3d6000fd5b505050506040513d601f19601f82011682018060405250810190612f259190614c1c565b6040517f674b5e4d0000000000000000000000000000000000000000000000000000000081523360048201529091506001600160a01b0382169063674b5e4d90602401602060405180830381865afa158015612f85573d6000803e3d6000fd5b505050506040513d601f19601f82011682018060405250810190612fa99190614d64565b8061303057506040517f7be53ca10000000000000000000000000000000000000000000000000000000081523360048201526001600160a01b03821690637be53ca190602401602060405180830381865afa15801561300c573d6000803e3d6000fd5b505050506040513d601f19601f820116820180604052508101906130309190614d64565b6040518060400160405280600281526020017f3837000000000000000000000000000000000000000000000000000000000000815250906130845760405162461bcd60e51b81526004016105de91906144ae565b5050565b60408051808201909152600381527f31303300000000000000000000000000000000000000000000000000000000006020820152640fffffffff8211156130e25760405162461bcd60e51b81526004016105de91906144ae565b5081517ffffffffffff000000000ffffffffffffffffffffffffffffffffffffffffffff1660b09190911b179052565b603454604080517f707cd71600000000000000000000000000000000000000000000000000000000815290516000926001600160a01b03169163707cd7169160048083019260209291908290030181865afa158015613175573d6000803e3d6000fd5b505050506040513d601f19601f820116820180604052508101906131999190614c1c565b6040517f7be53ca10000000000000000000000000000000000000000000000000000000081523360048201529091506001600160a01b03821690637be53ca190602401602060405180830381865afa1580156131f9573d6000803e3d6000fd5b505050506040513d601f19601f8201168201806040525081019061321d9190614d64565b6040518060400160405280600281526020017f3333000000000000000000000000000000000000000000000000000000000000815250906130845760405162461bcd60e51b81526004016105de91906144ae565b603454604080517f707cd71600000000000000000000000000000000000000000000000000000000815290516000926001600160a01b03169163707cd7169160048083019260209291908290030181865afa1580156132d4573d6000803e3d6000fd5b505050506040513d601f19601f820116820180604052508101906132f89190614c1c565b6040517f13ee32e00000000000000000000000000000000000000000000000000000000081523360048201529091506001600160a01b038216906313ee32e090602401602060405180830381865afa158015613358573d6000803e3d6000fd5b505050506040513d601f19601f8201168201806040525081019061337c9190614d64565b8061340357506040517f7be53ca10000000000000000000000000000000000000000000000000000000081523360048201526001600160a01b03821690637be53ca190602401602060405180830381865afa1580156133df573d6000803e3d6000fd5b505050506040513d601f19601f820116820180604052508101906134039190614d64565b6040518060400160405280600381526020017f3130310000000000000000000000000000000000000000000000000000000000815250906130845760405162461bcd60e51b81526004016105de91906144ae565b60408051808201909152600281527f393700000000000000000000000000000000000000000000000000000000000060208201526127108211156134ae5760405162461bcd60e51b81526004016105de91906144ae565b5081517fffffffffffffffffffffff0000ffffffffffffffffffffffffffffffffffffff1660989190911b179052565b603d816134ec5760006134ef565b60015b83517fffffffffffffffffffffffffffffffffffffffffffffffffdfffffffffffffff1660ff9190911690911b1790915250565b603454604080517fe860accb00000000000000000000000000000000000000000000000000000000815290516000926001600160a01b03169163e860accb9160048083019260209291908290030181865afa158015613586573d6000803e3d6000fd5b505050506040513d601f19601f820116820180604052508101906135aa9190614c1c565b6040517f51460e250000000000000000000000000000000000000000000000000000000081526001600160a01b03848116600483015291909116906351460e2590602401602060405180830381865afa15801561360b573d6000803e3d6000fd5b505050506040513d601f19601f8201168201806040525081019061362f91906144c1565b60408051808201909152600281527f33340000000000000000000000000000000000000000000000000000000000006020820152909150811561119d5760405162461bcd60e51b81526004016105de91906144ae565b603881613693576000613696565b60015b83517ffffffffffffffffffffffffffffffffffffffffffffffffffeffffffffffffff1660ff9190911690911b1790915250565b603a816136d85760006136db565b60015b83517ffffffffffffffffffffffffffffffffffffffffffffffffffbffffffffffffff1660ff9190911690911b1790915250565b60408051808201909152600281527f38320000000000000000000000000000000000000000000000000000000000006020820152640fffffffff8211156137695760405162461bcd60e51b81526004016105de91906144ae565b5081517ffffffffffffffffffffffffffffffffffff000000000ffffffffffffffffffff1660509190911b179052565b603b816137a75760006137aa565b60015b83517ffffffffffffffffffffffffffffffffffffffffffffffffff7ffffffffffffff1660ff9190911690911b1790915250565b603454604080517f707cd71600000000000000000000000000000000000000000000000000000000815290516000926001600160a01b03169163707cd7169160048083019260209291908290030181865afa158015613841573d6000803e3d6000fd5b505050506040513d601f19601f820116820180604052508101906138659190614c1c565b6040517f7be53ca10000000000000000000000000000000000000000000000000000000081523360048201529091506001600160a01b03821690637be53ca190602401602060405180830381865afa1580156138c5573d6000803e3d6000fd5b505050506040513d601f19601f820116820180604052508101906138e99190614d64565b8061397057506040517f2500f2b60000000000000000000000000000000000000000000000000000000081523360048201526001600160a01b03821690632500f2b690602401602060405180830381865afa15801561394c573d6000803e3d6000fd5b505050506040513d601f19601f820116820180604052508101906139709190614d64565b6040518060400160405280600281526020017f3835000000000000000000000000000000000000000000000000000000000000815250906130845760405162461bcd60e51b81526004016105de91906144ae565b603c816139d25760006139d5565b60015b83517fffffffffffffffffffffffffffffffffffffffffffffffffefffffffffffffff1660ff9190911690911b1790915250565b60408051808201909152600281527f3731000000000000000000000000000000000000000000000000000000000000602082015261ffff821115613a605760405162461bcd60e51b81526004016105de91906144ae565b5081517fffffffffffffffffffffffffffffffffffffffffffff0000ffffffffffffffff1660409190911b179052565b60408051808201909152600281527f38340000000000000000000000000000000000000000000000000000000000006020820152640fffffffff821115613aea5760405162461bcd60e51b81526004016105de91906144ae565b5081517fffffffffffffffffffffffffff000000000fffffffffffffffffffffffffffff1660749190911b179052565b603454604080517f707cd71600000000000000000000000000000000000000000000000000000000815290516000926001600160a01b03169163707cd7169160048083019260209291908290030181865afa158015613b7d573d6000803e3d6000fd5b505050506040513d601f19601f82011682018060405250810190613ba19190614c1c565b6040517f2500f2b60000000000000000000000000000000000000000000000000000000081523360048201529091506001600160a01b03821690632500f2b690602401602060405180830381865afa158015613c01573d6000803e3d6000fd5b505050506040513d601f19601f82011682018060405250810190613c259190614d64565b6040518060400160405280600281526020017f3736000000000000000000000000000000000000000000000000000000000000815250906130845760405162461bcd60e51b81526004016105de91906144ae565b603981613c87576000613c8a565b60015b83517ffffffffffffffffffffffffffffffffffffffffffffffffffdffffffffffffff1660ff9190911690911b1790915250565b600081157fffffffffffffffffffffffffffffffffffffffffffffffffffffffffffffec7783900484111517613cf357600080fd5b506127109102611388010490565b60408051808201909152600281527f3637000000000000000000000000000000000000000000000000000000000000602082015261ffff821115613d585760405162461bcd60e51b81526004016105de91906144ae565b5081517fffffffffffffffffffffffffffffffffffffffffffffffffffffffffffff000016179052565b60408051808201909152600281527f3638000000000000000000000000000000000000000000000000000000000000602082015261ffff821115613dd95760405162461bcd60e51b81526004016105de91906144ae565b5081517fffffffffffffffffffffffffffffffffffffffffffffffffffffffff0000ffff1660109190911b179052565b60408051808201909152600281527f3639000000000000000000000000000000000000000000000000000000000000602082015261ffff821115613e605760405162461bcd60e51b81526004016105de91906144ae565b5081517fffffffffffffffffffffffffffffffffffffffffffffffffffff0000ffffffff1660209190911b179052565b60408051808201909152600381527f3130360000000000000000000000000000000000000000000000000000000000602082015264ffffffffff821115613eea5760405162461bcd60e51b81526004016105de91906144ae565b5081517ff0000000000fffffffffffffffffffffffffffffffffffffffffffffffffffff1660d49190911b179052565b60408051808201909152600281527f3938000000000000000000000000000000000000000000000000000000000000602082015260ff821115613f705760405162461bcd60e51b81526004016105de91906144ae565b5081517fffffffffffffffffffff00ffffffffffffffffffffffffffffffffffffffffff1660a89190911b179052565b6001600160a01b0381168114613fb557600080fd5b50565b8035613fc381613fa0565b919050565b60008060408385031215613fdb57600080fd5b8235613fe681613fa0565b946020939093013593505050565b60006020828403121561400657600080fd5b5035919050565b6000806040838503121561402057600080fd5b823561402b81613fa0565b9150602083013561403b81613fa0565b809150509250929050565b6000806020838503121561405957600080fd5b823567ffffffffffffffff8082111561407157600080fd5b818501915085601f83011261408557600080fd5b81358181111561409457600080fd5b8660208260051b85010111156140a957600080fd5b60209290920196919550909350505050565b8015158114613fb557600080fd5b600080604083850312156140dc57600080fd5b82356140e781613fa0565b9150602083013561403b816140bb565b60006020828403121561410957600080fd5b813561411481613fa0565b9392505050565b60008060006060848603121561413057600080fd5b833561413b81613fa0565b9250602084013591506040840135614152816140bb565b809150509250925092565b60006020828403121561416f57600080fd5b813567ffffffffffffffff81111561418657600080fd5b820160c0818503121561411457600080fd5b6000602082840312156141aa57600080fd5b8135614114816140bb565b600080600080608085870312156141cb57600080fd5b84356141d681613fa0565b966020860135965060408601359560600135945092505050565b60006020828403121561420257600080fd5b813567ffffffffffffffff81111561421957600080fd5b820160e0818503121561411457600080fd5b803560ff81168114613fc357600080fd5b61ffff81168114613fb557600080fd5b600080600080600080600060c0888a03121561426757600080fd5b6142708861422b565b965060208801356142808161423c565b955060408801356142908161423c565b945060608801356142a08161423c565b935060808801356142b081613fa0565b925060a088013567ffffffffffffffff808211156142cd57600080fd5b818a0191508a601f8301126142e157600080fd5b8135818111156142f057600080fd5b8b602082850101111561430257600080fd5b60208301945080935050505092959891949750929550565b6000806040838503121561432d57600080fd5b823561433881613fa0565b91506143466020840161422b565b90509250929050565b7f4e487b7100000000000000000000000000000000000000000000000000000000600052604160045260246000fd5b60405160a0810167ffffffffffffffff811182821017156143a1576143a161434f565b60405290565b604051601f82017fffffffffffffffffffffffffffffffffffffffffffffffffffffffffffffffe016810167ffffffffffffffff811182821017156143ee576143ee61434f565b604052919050565b60006020828403121561440857600080fd5b6040516020810181811067ffffffffffffffff8211171561442b5761442b61434f565b6040529151825250919050565b60005b8381101561445357818101518382015260200161443b565b838111156109655750506000910152565b6000815180845261447c816020860160208601614438565b601f017fffffffffffffffffffffffffffffffffffffffffffffffffffffffffffffffe0169290920160200192915050565b6020815260006141146020830184614464565b6000602082840312156144d357600080fd5b5051919050565b7f4e487b7100000000000000000000000000000000000000000000000000000000600052603260045260246000fd5b600082357ffffffffffffffffffffffffffffffffffffffffffffffffffffffffffffffe0183360301811261453d57600080fd5b9190910192915050565b60008083357fffffffffffffffffffffffffffffffffffffffffffffffffffffffffffffffe184360301811261457c57600080fd5b830160208101925035905067ffffffffffffffff81111561459c57600080fd5b8036038313156145ab57600080fd5b9250929050565b8183528181602085013750600060208284010152600060207fffffffffffffffffffffffffffffffffffffffffffffffffffffffffffffffe0601f840116840101905092915050565b6001600160a01b03831681526040602082015261462b6040820161461e84613fb8565b6001600160a01b03169052565b600061463960208401613fb8565b6001600160a01b0316606083015261465360408401613fb8565b6001600160a01b0316608083015261466d6060840161422b565b60ff1660a083015261468160808401613fb8565b6001600160a01b031660c083015261469b60a08401613fb8565b6001600160a01b031660e08301526146b560c08401613fb8565b6101006146cc818501836001600160a01b03169052565b6146d860e08601613fb8565b91506101206146f1818601846001600160a01b03169052565b6146fd82870187614547565b93509150610200610140818188015261471b610240880186866145b2565b945061472983890189614547565b945092507fffffffffffffffffffffffffffffffffffffffffffffffffffffffffffffffc06101608189880301818a01526147658787876145b2565b9650614773838b018b614547565b9650945061018092508189880301838a01526147908787876145b2565b965061479e818b018b614547565b96509450506101a08189880301818a01526147ba8787876145b2565b96506147c8838b018b614547565b965094506101c092508189880301838a01526147e58787876145b2565b96506147f3818b018b614547565b96509450506101e08189880301818a015261480f8787876145b2565b965061481d838b018b614547565b965094508189880301848a01526148358787876145b2565b9650614843818b018b614547565b965094505080888703016102208901525050506148618383836145b2565b979650505050505050565b60007fffffffffffffffffffffffffffffffffffffffffffffffffffffffffffffffff8214156148c5577f4e487b7100000000000000000000000000000000000000000000000000000000600052601160045260246000fd5b5060010190565b60006001600160a01b0380851683526040602084015283356148ed81613fa0565b81166040840152602084013561490281613fa0565b1660608301526149156040840184614547565b60c0608085015261492b610100850182846145b2565b91505061493b6060850185614547565b7fffffffffffffffffffffffffffffffffffffffffffffffffffffffffffffffc0808685030160a08701526149718483856145b2565b935061497f60808801613fb8565b6001600160a01b03811660c0880152925061499d60a0880188614547565b93509150808685030160e0870152506148618383836145b2565b600060208083850312156149ca57600080fd5b825167ffffffffffffffff808211156149e257600080fd5b818501915085601f8301126149f657600080fd5b815181811115614a0857614a0861434f565b8060051b9150614a198483016143a7565b8181529183018401918481019088841115614a3357600080fd5b938501935b83851015614a5d5784519250614a4d83613fa0565b8282529385019390850190614a38565b98975050505050505050565b60006001600160a01b038085168352604060208401528335614a8a81613fa0565b166040830152614a9c60208401613fb8565b6001600160a01b03166060830152614ab660408401613fb8565b6001600160a01b03166080830152614ad16060840184614547565b60e060a0850152614ae7610120850182846145b2565b915050614af76080850185614547565b7fffffffffffffffffffffffffffffffffffffffffffffffffffffffffffffffc0808685030160c0870152614b2d8483856145b2565b9350614b3b60a08801613fb8565b6001600160a01b03811660e08801529250614b5960c0880188614547565b935091508086850301610100870152506148618383836145b2565b60ff8316815260406020820152600061ffff808451166040840152806020850151166060840152806040850151166080840152506001600160a01b0360608401511660a0830152608083015160a060c0840152614bd460e0840182614464565b95945050505050565b600061ffff808916835280881660208401528087166040840152506001600160a01b038516606083015260a06080830152614a5d60a0830184866145b2565b600060208284031215614c2e57600080fd5b815161411481613fa0565b60006020808385031215614c4c57600080fd5b825167ffffffffffffffff80821115614c6457600080fd5b9084019060a08287031215614c7857600080fd5b614c8061437e565b8251614c8b8161423c565b815282840151614c9a8161423c565b818501526040830151614cac8161423c565b60408201526060830151614cbf81613fa0565b6060820152608083015182811115614cd657600080fd5b80840193505086601f840112614ceb57600080fd5b825182811115614cfd57614cfd61434f565b614d2d857fffffffffffffffffffffffffffffffffffffffffffffffffffffffffffffffe0601f840116016143a7565b92508083528785828601011115614d4357600080fd5b614d5281868501878701614438565b50608081019190915295945050505050565b600060208284031215614d7657600080fd5b8151614114816140bb56fea264697066735822122079bfffd4275b52183e8f099762f5ae1f15a123a7107ca3b5b932404a5de030eb64736f6c634300080a0033",
  "linkReferences": {
    "contracts/protocol/libraries/logic/ConfiguratorLogic.sol": {
      "ConfiguratorLogic": [
        {
          "length": 20,
          "start": 2284
        },
        {
          "length": 20,
          "start": 6077
        },
        {
          "length": 20,
          "start": 7975
        },
        {
          "length": 20,
          "start": 8788
        }
      ]
    }
  },
  "deployedLinkReferences": {
    "contracts/protocol/libraries/logic/ConfiguratorLogic.sol": {
      "ConfiguratorLogic": [
        {
          "length": 20,
          "start": 2248
        },
        {
          "length": 20,
          "start": 6041
        },
        {
          "length": 20,
          "start": 7939
        },
        {
          "length": 20,
          "start": 8752
        }
      ]
    }
  }
}