{
  "_format": "hh-sol-artifact-1",
  "contractName": "Pool",
  "sourceName": "contracts/protocol/pool/Pool.sol",
  "abi": [
    {
      "inputs": [
        {
          "internalType": "contract IPoolAddressesProvider",
          "name": "provider",
          "type": "address"
        }
      ],
      "stateMutability": "nonpayable",
      "type": "constructor"
    },
    {
      "anonymous": false,
      "inputs": [
        {
          "indexed": true,
          "internalType": "address",
          "name": "reserve",
          "type": "address"
        },
        {
          "indexed": true,
          "internalType": "address",
          "name": "backer",
          "type": "address"
        },
        {
          "indexed": false,
          "internalType": "uint256",
          "name": "amount",
          "type": "uint256"
        },
        {
          "indexed": false,
          "internalType": "uint256",
          "name": "fee",
          "type": "uint256"
        }
      ],
      "name": "BackUnbacked",
      "type": "event"
    },
    {
      "anonymous": false,
      "inputs": [
        {
          "indexed": true,
          "internalType": "address",
          "name": "reserve",
          "type": "address"
        },
        {
          "indexed": false,
          "internalType": "address",
          "name": "user",
          "type": "address"
        },
        {
          "indexed": true,
          "internalType": "address",
          "name": "onBehalfOf",
          "type": "address"
        },
        {
          "indexed": false,
          "internalType": "uint256",
          "name": "amount",
          "type": "uint256"
        },
        {
          "indexed": false,
          "internalType": "uint256",
          "name": "borrowRateMode",
          "type": "uint256"
        },
        {
          "indexed": false,
          "internalType": "uint256",
          "name": "borrowRate",
          "type": "uint256"
        },
        {
          "indexed": true,
          "internalType": "uint16",
          "name": "referral",
          "type": "uint16"
        }
      ],
      "name": "Borrow",
      "type": "event"
    },
    {
      "anonymous": false,
      "inputs": [
        {
          "indexed": true,
          "internalType": "address",
          "name": "target",
          "type": "address"
        },
        {
          "indexed": true,
          "internalType": "address",
          "name": "initiator",
          "type": "address"
        },
        {
          "indexed": true,
          "internalType": "address",
          "name": "asset",
          "type": "address"
        },
        {
          "indexed": false,
          "internalType": "uint256",
          "name": "amount",
          "type": "uint256"
        },
        {
          "indexed": false,
          "internalType": "uint256",
          "name": "premium",
          "type": "uint256"
        },
        {
          "indexed": false,
          "internalType": "uint16",
          "name": "referralCode",
          "type": "uint16"
        }
      ],
      "name": "FlashLoan",
      "type": "event"
    },
    {
      "anonymous": false,
      "inputs": [
        {
          "indexed": true,
          "internalType": "address",
          "name": "collateralAsset",
          "type": "address"
        },
        {
          "indexed": true,
          "internalType": "address",
          "name": "debtAsset",
          "type": "address"
        },
        {
          "indexed": true,
          "internalType": "address",
          "name": "user",
          "type": "address"
        },
        {
          "indexed": false,
          "internalType": "uint256",
          "name": "debtToCover",
          "type": "uint256"
        },
        {
          "indexed": false,
          "internalType": "uint256",
          "name": "liquidatedCollateralAmount",
          "type": "uint256"
        },
        {
          "indexed": false,
          "internalType": "address",
          "name": "liquidator",
          "type": "address"
        },
        {
          "indexed": false,
          "internalType": "bool",
          "name": "receiveAToken",
          "type": "bool"
        }
      ],
      "name": "LiquidationCall",
      "type": "event"
    },
    {
      "anonymous": false,
      "inputs": [
        {
          "indexed": true,
          "internalType": "address",
          "name": "reserve",
          "type": "address"
        },
        {
          "indexed": false,
          "internalType": "address",
          "name": "user",
          "type": "address"
        },
        {
          "indexed": true,
          "internalType": "address",
          "name": "onBehalfOf",
          "type": "address"
        },
        {
          "indexed": false,
          "internalType": "uint256",
          "name": "amount",
          "type": "uint256"
        },
        {
          "indexed": true,
          "internalType": "uint16",
          "name": "referral",
          "type": "uint16"
        }
      ],
      "name": "MintUnbacked",
      "type": "event"
    },
    {
      "anonymous": false,
      "inputs": [
        {
          "indexed": true,
          "internalType": "address",
          "name": "reserve",
          "type": "address"
        },
        {
          "indexed": false,
          "internalType": "uint256",
          "name": "amountMinted",
          "type": "uint256"
        }
      ],
      "name": "MintedToTreasury",
      "type": "event"
    },
    {
      "anonymous": false,
      "inputs": [
        {
          "indexed": true,
          "internalType": "address",
          "name": "reserve",
          "type": "address"
        },
        {
          "indexed": true,
          "internalType": "address",
          "name": "user",
          "type": "address"
        }
      ],
      "name": "RebalanceStableBorrowRate",
      "type": "event"
    },
    {
      "anonymous": false,
      "inputs": [
        {
          "indexed": true,
          "internalType": "address",
          "name": "reserve",
          "type": "address"
        },
        {
          "indexed": true,
          "internalType": "address",
          "name": "user",
          "type": "address"
        },
        {
          "indexed": true,
          "internalType": "address",
          "name": "repayer",
          "type": "address"
        },
        {
          "indexed": false,
          "internalType": "uint256",
          "name": "amount",
          "type": "uint256"
        },
        {
          "indexed": false,
          "internalType": "bool",
          "name": "useATokens",
          "type": "bool"
        }
      ],
      "name": "Repay",
      "type": "event"
    },
    {
      "anonymous": false,
      "inputs": [
        {
          "indexed": true,
          "internalType": "address",
          "name": "reserve",
          "type": "address"
        },
        {
          "indexed": false,
          "internalType": "uint256",
          "name": "liquidityRate",
          "type": "uint256"
        },
        {
          "indexed": false,
          "internalType": "uint256",
          "name": "stableBorrowRate",
          "type": "uint256"
        },
        {
          "indexed": false,
          "internalType": "uint256",
          "name": "variableBorrowRate",
          "type": "uint256"
        },
        {
          "indexed": false,
          "internalType": "uint256",
          "name": "liquidityIndex",
          "type": "uint256"
        },
        {
          "indexed": false,
          "internalType": "uint256",
          "name": "variableBorrowIndex",
          "type": "uint256"
        }
      ],
      "name": "ReserveDataUpdated",
      "type": "event"
    },
    {
      "anonymous": false,
      "inputs": [
        {
          "indexed": true,
          "internalType": "address",
          "name": "reserve",
          "type": "address"
        },
        {
          "indexed": true,
          "internalType": "address",
          "name": "user",
          "type": "address"
        }
      ],
      "name": "ReserveUsedAsCollateralDisabled",
      "type": "event"
    },
    {
      "anonymous": false,
      "inputs": [
        {
          "indexed": true,
          "internalType": "address",
          "name": "reserve",
          "type": "address"
        },
        {
          "indexed": true,
          "internalType": "address",
          "name": "user",
          "type": "address"
        }
      ],
      "name": "ReserveUsedAsCollateralEnabled",
      "type": "event"
    },
    {
      "anonymous": false,
      "inputs": [
        {
          "indexed": true,
          "internalType": "address",
          "name": "reserve",
          "type": "address"
        },
        {
          "indexed": false,
          "internalType": "address",
          "name": "user",
          "type": "address"
        },
        {
          "indexed": true,
          "internalType": "address",
          "name": "onBehalfOf",
          "type": "address"
        },
        {
          "indexed": false,
          "internalType": "uint256",
          "name": "amount",
          "type": "uint256"
        },
        {
          "indexed": true,
          "internalType": "uint16",
          "name": "referralCode",
          "type": "uint16"
        }
      ],
      "name": "Supply",
      "type": "event"
    },
    {
      "anonymous": false,
      "inputs": [
        {
          "indexed": true,
          "internalType": "address",
          "name": "reserve",
          "type": "address"
        },
        {
          "indexed": true,
          "internalType": "address",
          "name": "user",
          "type": "address"
        },
        {
          "indexed": false,
          "internalType": "uint256",
          "name": "rateMode",
          "type": "uint256"
        }
      ],
      "name": "Swap",
      "type": "event"
    },
    {
      "anonymous": false,
      "inputs": [
        {
          "indexed": true,
          "internalType": "address",
          "name": "user",
          "type": "address"
        },
        {
          "indexed": false,
          "internalType": "uint8",
          "name": "categoryId",
          "type": "uint8"
        }
      ],
      "name": "UserEModeSet",
      "type": "event"
    },
    {
      "anonymous": false,
      "inputs": [
        {
          "indexed": true,
          "internalType": "address",
          "name": "reserve",
          "type": "address"
        },
        {
          "indexed": true,
          "internalType": "address",
          "name": "user",
          "type": "address"
        },
        {
          "indexed": true,
          "internalType": "address",
          "name": "to",
          "type": "address"
        },
        {
          "indexed": false,
          "internalType": "uint256",
          "name": "amount",
          "type": "uint256"
        }
      ],
      "name": "Withdraw",
      "type": "event"
    },
    {
      "inputs": [],
      "name": "BRIDGE_PROTOCOL_FEE",
      "outputs": [
        {
          "internalType": "uint256",
          "name": "",
          "type": "uint256"
        }
      ],
      "stateMutability": "view",
      "type": "function"
    },
    {
      "inputs": [],
      "name": "FLASHLOAN_PREMIUM_TOTAL",
      "outputs": [
        {
          "internalType": "uint256",
          "name": "",
          "type": "uint256"
        }
      ],
      "stateMutability": "view",
      "type": "function"
    },
    {
      "inputs": [],
      "name": "FLASHLOAN_PREMIUM_TO_PROTOCOL",
      "outputs": [
        {
          "internalType": "uint256",
          "name": "",
          "type": "uint256"
        }
      ],
      "stateMutability": "view",
      "type": "function"
    },
    {
      "inputs": [],
      "name": "MAX_NUMBER_RESERVES",
      "outputs": [
        {
          "internalType": "uint256",
          "name": "",
          "type": "uint256"
        }
      ],
      "stateMutability": "view",
      "type": "function"
    },
    {
      "inputs": [],
      "name": "MAX_STABLE_RATE_BORROW_SIZE_PERCENT",
      "outputs": [
        {
          "internalType": "uint256",
          "name": "",
          "type": "uint256"
        }
      ],
      "stateMutability": "view",
      "type": "function"
    },
    {
      "inputs": [],
      "name": "POOL_REVISION",
      "outputs": [
        {
          "internalType": "uint256",
          "name": "",
          "type": "uint256"
        }
      ],
      "stateMutability": "view",
      "type": "function"
    },
    {
      "inputs": [
        {
          "internalType": "address",
          "name": "asset",
          "type": "address"
        },
        {
          "internalType": "uint256",
          "name": "amount",
          "type": "uint256"
        },
        {
          "internalType": "uint256",
          "name": "fee",
          "type": "uint256"
        }
      ],
      "name": "backUnbacked",
      "outputs": [],
      "stateMutability": "nonpayable",
      "type": "function"
    },
    {
      "inputs": [
        {
          "internalType": "address",
          "name": "asset",
          "type": "address"
        },
        {
          "internalType": "uint256",
          "name": "amount",
          "type": "uint256"
        },
        {
          "internalType": "uint256",
          "name": "interestRateMode",
          "type": "uint256"
        },
        {
          "internalType": "uint16",
          "name": "referralCode",
          "type": "uint16"
        },
        {
          "internalType": "address",
          "name": "onBehalfOf",
          "type": "address"
        }
      ],
      "name": "borrow",
      "outputs": [],
      "stateMutability": "nonpayable",
      "type": "function"
    },
    {
      "inputs": [
        {
          "internalType": "uint8",
          "name": "id",
          "type": "uint8"
        },
        {
          "components": [
            {
              "internalType": "uint16",
              "name": "ltv",
              "type": "uint16"
            },
            {
              "internalType": "uint16",
              "name": "liquidationThreshold",
              "type": "uint16"
            },
            {
              "internalType": "uint16",
              "name": "liquidationBonus",
              "type": "uint16"
            },
            {
              "internalType": "address",
              "name": "priceSource",
              "type": "address"
            },
            {
              "internalType": "string",
              "name": "label",
              "type": "string"
            }
          ],
          "internalType": "struct DataTypes.EModeCategory",
          "name": "category",
          "type": "tuple"
        }
      ],
      "name": "configureEModeCategory",
      "outputs": [],
      "stateMutability": "nonpayable",
      "type": "function"
    },
    {
      "inputs": [
        {
          "internalType": "address",
          "name": "asset",
          "type": "address"
        },
        {
          "internalType": "uint256",
          "name": "amount",
          "type": "uint256"
        },
        {
          "internalType": "address",
          "name": "onBehalfOf",
          "type": "address"
        },
        {
          "internalType": "uint16",
          "name": "referralCode",
          "type": "uint16"
        }
      ],
      "name": "deposit",
      "outputs": [],
      "stateMutability": "nonpayable",
      "type": "function"
    },
    {
      "inputs": [
        {
          "internalType": "address",
          "name": "asset",
          "type": "address"
        }
      ],
      "name": "dropReserve",
      "outputs": [],
      "stateMutability": "nonpayable",
      "type": "function"
    },
    {
      "inputs": [
        {
          "internalType": "address",
          "name": "asset",
          "type": "address"
        },
        {
          "internalType": "address",
          "name": "from",
          "type": "address"
        },
        {
          "internalType": "address",
          "name": "to",
          "type": "address"
        },
        {
          "internalType": "uint256",
          "name": "amount",
          "type": "uint256"
        },
        {
          "internalType": "uint256",
          "name": "balanceFromBefore",
          "type": "uint256"
        },
        {
          "internalType": "uint256",
          "name": "balanceToBefore",
          "type": "uint256"
        }
      ],
      "name": "finalizeTransfer",
      "outputs": [],
      "stateMutability": "nonpayable",
      "type": "function"
    },
    {
      "inputs": [
        {
          "internalType": "address",
          "name": "receiverAddress",
          "type": "address"
        },
        {
          "internalType": "address[]",
          "name": "assets",
          "type": "address[]"
        },
        {
          "internalType": "uint256[]",
          "name": "amounts",
          "type": "uint256[]"
        },
        {
          "internalType": "uint256[]",
          "name": "modes",
          "type": "uint256[]"
        },
        {
          "internalType": "address",
          "name": "onBehalfOf",
          "type": "address"
        },
        {
          "internalType": "bytes",
          "name": "params",
          "type": "bytes"
        },
        {
          "internalType": "uint16",
          "name": "referralCode",
          "type": "uint16"
        }
      ],
      "name": "flashLoan",
      "outputs": [],
      "stateMutability": "nonpayable",
      "type": "function"
    },
    {
      "inputs": [
        {
          "internalType": "address",
          "name": "receiverAddress",
          "type": "address"
        },
        {
          "internalType": "address",
          "name": "asset",
          "type": "address"
        },
        {
          "internalType": "uint256",
          "name": "amount",
          "type": "uint256"
        },
        {
          "internalType": "bytes",
          "name": "params",
          "type": "bytes"
        },
        {
          "internalType": "uint16",
          "name": "referralCode",
          "type": "uint16"
        }
      ],
      "name": "flashLoanSimple",
      "outputs": [],
      "stateMutability": "nonpayable",
      "type": "function"
    },
    {
      "inputs": [],
      "name": "getAddressesProvider",
      "outputs": [
        {
          "internalType": "contract IPoolAddressesProvider",
          "name": "",
          "type": "address"
        }
      ],
      "stateMutability": "view",
      "type": "function"
    },
    {
      "inputs": [
        {
          "internalType": "address",
          "name": "asset",
          "type": "address"
        }
      ],
      "name": "getConfiguration",
      "outputs": [
        {
          "components": [
            {
              "internalType": "uint256",
              "name": "data",
              "type": "uint256"
            }
          ],
          "internalType": "struct DataTypes.ReserveConfigurationMap",
          "name": "",
          "type": "tuple"
        }
      ],
      "stateMutability": "view",
      "type": "function"
    },
    {
      "inputs": [
        {
          "internalType": "uint8",
          "name": "id",
          "type": "uint8"
        }
      ],
      "name": "getEModeCategoryData",
      "outputs": [
        {
          "components": [
            {
              "internalType": "uint16",
              "name": "ltv",
              "type": "uint16"
            },
            {
              "internalType": "uint16",
              "name": "liquidationThreshold",
              "type": "uint16"
            },
            {
              "internalType": "uint16",
              "name": "liquidationBonus",
              "type": "uint16"
            },
            {
              "internalType": "address",
              "name": "priceSource",
              "type": "address"
            },
            {
              "internalType": "string",
              "name": "label",
              "type": "string"
            }
          ],
          "internalType": "struct DataTypes.EModeCategory",
          "name": "",
          "type": "tuple"
        }
      ],
      "stateMutability": "view",
      "type": "function"
    },
    {
      "inputs": [
        {
          "internalType": "address",
          "name": "asset",
          "type": "address"
        }
      ],
      "name": "getReserveData",
      "outputs": [
        {
          "components": [
            {
              "components": [
                {
                  "internalType": "uint256",
                  "name": "data",
                  "type": "uint256"
                }
              ],
              "internalType": "struct DataTypes.ReserveConfigurationMap",
              "name": "configuration",
              "type": "tuple"
            },
            {
              "internalType": "uint128",
              "name": "liquidityIndex",
              "type": "uint128"
            },
            {
              "internalType": "uint128",
              "name": "currentLiquidityRate",
              "type": "uint128"
            },
            {
              "internalType": "uint128",
              "name": "variableBorrowIndex",
              "type": "uint128"
            },
            {
              "internalType": "uint128",
              "name": "currentVariableBorrowRate",
              "type": "uint128"
            },
            {
              "internalType": "uint128",
              "name": "currentStableBorrowRate",
              "type": "uint128"
            },
            {
              "internalType": "uint40",
              "name": "lastUpdateTimestamp",
              "type": "uint40"
            },
            {
              "internalType": "uint16",
              "name": "id",
              "type": "uint16"
            },
            {
              "internalType": "address",
              "name": "aTokenAddress",
              "type": "address"
            },
            {
              "internalType": "address",
              "name": "stableDebtTokenAddress",
              "type": "address"
            },
            {
              "internalType": "address",
              "name": "variableDebtTokenAddress",
              "type": "address"
            },
            {
              "internalType": "address",
              "name": "interestRateStrategyAddress",
              "type": "address"
            },
            {
              "internalType": "uint128",
              "name": "accruedToTreasury",
              "type": "uint128"
            },
            {
              "internalType": "uint128",
              "name": "unbacked",
              "type": "uint128"
            },
            {
              "internalType": "uint128",
              "name": "isolationModeTotalDebt",
              "type": "uint128"
            }
          ],
          "internalType": "struct DataTypes.ReserveData",
          "name": "",
          "type": "tuple"
        }
      ],
      "stateMutability": "view",
      "type": "function"
    },
    {
      "inputs": [
        {
          "internalType": "address",
          "name": "asset",
          "type": "address"
        }
      ],
      "name": "getReserveNormalizedIncome",
      "outputs": [
        {
          "internalType": "uint256",
          "name": "",
          "type": "uint256"
        }
      ],
      "stateMutability": "view",
      "type": "function"
    },
    {
      "inputs": [
        {
          "internalType": "address",
          "name": "asset",
          "type": "address"
        }
      ],
      "name": "getReserveNormalizedVariableDebt",
      "outputs": [
        {
          "internalType": "uint256",
          "name": "",
          "type": "uint256"
        }
      ],
      "stateMutability": "view",
      "type": "function"
    },
    {
      "inputs": [],
      "name": "getReservesList",
      "outputs": [
        {
          "internalType": "address[]",
          "name": "",
          "type": "address[]"
        }
      ],
      "stateMutability": "view",
      "type": "function"
    },
    {
      "inputs": [
        {
          "internalType": "address",
          "name": "user",
          "type": "address"
        }
      ],
      "name": "getUserAccountData",
      "outputs": [
        {
          "internalType": "uint256",
          "name": "totalCollateralBase",
          "type": "uint256"
        },
        {
          "internalType": "uint256",
          "name": "totalDebtBase",
          "type": "uint256"
        },
        {
          "internalType": "uint256",
          "name": "availableBorrowsBase",
          "type": "uint256"
        },
        {
          "internalType": "uint256",
          "name": "currentLiquidationThreshold",
          "type": "uint256"
        },
        {
          "internalType": "uint256",
          "name": "ltv",
          "type": "uint256"
        },
        {
          "internalType": "uint256",
          "name": "healthFactor",
          "type": "uint256"
        }
      ],
      "stateMutability": "view",
      "type": "function"
    },
    {
      "inputs": [
        {
          "internalType": "address",
          "name": "user",
          "type": "address"
        }
      ],
      "name": "getUserConfiguration",
      "outputs": [
        {
          "components": [
            {
              "internalType": "uint256",
              "name": "data",
              "type": "uint256"
            }
          ],
          "internalType": "struct DataTypes.UserConfigurationMap",
          "name": "",
          "type": "tuple"
        }
      ],
      "stateMutability": "view",
      "type": "function"
    },
    {
      "inputs": [
        {
          "internalType": "address",
          "name": "user",
          "type": "address"
        }
      ],
      "name": "getUserEMode",
      "outputs": [
        {
          "internalType": "uint256",
          "name": "",
          "type": "uint256"
        }
      ],
      "stateMutability": "view",
      "type": "function"
    },
    {
      "inputs": [
        {
          "internalType": "address",
          "name": "asset",
          "type": "address"
        },
        {
          "internalType": "address",
          "name": "aTokenAddress",
          "type": "address"
        },
        {
          "internalType": "address",
          "name": "stableDebtAddress",
          "type": "address"
        },
        {
          "internalType": "address",
          "name": "variableDebtAddress",
          "type": "address"
        },
        {
          "internalType": "address",
          "name": "interestRateStrategyAddress",
          "type": "address"
        }
      ],
      "name": "initReserve",
      "outputs": [],
      "stateMutability": "nonpayable",
      "type": "function"
    },
    {
      "inputs": [
        {
          "internalType": "contract IPoolAddressesProvider",
          "name": "provider",
          "type": "address"
        }
      ],
      "name": "initialize",
      "outputs": [],
      "stateMutability": "nonpayable",
      "type": "function"
    },
    {
      "inputs": [
        {
          "internalType": "address",
          "name": "collateralAsset",
          "type": "address"
        },
        {
          "internalType": "address",
          "name": "debtAsset",
          "type": "address"
        },
        {
          "internalType": "address",
          "name": "user",
          "type": "address"
        },
        {
          "internalType": "uint256",
          "name": "debtToCover",
          "type": "uint256"
        },
        {
          "internalType": "bool",
          "name": "receiveAToken",
          "type": "bool"
        }
      ],
      "name": "liquidationCall",
      "outputs": [],
      "stateMutability": "nonpayable",
      "type": "function"
    },
    {
      "inputs": [
        {
          "internalType": "address[]",
          "name": "assets",
          "type": "address[]"
        }
      ],
      "name": "mintToTreasury",
      "outputs": [],
      "stateMutability": "nonpayable",
      "type": "function"
    },
    {
      "inputs": [
        {
          "internalType": "address",
          "name": "asset",
          "type": "address"
        },
        {
          "internalType": "uint256",
          "name": "amount",
          "type": "uint256"
        },
        {
          "internalType": "address",
          "name": "onBehalfOf",
          "type": "address"
        },
        {
          "internalType": "uint16",
          "name": "referralCode",
          "type": "uint16"
        }
      ],
      "name": "mintUnbacked",
      "outputs": [],
      "stateMutability": "nonpayable",
      "type": "function"
    },
    {
      "inputs": [
        {
          "internalType": "address",
          "name": "asset",
          "type": "address"
        },
        {
          "internalType": "address",
          "name": "user",
          "type": "address"
        }
      ],
      "name": "rebalanceStableBorrowRate",
      "outputs": [],
      "stateMutability": "nonpayable",
      "type": "function"
    },
    {
      "inputs": [
        {
          "internalType": "address",
          "name": "asset",
          "type": "address"
        },
        {
          "internalType": "uint256",
          "name": "amount",
          "type": "uint256"
        },
        {
          "internalType": "uint256",
          "name": "rateMode",
          "type": "uint256"
        },
        {
          "internalType": "address",
          "name": "onBehalfOf",
          "type": "address"
        }
      ],
      "name": "repay",
      "outputs": [
        {
          "internalType": "uint256",
          "name": "",
          "type": "uint256"
        }
      ],
      "stateMutability": "nonpayable",
      "type": "function"
    },
    {
      "inputs": [
        {
          "internalType": "address",
          "name": "asset",
          "type": "address"
        },
        {
          "internalType": "uint256",
          "name": "amount",
          "type": "uint256"
        },
        {
          "internalType": "uint256",
          "name": "rateMode",
          "type": "uint256"
        }
      ],
      "name": "repayWithATokens",
      "outputs": [
        {
          "internalType": "uint256",
          "name": "",
          "type": "uint256"
        }
      ],
      "stateMutability": "nonpayable",
      "type": "function"
    },
    {
      "inputs": [
        {
          "internalType": "address",
          "name": "asset",
          "type": "address"
        },
        {
          "internalType": "uint256",
          "name": "amount",
          "type": "uint256"
        },
        {
          "internalType": "uint256",
          "name": "rateMode",
          "type": "uint256"
        },
        {
          "internalType": "address",
          "name": "onBehalfOf",
          "type": "address"
        },
        {
          "internalType": "uint256",
          "name": "deadline",
          "type": "uint256"
        },
        {
          "internalType": "uint8",
          "name": "permitV",
          "type": "uint8"
        },
        {
          "internalType": "bytes32",
          "name": "permitR",
          "type": "bytes32"
        },
        {
          "internalType": "bytes32",
          "name": "permitS",
          "type": "bytes32"
        }
      ],
      "name": "repayWithPermit",
      "outputs": [
        {
          "internalType": "uint256",
          "name": "",
          "type": "uint256"
        }
      ],
      "stateMutability": "nonpayable",
      "type": "function"
    },
    {
      "inputs": [
        {
          "internalType": "address",
          "name": "asset",
          "type": "address"
        },
        {
          "internalType": "uint256",
          "name": "configuration",
          "type": "uint256"
        }
      ],
      "name": "setConfiguration",
      "outputs": [],
      "stateMutability": "nonpayable",
      "type": "function"
    },
    {
      "inputs": [
        {
          "internalType": "address",
          "name": "asset",
          "type": "address"
        },
        {
          "internalType": "address",
          "name": "rateStrategyAddress",
          "type": "address"
        }
      ],
      "name": "setReserveInterestRateStrategyAddress",
      "outputs": [],
      "stateMutability": "nonpayable",
      "type": "function"
    },
    {
      "inputs": [
        {
          "internalType": "uint8",
          "name": "categoryId",
          "type": "uint8"
        }
      ],
      "name": "setUserEMode",
      "outputs": [],
      "stateMutability": "nonpayable",
      "type": "function"
    },
    {
      "inputs": [
        {
          "internalType": "address",
          "name": "asset",
          "type": "address"
        },
        {
          "internalType": "bool",
          "name": "useAsCollateral",
          "type": "bool"
        }
      ],
      "name": "setUserUseReserveAsCollateral",
      "outputs": [],
      "stateMutability": "nonpayable",
      "type": "function"
    },
    {
      "inputs": [
        {
          "internalType": "address",
          "name": "asset",
          "type": "address"
        },
        {
          "internalType": "uint256",
          "name": "amount",
          "type": "uint256"
        },
        {
          "internalType": "address",
          "name": "onBehalfOf",
          "type": "address"
        },
        {
          "internalType": "uint16",
          "name": "referralCode",
          "type": "uint16"
        }
      ],
      "name": "supply",
      "outputs": [],
      "stateMutability": "nonpayable",
      "type": "function"
    },
    {
      "inputs": [
        {
          "internalType": "address",
          "name": "asset",
          "type": "address"
        },
        {
          "internalType": "uint256",
          "name": "amount",
          "type": "uint256"
        },
        {
          "internalType": "address",
          "name": "onBehalfOf",
          "type": "address"
        },
        {
          "internalType": "uint16",
          "name": "referralCode",
          "type": "uint16"
        },
        {
          "internalType": "uint256",
          "name": "deadline",
          "type": "uint256"
        },
        {
          "internalType": "uint8",
          "name": "permitV",
          "type": "uint8"
        },
        {
          "internalType": "bytes32",
          "name": "permitR",
          "type": "bytes32"
        },
        {
          "internalType": "bytes32",
          "name": "permitS",
          "type": "bytes32"
        }
      ],
      "name": "supplyWithPermit",
      "outputs": [],
      "stateMutability": "nonpayable",
      "type": "function"
    },
    {
      "inputs": [
        {
          "internalType": "address",
          "name": "asset",
          "type": "address"
        },
        {
          "internalType": "uint256",
          "name": "rateMode",
          "type": "uint256"
        }
      ],
      "name": "swapBorrowRateMode",
      "outputs": [],
      "stateMutability": "nonpayable",
      "type": "function"
    },
    {
      "inputs": [
        {
          "internalType": "uint256",
          "name": "protocolFee",
          "type": "uint256"
        }
      ],
      "name": "updateBridgeProtocolFee",
      "outputs": [],
      "stateMutability": "nonpayable",
      "type": "function"
    },
    {
      "inputs": [
        {
          "internalType": "uint256",
          "name": "flashLoanPremiumTotal",
          "type": "uint256"
        },
        {
          "internalType": "uint256",
          "name": "flashLoanPremiumToProtocol",
          "type": "uint256"
        }
      ],
      "name": "updateFlashloanPremiums",
      "outputs": [],
      "stateMutability": "nonpayable",
      "type": "function"
    },
    {
      "inputs": [
        {
          "internalType": "address",
          "name": "asset",
          "type": "address"
        },
        {
          "internalType": "uint256",
          "name": "amount",
          "type": "uint256"
        },
        {
          "internalType": "address",
          "name": "to",
          "type": "address"
        }
      ],
      "name": "withdraw",
      "outputs": [
        {
          "internalType": "uint256",
          "name": "",
          "type": "uint256"
        }
      ],
      "stateMutability": "nonpayable",
      "type": "function"
    }
  ],
  "bytecode": "0x60a0604052600080553480156200001557600080fd5b5060405162005c0e38038062005c0e83398101604081905262000038916200004a565b6001600160a01b03166080526200007c565b6000602082840312156200005d57600080fd5b81516001600160a01b03811681146200007557600080fd5b9392505050565b608051615b1b620000f3600039600081816108890152818161093801528181610a1001528181610dc70152818161132a0152818161172a01528181611e2d01528181611ef301528181612112015281816123af0152818161256901528181612b5401528181612f47015261342b0152615b1b6000f3fe608060405234801561001057600080fd5b50600436106102e85760003560e01c80636c6f6ae111610191578063d15e0053116100e3578063e82fec2f11610097578063ee3e210b11610071578063ee3e210b14610862578063f8119d5114610875578063fe65acfe1461087c57600080fd5b8063e82fec2f14610824578063e8eda9df1461060f578063eddf1b791461083657600080fd5b8063d579ea7d116100c8578063d579ea7d146107eb578063d5ed3933146107fe578063d65dc7a11461081157600080fd5b8063d15e0053146107c3578063d1946dbc146107d657600080fd5b8063ab9c4b5d11610145578063c44b11f71161011f578063c44b11f71461075b578063c4d66de81461079d578063cd112382146107b057600080fd5b8063ab9c4b5d146106f5578063b8d2927614610708578063bf92857c1461071b57600080fd5b806394ba89a21161017657806394ba89a2146106bc5780639cd19996146106cf578063a415bcad146106e257600080fd5b80636c6f6ae1146106895780637a708e92146106a957600080fd5b806335ea6a751161024a5780635a3b74b9116101fe57806369328dec116101d857806369328dec1461063557806369a933a5146106485780636a99c0361461065b57600080fd5b80635a3b74b9146105fc578063617ba0371461060f57806363c9b8601461062257600080fd5b806342b0b77c1161022f57806342b0b77c146105855780634417a58314610598578063573ade81146105e957600080fd5b806335ea6a75146103b1578063386497fd1461057257600080fd5b80631d2118f9116102a157806328530a471161028657806328530a47146103785780632dad97d41461038b5780633036b4391461039e57600080fd5b80631d2118f91461035d578063272d90721461037057600080fd5b806302c205f0116102d257806302c205f01461031d578063074b2e43146103305780631b350b9b1461034a57600080fd5b8062a718a9146102ed5780630148170e14610302575b600080fd5b6103006102fb366004614872565b6108b3565b005b61030a600281565b6040519081526020015b60405180910390f35b61030061032b3660046148fd565b610ae0565b603a546fffffffffffffffffffffffffffffffff1661030a565b61030061035836600461497c565b610c76565b61030061036b36600461499e565b610d08565b60395461030a565b6103006103863660046149d7565b610d59565b61030a6103993660046149f2565b610ef7565b6103006103ac366004614a27565b611021565b6105656103bf366004614a40565b604080516102008101825260006101e08201818152825260208201819052918101829052606081018290526080810182905260a0810182905260c0810182905260e08101829052610100810182905261012081018290526101408101829052610160810182905261018081018290526101a081018290526101c0810191909152506001600160a01b0390811660009081526034602090815260409182902082516102008101845281546101e08201908152815260018201546fffffffffffffffffffffffffffffffff80821694830194909452700100000000000000000000000000000000908190048416948201949094526002820154808416606083015284900483166080820152600382015480841660a083015284810464ffffffffff1660c08301527501000000000000000000000000000000000000000000900461ffff1660e0820152600482015485166101008201526005820154851661012082015260068201548516610140820152600782015490941661016085015260088101548083166101808601529290920481166101a0840152600990910154166101c082015290565b6040516103149190614a5d565b61030a610580366004614a40565b61102e565b610300610593366004614c16565b611055565b6105da6105a6366004614a40565b60408051602080820183526000918290526001600160a01b0393909316815260358352819020815192830190915254815290565b60405190518152602001610314565b61030a6105f7366004614c98565b6111a8565b61030061060a366004614ce2565b6112d0565b61030061061d366004614d10565b611471565b610300610630366004614a40565b611567565b61030a610643366004614d61565b611698565b610300610656366004614d10565b611869565b603a5470010000000000000000000000000000000090046fffffffffffffffffffffffffffffffff1661030a565b61069c6106973660046149d7565b611926565b6040516103149190614e0e565b6103006106b7366004614e64565b611a53565b6103006106ca366004614ec7565b611b0a565b6103006106dd366004614f38565b611b99565b6103006106f0366004614f7a565b611d59565b610300610703366004614fb9565b611f8c565b610300610716366004614ec7565b612304565b61072e610729366004614a40565b612328565b604080519687526020870195909552938501929092526060840152608083015260a082015260c001610314565b6105da610769366004614a40565b60408051602080820183526000918290526001600160a01b0393909316815260348352819020815192830190915254815290565b6103006107ab366004614a40565b61247f565b6103006107be36600461499e565b61266f565b61030a6107d1366004614a40565b6126eb565b6107de61270c565b60405161031491906150b3565b6103006107f93660046151a7565b6128da565b61030061080c3660046152df565b612a39565b61030061081f3660046149f2565b612cae565b603b5467ffffffffffffffff1661030a565b61030a610844366004614a40565b6001600160a01b031660009081526038602052604090205460ff1690565b61030a610870366004615344565b612d6f565b608061030a565b6040516001600160a01b037f0000000000000000000000000000000000000000000000000000000000000000168152602001610314565b73__$f598c634f2d943205ac23f707b80075cbb$__63bdcb2b8d6034603560366037604051806101200160405280603b60089054906101000a900461ffff1661ffff1681526020018981526020018c6001600160a01b031681526020018b6001600160a01b031681526020018a6001600160a01b0316815260200188151581526020017f00000000000000000000000000000000000000000000000000000000000000006001600160a01b031663fca513a86040518163ffffffff1660e01b8152600401602060405180830381865afa158015610994573d6000803e3d6000fd5b505050506040513d601f19601f820116820180604052508101906109b8919061538a565b6001600160a01b0390811682528b81166000908152603860209081526040918290205460ff168185015281517f5eb88d3d000000000000000000000000000000000000000000000000000000008152825192909401937f000000000000000000000000000000000000000000000000000000000000000090931692635eb88d3d92600480830193928290030181865afa158015610a59573d6000803e3d6000fd5b505050506040513d601f19601f82011682018060405250810190610a7d919061538a565b6001600160a01b03168152506040518663ffffffff1660e01b8152600401610aa99594939291906153a7565b60006040518083038186803b158015610ac157600080fd5b505af4158015610ad5573d6000803e3d6000fd5b505050505050505050565b6040517fd505accf000000000000000000000000000000000000000000000000000000008152336004820152306024820152604481018890526064810185905260ff8416608482015260a4810183905260c481018290526001600160a01b0389169063d505accf9060e401600060405180830381600087803b158015610b6557600080fd5b505af1158015610b79573d6000803e3d6000fd5b505050506001600160a01b0386811660008181526035602090815260409182902082516080810184528d861681529182018c815282840194855261ffff8b81166060850190815294517f1913f16100000000000000000000000000000000000000000000000000000000815260346004820152603660248201526044810193909352925186166064830152516084820152925190931660a48301525190911660c482015273__$db79717e66442ee197e8271d032a066e34$__90631913f1619060e40160006040518083038186803b158015610c5457600080fd5b505af4158015610c68573d6000803e3d6000fd5b505050505050505050505050565b610c7e612f3b565b610c8782613042565b603a80547fffffffffffffffffffffffffffffffff00000000000000000000000000000000166fffffffffffffffffffffffffffffffff92909216919091179055610cd181613042565b603a80546fffffffffffffffffffffffffffffffff9283167001000000000000000000000000000000000292169190911790555050565b610d10612f3b565b6001600160a01b03918216600090815260346020526040902060070180547fffffffffffffffffffffffff00000000000000000000000000000000000000001691909216179055565b73__$e4b9550ff526a295e1233dea02821b9004$__635d5dc313603460366037603860356000336001600160a01b03166001600160a01b031681526020019081526020016000206040518060600160405280603b60089054906101000a900461ffff1661ffff1681526020017f00000000000000000000000000000000000000000000000000000000000000006001600160a01b031663fca513a86040518163ffffffff1660e01b8152600401602060405180830381865afa158015610e23573d6000803e3d6000fd5b505050506040513d601f19601f82011682018060405250810190610e47919061538a565b6001600160a01b031681526020018960ff168152506040518763ffffffff1660e01b8152600401610ec49695949392919095865260208087019590955260408087019490945260608601929092526080850152805160a0850152918201516001600160a01b031660c0840152015160ff1660e08201526101000190565b60006040518083038186803b158015610edc57600080fd5b505af4158015610ef0573d6000803e3d6000fd5b5050505050565b6001600160a01b0383811660008181526034602081815260408084203380865260358452828620835160a0810185529788529387018a81528784018a815260608901928352600160808a0190815294517f7aa681a900000000000000000000000000000000000000000000000000000000815260048101979097526036602488015260448701939093526064860194909452955187166084850152915160a4840152905160c4830152925190931660e4840152905115156101048301529073__$c3724b8d563dc83a94e797176cddecb3b9$__90637aa681a990610124015b602060405180830381865af4158015610ff3573d6000803e3d6000fd5b505050506040513d601f19601f820116820180604052508101906110179190615461565b90505b9392505050565b611029612f3b565b603955565b6001600160a01b038116600090815260346020526040812061104f906130cb565b92915050565b60006040518060e00160405280886001600160a01b03168152602001876001600160a01b0316815260200186815260200185858080601f016020809104026020016040519081016040528093929190818152602001838380828437600092018290525093855250505061ffff8516602080840191909152603a546fffffffffffffffffffffffffffffffff7001000000000000000000000000000000008204811660408087019190915291166060909401939093526001600160a01b038a1682526034905281902090517fa1fe0e8d00000000000000000000000000000000000000000000000000000000815291925073__$d5ddd09ae98762b8929dd85e54b218e259$__9163a1fe0e8d9161116f91859060040161547a565b60006040518083038186803b15801561118757600080fd5b505af415801561119b573d6000803e3d6000fd5b5050505050505050505050565b6001600160a01b03848116600081815260346020818152604080842087871680865260358452828620835160a0810185529788529387018b81528784018b8152606089019283526080890188815294517f7aa681a900000000000000000000000000000000000000000000000000000000815260048101979097526036602488015260448701939093526064860194909452955187166084850152915160a4840152905160c4830152925190931660e4840152905115156101048301529073__$c3724b8d563dc83a94e797176cddecb3b9$__90637aa681a99061012401602060405180830381865af41580156112a3573d6000803e3d6000fd5b505050506040513d601f19601f820116820180604052508101906112c79190615461565b95945050505050565b73__$db79717e66442ee197e8271d032a066e34$__63bf697a2660346036603760356000336001600160a01b03166001600160a01b031681526020019081526020016000208787603b60089054906101000a900461ffff167f00000000000000000000000000000000000000000000000000000000000000006001600160a01b031663fca513a86040518163ffffffff1660e01b8152600401602060405180830381865afa158015611386573d6000803e3d6000fd5b505050506040513d601f19601f820116820180604052508101906113aa919061538a565b336000908152603860205260409081902054905160e08b901b7fffffffff0000000000000000000000000000000000000000000000000000000016815260048101999099526024890197909752604488019590955260648701939093526001600160a01b039182166084870152151560a486015261ffff90911660c48501521660e483015260ff16610104820152610124015b60006040518083038186803b15801561145557600080fd5b505af4158015611469573d6000803e3d6000fd5b505050505050565b6001600160a01b038281166000818152603560209081526040918290208251608081018452898616815291820188815282840194855261ffff8781166060850190815294517f1913f16100000000000000000000000000000000000000000000000000000000815260346004820152603660248201526044810193909352925186166064830152516084820152925190931660a48301525190911660c482015273__$db79717e66442ee197e8271d032a066e34$__90631913f1619060e4015b60006040518083038186803b15801561154957600080fd5b505af415801561155d573d6000803e3d6000fd5b5050505050505050565b61156f612f3b565b6001600160a01b038116600090815260346020526040902061159081613164565b506001600160a01b031660008181526034602081815260408084206003810180547501000000000000000000000000000000000000000000900461ffff1686526036845291852080547fffffffffffffffffffffffff000000000000000000000000000000000000000090811690915595855292909152828255600182018390556002820183905580547fffffffffffffffffff0000000000000000000000000000000000000000000000169055600481018054841690556005810180548416905560068101805484169055600781018054909316909255600882015560090180547fffffffffffffffffffffffffffffffff00000000000000000000000000000000169055565b600073__$db79717e66442ee197e8271d032a066e34$__63186dea4460346036603760356000336001600160a01b03166001600160a01b031681526020019081526020016000206040518060c001604052808b6001600160a01b031681526020018a8152602001896001600160a01b03168152602001603b60089054906101000a900461ffff1661ffff1681526020017f00000000000000000000000000000000000000000000000000000000000000006001600160a01b031663fca513a86040518163ffffffff1660e01b8152600401602060405180830381865afa158015611786573d6000803e3d6000fd5b505050506040513d601f19601f820116820180604052508101906117aa919061538a565b6001600160a01b039081168252336000908152603860209081526040918290205460ff90811694820194909452815160e08b901b7fffffffff0000000000000000000000000000000000000000000000000000000016815260048101999099526024890197909752604488019590955260648701939093528151831660848701529381015160a486015291820151811660c4850152606082015160e485015260808201511661010484015260a001511661012482015261014401610fd6565b611871613429565b6001600160a01b03848116600081815260346020818152604080842095881680855260359092529283902092517f861803fd00000000000000000000000000000000000000000000000000000000815260048101929092526036602483015260448201949094526064810191909152608481019190915260a4810185905260c481019190915261ffff821660e482015273__$b06080f092f400a43662c3f835a4d9baa8$__9063861803fd9061010401611531565b6040805160a081018252600080825260208201819052918101829052606080820192909252608081019190915260ff8216600090815260376020908152604091829020825160a081018452815461ffff808216835262010000820481169483019490945264010000000081049093169381019390935266010000000000009091046001600160a01b031660608301526001810180546080840191906119ca906154f8565b80601f01602080910402602001604051908101604052809291908181526020018280546119f6906154f8565b8015611a435780601f10611a1857610100808354040283529160200191611a43565b820191906000526020600020905b815481529060010190602001808311611a2657829003601f168201915b5050505050815250509050919050565b611a5b612f3b565b611a648561359c565b6040518060400160405280600281526020017f373800000000000000000000000000000000000000000000000000000000000081525090611adb576040517f08c379a0000000000000000000000000000000000000000000000000000000008152600401611ad2919061554c565b60405180910390fd5b506001600160a01b0385166000908152603460205260409020611b0190858585856135d5565b610ef08561370e565b6001600160a01b038216600081815260346020908152604080832033845260359092529182902091517fbda118200000000000000000000000000000000000000000000000000000000081526004810191909152602481019190915260448101919091526064810182905273__$c3724b8d563dc83a94e797176cddecb3b9$__9063bda118209060840161143d565b60005b81811015611d54576000838383818110611bb857611bb861555f565b9050602002016020810190611bcd9190614a40565b6001600160a01b03811660009081526034602090815260409182902082519182019092528154908190529192509067010000000000000016611c10575050611d42565b60088101546fffffffffffffffffffffffffffffffff168015611d3e576008820180547fffffffffffffffffffffffffffffffff000000000000000000000000000000001690556000611c6283613a30565b90506000611c708383613abb565b6004808601546040517f7df5bd3b0000000000000000000000000000000000000000000000000000000081529293506001600160a01b031691637df5bd3b91611cc6918591879101918252602082015260400190565b600060405180830381600087803b158015611ce057600080fd5b505af1158015611cf4573d6000803e3d6000fd5b50505050846001600160a01b03167fbfa21aa5d5f9a1f0120a95e7c0749f389863cbdbfff531aa7339077a5bc919de82604051611d3391815260200190565b60405180910390a250505b5050505b80611d4c816155bd565b915050611b9c565b505050565b6001600160a01b038082166000818152603560209081526040918290208251610180810184528a86168152338184015280840194909452606084018990526080840188905261ffff80881660a0860152600160c0860152603b5467ffffffffffffffff811660e08701526801000000000000000090041661010085015282517ffca513a8000000000000000000000000000000000000000000000000000000008152925173__$c3724b8d563dc83a94e797176cddecb3b9$__95631e6473f9956034956036956037959492936101208501937f00000000000000000000000000000000000000000000000000000000000000009091169263fca513a89260048083019391928290030181865afa158015611e77573d6000803e3d6000fd5b505050506040513d601f19601f82011682018060405250810190611e9b919061538a565b6001600160a01b0390811682528981166000908152603860209081526040918290205460ff168185015281517f5eb88d3d000000000000000000000000000000000000000000000000000000008152825192909401937f000000000000000000000000000000000000000000000000000000000000000090931692635eb88d3d92600480830193928290030181865afa158015611f3c573d6000803e3d6000fd5b505050506040513d601f19601f82011682018060405250810190611f60919061538a565b6001600160a01b03168152506040518663ffffffff1660e01b8152600401610aa99594939291906155f6565b6000604051806101c001604052808d6001600160a01b031681526020018c8c808060200260200160405190810160405280939291908181526020018383602002808284376000920191909152505050908252506040805160208c810282810182019093528c82529283019290918d918d9182918501908490808284376000920191909152505050908252506040805160208a810282810182019093528a82529283019290918b918b9182918501908490808284376000920191909152505050908252506001600160a01b03871660208083019190915260408051601f88018390048302810183018252878152920191908790879081908401838280828437600092018290525093855250505061ffff808616602080850191909152603a546fffffffffffffffffffffffffffffffff7001000000000000000000000000000000008204811660408088019190915291166060860152603b5467ffffffffffffffff8116608087015268010000000000000000900490921660a08501526001600160a01b037f0000000000000000000000000000000000000000000000000000000000000000811660c08601819052908b16845260388252928290205460ff1660e085015281517f707cd71600000000000000000000000000000000000000000000000000000000815291516101009094019363707cd7169260048082019392918290030181865afa1580156121a5573d6000803e3d6000fd5b505050506040513d601f19601f820116820180604052508101906121c9919061538a565b6040517ffa50f2970000000000000000000000000000000000000000000000000000000081523360048201526001600160a01b03919091169063fa50f29790602401602060405180830381865afa158015612228573d6000803e3d6000fd5b505050506040513d601f19601f8201168201806040525081019061224c91906156e3565b151590526001600160a01b0386166000908152603560205260409081902090517f2e7263ea00000000000000000000000000000000000000000000000000000000815291925073__$d5ddd09ae98762b8929dd85e54b218e259$__91632e7263ea916122c691603491603691603791908890600401615774565b60006040518083038186803b1580156122de57600080fd5b505af41580156122f2573d6000803e3d6000fd5b50505050505050505050505050505050565b61230c612f3b565b6001600160a01b03909116600090815260346020526040902055565b60008060008060008061245b6034603660376040518060a00160405280603560008e6001600160a01b03166001600160a01b031681526020019081526020016000206040518060200160405290816000820154815250508152602001603b60089054906101000a900461ffff1661ffff1681526020018c6001600160a01b031681526020017f00000000000000000000000000000000000000000000000000000000000000006001600160a01b031663fca513a86040518163ffffffff1660e01b8152600401602060405180830381865afa15801561240b573d6000803e3d6000fd5b505050506040513d601f19601f8201168201806040525081019061242f919061538a565b6001600160a01b0390811682528d1660009081526038602090815260409091205460ff16910152613b12565b50939950919750909450925090506124748686846143e0565b935091939550919395565b60015460029060ff16806124925750303b155b8061249e575060005481115b61252a576040517f08c379a000000000000000000000000000000000000000000000000000000000815260206004820152602e60248201527f436f6e747261637420696e7374616e63652068617320616c726561647920626560448201527f656e20696e697469616c697a65640000000000000000000000000000000000006064820152608401611ad2565b60015460ff1615801561256757600180547fffffffffffffffffffffffffffffffffffffffffffffffffffffffffffffff00168117905560008290555b7f00000000000000000000000000000000000000000000000000000000000000006001600160a01b0316836001600160a01b0316146040518060400160405280600281526020017f37350000000000000000000000000000000000000000000000000000000000008152509061260a576040517f08c379a0000000000000000000000000000000000000000000000000000000008152600401611ad2919061554c565b50603b80547fffffffffffffffffffffffffffffffffffffffffffffffff0000000000000000166109c41790556009603a558015611d5457600180547fffffffffffffffffffffffffffffffffffffffffffffffffffffffffffffff00169055505050565b6001600160a01b038281166000818152603460205260409081902090517f61b15d3200000000000000000000000000000000000000000000000000000000815260048101919091526024810191909152908216604482015273__$c3724b8d563dc83a94e797176cddecb3b9$__906361b15d329060640161143d565b6001600160a01b038116600090815260346020526040812061104f90613a30565b603b5460609068010000000000000000900461ffff166000808267ffffffffffffffff81111561273e5761273e615100565b604051908082528060200260200182016040528015612767578160200160208202803683370190505b50905060005b8381101561280a576000818152603660205260409020546001600160a01b0316156127ea576000818152603660205260409020546001600160a01b0316826127b585846158ff565b815181106127c5576127c561555f565b60200260200101906001600160a01b031690816001600160a01b0316815250506127f8565b826127f4816155bd565b9350505b80612802816155bd565b91505061276d565b5081612817579392505050565b600061282383856158ff565b67ffffffffffffffff81111561283b5761283b615100565b604051908082528060200260200182016040528015612864578160200160208202803683370190505b50905060005b61287484866158ff565b8110156128d15782818151811061288d5761288d61555f565b60200260200101518282815181106128a7576128a761555f565b6001600160a01b0390921660209283029190910190910152806128c9816155bd565b91505061286a565b50949350505050565b6128e2612f3b565b60408051808201909152600281527f3938000000000000000000000000000000000000000000000000000000000000602082015260ff8316612951576040517f08c379a0000000000000000000000000000000000000000000000000000000008152600401611ad2919061554c565b5060ff821660009081526037602090815260409182902083518154838601519486015160608701516001600160a01b03166601000000000000027fffffffffffff0000000000000000000000000000000000000000ffffffffffff61ffff92831664010000000002167fffffffffffff00000000000000000000000000000000000000000000ffffffff97831662010000027fffffffffffffffffffffffffffffffffffffffffffffffffffffffff00000000909416929094169190911791909117949094161792909217825560808301518051849392610ef09260018501929101906147a6565b6001600160a01b03868116600090815260346020908152604091829020600401548251808401909352600283527f3633000000000000000000000000000000000000000000000000000000000000918301919091529091163314612aca576040517f08c379a0000000000000000000000000000000000000000000000000000000008152600401611ad2919061554c565b5073__$db79717e66442ee197e8271d032a066e34$__63d4d954b360346036603760356040518061014001604052808d6001600160a01b031681526020018c6001600160a01b031681526020018b6001600160a01b031681526020018a8152602001898152602001888152602001603b60089054906101000a900461ffff1661ffff1681526020017f00000000000000000000000000000000000000000000000000000000000000006001600160a01b031663fca513a86040518163ffffffff1660e01b8152600401602060405180830381865afa158015612bb0573d6000803e3d6000fd5b505050506040513d601f19601f82011682018060405250810190612bd4919061538a565b6001600160a01b03168152602001603860008e6001600160a01b03166001600160a01b0316815260200190815260200160002060009054906101000a900460ff1660ff168152602001603860008d6001600160a01b03166001600160a01b0316815260200190815260200160002060009054906101000a900460ff1660ff168152506040518663ffffffff1660e01b8152600401612c76959493929190615916565b60006040518083038186803b158015612c8e57600080fd5b505af4158015612ca2573d6000803e3d6000fd5b50505050505050505050565b612cb6613429565b6001600160a01b0383166000818152603460205260409081902060395491517fe0ea7832000000000000000000000000000000000000000000000000000000008152600481019190915260248101929092526044820184905260648201839052608482015273__$b06080f092f400a43662c3f835a4d9baa8$__9063e0ea78329060a40160006040518083038186803b158015612d5257600080fd5b505af4158015612d66573d6000803e3d6000fd5b50505050505050565b6040517fd505accf000000000000000000000000000000000000000000000000000000008152336004820152306024820152604481018890526064810185905260ff8416608482015260a4810183905260c481018290526000906001600160a01b038a169063d505accf9060e401600060405180830381600087803b158015612df757600080fd5b505af1158015612e0b573d6000803e3d6000fd5b50506040805160a0810182526001600160a01b038d811680835260208084018f81528486018f81528e85166060870181815260006080890181815296815260348087528a8220938252603590965289902098517f7aa681a900000000000000000000000000000000000000000000000000000000815260048101959095526036602486015260448501919091526064840197909752855185166084840152905160a48301525160c4820152935190911660e4840152511515610104830152925073__$c3724b8d563dc83a94e797176cddecb3b9$__9150637aa681a99061012401602060405180830381865af4158015612f09573d6000803e3d6000fd5b505050506040513d601f19601f82011682018060405250810190612f2d9190615461565b9a9950505050505050505050565b336001600160a01b03167f00000000000000000000000000000000000000000000000000000000000000006001600160a01b031663631adfca6040518163ffffffff1660e01b8152600401602060405180830381865afa158015612fa3573d6000803e3d6000fd5b505050506040513d601f19601f82011682018060405250810190612fc7919061538a565b6001600160a01b0316146040518060400160405280600281526020017f32370000000000000000000000000000000000000000000000000000000000008152509061303f576040517f08c379a0000000000000000000000000000000000000000000000000000000008152600401611ad2919061554c565b50565b60408051808201909152600381527f313030000000000000000000000000000000000000000000000000000000000060208201526000906fffffffffffffffffffffffffffffffff8311156130c4576040517f08c379a0000000000000000000000000000000000000000000000000000000008152600401611ad2919061554c565b5090919050565b600381015460009064ffffffffff7001000000000000000000000000000000009091048116904216811415613115575050600201546fffffffffffffffffffffffffffffffff1690565b600283015460009061315c906fffffffffffffffffffffffffffffffff8082169161315691700100000000000000000000000000000000909104168561440b565b90613abb565b949350505050565b8060050160009054906101000a90046001600160a01b03166001600160a01b03166318160ddd6040518163ffffffff1660e01b8152600401602060405180830381865afa1580156131b9573d6000803e3d6000fd5b505050506040513d601f19601f820116820180604052508101906131dd9190615461565b60408051808201909152600281527f38390000000000000000000000000000000000000000000000000000000000006020820152901561324a576040517f08c379a0000000000000000000000000000000000000000000000000000000008152600401611ad2919061554c565b508060060160009054906101000a90046001600160a01b03166001600160a01b03166318160ddd6040518163ffffffff1660e01b8152600401602060405180830381865afa1580156132a0573d6000803e3d6000fd5b505050506040513d601f19601f820116820180604052508101906132c49190615461565b60408051808201909152600281527f393000000000000000000000000000000000000000000000000000000000000060208201529015613331576040517f08c379a0000000000000000000000000000000000000000000000000000000008152600401611ad2919061554c565b50600480820154604080517f18160ddd00000000000000000000000000000000000000000000000000000000815290516001600160a01b03909216926318160ddd9282820192602092908290030181865afa158015613394573d6000803e3d6000fd5b505050506040513d601f19601f820116820180604052508101906133b89190615461565b60408051808201909152600281527f383800000000000000000000000000000000000000000000000000000000000060208201529015613425576040517f08c379a0000000000000000000000000000000000000000000000000000000008152600401611ad2919061554c565b5050565b7f00000000000000000000000000000000000000000000000000000000000000006001600160a01b031663707cd7166040518163ffffffff1660e01b8152600401602060405180830381865afa158015613487573d6000803e3d6000fd5b505050506040513d601f19601f820116820180604052508101906134ab919061538a565b6040517f726600ce0000000000000000000000000000000000000000000000000000000081523360048201526001600160a01b03919091169063726600ce90602401602060405180830381865afa15801561350a573d6000803e3d6000fd5b505050506040513d601f19601f8201168201806040525081019061352e91906156e3565b6040518060400160405280600381526020017f31303200000000000000000000000000000000000000000000000000000000008152509061303f576040517f08c379a0000000000000000000000000000000000000000000000000000000008152600401611ad2919061554c565b6000813f7fc5d2460186f7233c927e7db2dcc703c0e500b653ca82273b7bfad8045d85a47081811480159061315c575050151592915050565b600485015460408051808201909152600281527f33320000000000000000000000000000000000000000000000000000000000006020820152906001600160a01b031615613650576040517f08c379a0000000000000000000000000000000000000000000000000000000008152600401611ad2919061554c565b506001850180546b033b2e3c9fd0803ce80000007fffffffffffffffffffffffffffffffff00000000000000000000000000000000918216811790925560028701805490911690911790556004850180547fffffffffffffffffffffffff00000000000000000000000000000000000000009081166001600160a01b03968716179091556005860180548216948616949094179093556006850180548416928516929092179091556007909301805490911692909116919091179055565b6001600160a01b0381166000908152603460205260408120600301547501000000000000000000000000000000000000000000900461ffff1615158061378957506000805260366020527f4cb2b152c1b54ce671907a93c300fd5aa72383a9d4ec19a81e3333632ae92e00546001600160a01b038381169116145b905080156040518060400160405280600281526020017f3332000000000000000000000000000000000000000000000000000000000000815250906137fb576040517f08c379a0000000000000000000000000000000000000000000000000000000008152600401611ad2919061554c565b50603b5468010000000000000000900461ffff1660005b8161ffff168161ffff1610156138f55761ffff81166000908152603660205260409020546001600160a01b03166138e3576001600160a01b0393909316600081815260346020908152604080832060030180547fffffffffffffffffff0000ffffffffffffffffffffffffffffffffffffffffff16750100000000000000000000000000000000000000000061ffff909916988902179055958252603690529390932080547fffffffffffffffffffffffff0000000000000000000000000000000000000000169093179092555050565b806138ed816159de565b915050613812565b5060408051808201909152600281527f36350000000000000000000000000000000000000000000000000000000000006020820152608061ffff831610613969576040517f08c379a0000000000000000000000000000000000000000000000000000000008152600401611ad2919061554c565b506001600160a01b038316600081815260346020908152604080832060030180547fffffffffffffffffff0000ffffffffffffffffffffffffffffffffffffffffff16750100000000000000000000000000000000000000000061ffff88169081029190911790915583526036909152902080547fffffffffffffffffffffffff0000000000000000000000000000000000000000169091179055613a0f816001615a00565b603b60086101000a81548161ffff021916908361ffff160217905550505050565b600381015460009064ffffffffff7001000000000000000000000000000000009091048116904216811415613a7a575050600101546fffffffffffffffffffffffffffffffff1690565b600183015460009061315c906fffffffffffffffffffffffffffffffff80821691613156917001000000000000000000000000000000009091041685614418565b600081157ffffffffffffffffffffffffffffffffffffffffffe6268e1b017bfe18bffffff83900484111517613af057600080fd5b506b033b2e3c9fd0803ce800000091026b019d971e4fe8401e74000000010490565b600080600080600080613b288760000151511590565b15613b645750600094508493508392508291507fffffffffffffffffffffffffffffffffffffffffffffffffffffffffffffffff9050816143d3565b613c376040518061032001604052806000815260200160008152602001600081526020016000815260200160008152602001600081526020016000815260200160008152602001600081526020016000815260200160008152602001600081526020016000815260200160008152602001600081526020016000815260200160008152602001600081526020016000815260200160008152602001600081526020016000815260200160006001600160a01b0316815260200160006001600160a01b031681526020016000151581525090565b608088015160ff1615613d4f5760808801805160ff908116600090815260208c81526040808320546001600160a01b03660100000000000090910481166102c088019081528651861685528f84528285205461ffff9081166102608a015296519095168452918e905290912054620100009004909216610280840152511615613d4f5760608801516102c08201516040517fb3596f070000000000000000000000000000000000000000000000000000000081526001600160a01b03918216600482015291169063b3596f0790602401602060405180830381865afa158015613d24573d6000803e3d6000fd5b505050506040513d601f19601f82011682018060405250810190613d489190615461565b6102408201525b876020015181610140015110156142d7576101408101518851613d7191614455565b613d8657610140810180516001019052613d4f565b610140810151600090815260208b905260409020546001600160a01b03166102e08201819052613dc157610140810180516001019052613d4f565b6102e08101516001600160a01b0316600090815260208c8152604091829020825180830190935280549283905260ff60a884901c81166102a0860152603084901c1660e0850181905261ffff601085901c8116610120870152909316610100850152600a9290920a9083015261024082015115801590613e4c5750816102a00151896080015160ff16145b613ee35760608901516102e08301516040517fb3596f070000000000000000000000000000000000000000000000000000000081526001600160a01b03918216600482015291169063b3596f0790602401602060405180830381865afa158015613eba573d6000803e3d6000fd5b505050506040513d601f19601f82011682018060405250810190613ede9190615461565b613eea565b8161024001515b825261012082015115801590613f0c57506101408201518951613f0c916144d9565b156140fc57613f1a81613a30565b61020083015260048181015460408b81015190517f1da24f3e0000000000000000000000000000000000000000000000000000000081526001600160a01b03918216938101939093521690631da24f3e90602401602060405180830381865afa158015613f8b573d6000803e3d6000fd5b505050506040513d601f19601f82011682018060405250810190613faf9190615461565b60408301819052610200830151613fc69190613abb565b604083018190528251613fd99190615a26565b60608301818152602084015191829081613ff557613ff5615a63565b04905250606082015161018083015161400e9190615a92565b610180830152610300820151806140285750610100820151155b151561030083015261010082015161404557816101c0015161409a565b608089015160ff1615806140655750886080015160ff16826102a0015114155b6140745781610260015161407b565b8161010001515b826060015161408a9190615a26565b826101c0015161409a9190615a92565b6101c0830152608089015160ff1615806140c05750886080015160ff16826102a0015114155b6140cf578161028001516140d6565b8161012001515b82606001516140e59190615a26565b826101e001516140f59190615a92565b6101e08301525b610140820151895161410d91614564565b156142c557600581015460408a81015190517f70a082310000000000000000000000000000000000000000000000000000000081526001600160a01b0391821660048201529116906370a0823190602401602060405180830381865afa15801561417b573d6000803e3d6000fd5b505050506040513d601f19601f8201168201806040525081019061419f9190615461565b60a0830152600681015460408a81015190517f1da24f3e0000000000000000000000000000000000000000000000000000000081526001600160a01b039182166004820152911690631da24f3e90602401602060405180830381865afa15801561420d573d6000803e3d6000fd5b505050506040513d601f19601f820116820180604052508101906142319190615461565b608083018190521561426257614246816130cb565b6102208301819052608083015161425c91613abb565b60808301525b8160a0015182608001516142769190615a92565b6080830181905282516142899190615a26565b60c083018181526020840151918290816142a5576142a5615a63565b0490525060c08201516101a08301516142be9190615a92565b6101a08301525b50610140810180516001019052613d4f565b6000816101800151116142eb576000614306565b806101800151816101c001518161430457614304615a63565b045b6101c082015261018081015161431d576000614338565b806101800151816101e001518161433657614336615a63565b045b6101e08201526101a08101511561437a57614375816101a0015161436f836101e001518461018001516145e890919063ffffffff16565b9061462b565b61439c565b7fffffffffffffffffffffffffffffffffffffffffffffffffffffffffffffffff5b61016082018190526101808201516101a08301516101c08401516101e085015161030090950151929a509098509650919450925090505b9499939850945094509450565b6000806143ed85846145e8565b90508381101561440157600091505061101a565b6112c784826158ff565b600061101a83834261465f565b60008061442c64ffffffffff8416426158ff565b6144369085615a26565b6301e133809004905061315c816b033b2e3c9fd0803ce8000000615a92565b60408051808201909152600281527f37370000000000000000000000000000000000000000000000000000000000006020820152600090608083106144c7576040517f08c379a0000000000000000000000000000000000000000000000000000000008152600401611ad2919061554c565b50509051600360029092021c16151590565b60408051808201909152600281527f373700000000000000000000000000000000000000000000000000000000000060208201526000906080831061454b576040517f08c379a0000000000000000000000000000000000000000000000000000000008152600401611ad2919061554c565b5050815160016002830281019190911c16151592915050565b60408051808201909152600281527f37370000000000000000000000000000000000000000000000000000000000006020820152600090608083106145d6576040517f08c379a0000000000000000000000000000000000000000000000000000000008152600401611ad2919061554c565b50509051600160029092021c16151590565b600081157fffffffffffffffffffffffffffffffffffffffffffffffffffffffffffffec778390048411151761461d57600080fd5b506127109102611388010490565b6000670de0b6b3a764000060028304190483111561464857600080fd5b50670de0b6b3a76400009190910260028204010490565b60008061467364ffffffffff8516846158ff565b90508061468f576b033b2e3c9fd0803ce800000091505061101a565b7fffffffffffffffffffffffffffffffffffffffffffffffffffffffffffffffff810160008080600285116146c55760006146ca565b600285035b925066038882915c40006146de8a80613abb565b816146eb576146eb615a63565b0491506301e133806146fd838b613abb565b8161470a5761470a615a63565b04905060008261471a8688615a26565b6147249190615a26565b60029004905060008285614738888a615a26565b6147429190615a26565b61474c9190615a26565b60069004905080826301e133806147638a8f615a26565b61476d9190615aaa565b614783906b033b2e3c9fd0803ce8000000615a92565b61478d9190615a92565b6147979190615a92565b9b9a5050505050505050505050565b8280546147b2906154f8565b90600052602060002090601f0160209004810192826147d4576000855561481a565b82601f106147ed57805160ff191683800117855561481a565b8280016001018555821561481a579182015b8281111561481a5782518255916020019190600101906147ff565b5061482692915061482a565b5090565b5b80821115614826576000815560010161482b565b6001600160a01b038116811461303f57600080fd5b803561485f8161483f565b919050565b801515811461303f57600080fd5b600080600080600060a0868803121561488a57600080fd5b85356148958161483f565b945060208601356148a58161483f565b935060408601356148b58161483f565b92506060860135915060808601356148cc81614864565b809150509295509295909350565b803561ffff8116811461485f57600080fd5b803560ff8116811461485f57600080fd5b600080600080600080600080610100898b03121561491a57600080fd5b88356149258161483f565b975060208901359650604089013561493c8161483f565b955061494a60608a016148da565b94506080890135935061495f60a08a016148ec565b925060c0890135915060e089013590509295985092959890939650565b6000806040838503121561498f57600080fd5b50508035926020909101359150565b600080604083850312156149b157600080fd5b82356149bc8161483f565b915060208301356149cc8161483f565b809150509250929050565b6000602082840312156149e957600080fd5b61101a826148ec565b600080600060608486031215614a0757600080fd5b8335614a128161483f565b95602085013595506040909401359392505050565b600060208284031215614a3957600080fd5b5035919050565b600060208284031215614a5257600080fd5b813561101a8161483f565b81515181526101e081016020830151614a8a60208401826fffffffffffffffffffffffffffffffff169052565b506040830151614aae60408401826fffffffffffffffffffffffffffffffff169052565b506060830151614ad260608401826fffffffffffffffffffffffffffffffff169052565b506080830151614af660808401826fffffffffffffffffffffffffffffffff169052565b5060a0830151614b1a60a08401826fffffffffffffffffffffffffffffffff169052565b5060c0830151614b3360c084018264ffffffffff169052565b5060e0830151614b4960e084018261ffff169052565b50610100838101516001600160a01b039081169184019190915261012080850151821690840152610140808501518216908401526101608085015190911690830152610180808401516fffffffffffffffffffffffffffffffff908116918401919091526101a0808501518216908401526101c09384015116929091019190915290565b60008083601f840112614bdf57600080fd5b50813567ffffffffffffffff811115614bf757600080fd5b602083019150836020828501011115614c0f57600080fd5b9250929050565b60008060008060008060a08789031215614c2f57600080fd5b8635614c3a8161483f565b95506020870135614c4a8161483f565b945060408701359350606087013567ffffffffffffffff811115614c6d57600080fd5b614c7989828a01614bcd565b9094509250614c8c9050608088016148da565b90509295509295509295565b60008060008060808587031215614cae57600080fd5b8435614cb98161483f565b935060208501359250604085013591506060850135614cd78161483f565b939692955090935050565b60008060408385031215614cf557600080fd5b8235614d008161483f565b915060208301356149cc81614864565b60008060008060808587031215614d2657600080fd5b8435614d318161483f565b9350602085013592506040850135614d488161483f565b9150614d56606086016148da565b905092959194509250565b600080600060608486031215614d7657600080fd5b8335614d818161483f565b9250602084013591506040840135614d988161483f565b809150509250925092565b6000815180845260005b81811015614dc957602081850181015186830182015201614dad565b81811115614ddb576000602083870101525b50601f017fffffffffffffffffffffffffffffffffffffffffffffffffffffffffffffffe0169290920160200192915050565b60208152600061ffff808451166020840152806020850151166040840152806040850151166060840152506001600160a01b036060840151166080830152608083015160a08084015261315c60c0840182614da3565b600080600080600060a08688031215614e7c57600080fd5b8535614e878161483f565b94506020860135614e978161483f565b93506040860135614ea78161483f565b92506060860135614eb78161483f565b915060808601356148cc8161483f565b60008060408385031215614eda57600080fd5b8235614ee58161483f565b946020939093013593505050565b60008083601f840112614f0557600080fd5b50813567ffffffffffffffff811115614f1d57600080fd5b6020830191508360208260051b8501011115614c0f57600080fd5b60008060208385031215614f4b57600080fd5b823567ffffffffffffffff811115614f6257600080fd5b614f6e85828601614ef3565b90969095509350505050565b600080600080600060a08688031215614f9257600080fd5b8535614f9d8161483f565b94506020860135935060408601359250614eb7606087016148da565b600080600080600080600080600080600060e08c8e031215614fda57600080fd5b614fe38c614854565b9a5067ffffffffffffffff8060208e01351115614fff57600080fd5b61500f8e60208f01358f01614ef3565b909b50995060408d013581101561502557600080fd5b6150358e60408f01358f01614ef3565b909950975060608d013581101561504b57600080fd5b61505b8e60608f01358f01614ef3565b909750955061506c60808e01614854565b94508060a08e0135111561507f57600080fd5b506150908d60a08e01358e01614bcd565b90935091506150a160c08d016148da565b90509295989b509295989b9093969950565b6020808252825182820181905260009190848201906040850190845b818110156150f45783516001600160a01b0316835292840192918401916001016150cf565b50909695505050505050565b7f4e487b7100000000000000000000000000000000000000000000000000000000600052604160045260246000fd5b60405160a0810167ffffffffffffffff8111828210171561515257615152615100565b60405290565b604051601f82017fffffffffffffffffffffffffffffffffffffffffffffffffffffffffffffffe016810167ffffffffffffffff8111828210171561519f5761519f615100565b604052919050565b600080604083850312156151ba57600080fd5b6151c3836148ec565b915060208084013567ffffffffffffffff808211156151e157600080fd5b9085019060a082880312156151f557600080fd5b6151fd61512f565b615206836148da565b81526152138484016148da565b84820152615223604084016148da565b604082015260608301356152368161483f565b606082015260808301358281111561524d57600080fd5b80840193505087601f84011261526257600080fd5b82358281111561527457615274615100565b6152a4857fffffffffffffffffffffffffffffffffffffffffffffffffffffffffffffffe0601f84011601615158565b925080835288858286010111156152ba57600080fd5b8085850186850137600085828501015250816080820152809450505050509250929050565b60008060008060008060c087890312156152f857600080fd5b86356153038161483f565b955060208701356153138161483f565b945060408701356153238161483f565b959894975094956060810135955060808101359460a0909101359350915050565b600080600080600080600080610100898b03121561536157600080fd5b883561536c8161483f565b97506020890135965060408901359550606089013561494a8161483f565b60006020828403121561539c57600080fd5b815161101a8161483f565b60006101a08201905086825285602083015284604083015283606083015282516080830152602083015160a083015260408301516001600160a01b0380821660c08501528060608601511660e085015250506080830151610100615415818501836001600160a01b03169052565b60a0850151151561012085015260c08501516001600160a01b0390811661014086015260e086015160ff166101608601529085015190811661018085015290505b509695505050505050565b60006020828403121561547357600080fd5b5051919050565b8281526040602082015260006001600160a01b038084511660408401528060208501511660608401525060408301516080830152606083015160e060a08401526154c8610120840182614da3565b905061ffff60808501511660c084015260a084015160e084015260c0840151610100840152809150509392505050565b600181811c9082168061550c57607f821691505b60208210811415615546577f4e487b7100000000000000000000000000000000000000000000000000000000600052602260045260246000fd5b50919050565b60208152600061101a6020830184614da3565b7f4e487b7100000000000000000000000000000000000000000000000000000000600052603260045260246000fd5b7f4e487b7100000000000000000000000000000000000000000000000000000000600052601160045260246000fd5b60007fffffffffffffffffffffffffffffffffffffffffffffffffffffffffffffffff8214156155ef576155ef61558e565b5060010190565b85815260208101859052604081018490526060810183905281516001600160a01b03166080820152610200810160208301516001600160a01b03811660a08401525060408301516001600160a01b03811660c084015250606083015160e08301526080830151610100818185015260a0850151915061012061567d8186018461ffff169052565b60c086015192506101406156948187018515159052565b60e08701516101608781019190915292870151610180870152908601516001600160a01b039081166101a08701529086015160ff166101c0860152908501519081166101e08501529050615456565b6000602082840312156156f557600080fd5b815161101a81614864565b600081518084526020808501945080840160005b838110156157395781516001600160a01b031687529582019590820190600101615714565b509495945050505050565b600081518084526020808501945080840160005b8381101561573957815187529582019590820190600101615758565b85815284602082015283604082015282606082015260a060808201526157a660a0820183516001600160a01b03169052565b600060208301516101c08060c08501526157c4610260850183615700565b915060408501517fffffffffffffffffffffffffffffffffffffffffffffffffffffffffffffff60808685030160e08701526158008483615744565b93506060870151915061010081878603018188015261581f8584615744565b94506080880151925061012061583f818901856001600160a01b03169052565b60a089015193506101408389880301818a015261585c8786614da3565b965060c08a015194506101609350615879848a018661ffff169052565b60e08a0151945061018085818b0152838b015195506101a0935085848b0152828b0151878b0152818b01516101e08b0152848b015196506158c66102008b01886001600160a01b03169052565b8a015160ff81166102208b015295506158dd915050565b87015180151561024088015292506158f3915050565b50979650505050505050565b6000828210156159115761591161558e565b500390565b85815260208101859052604081018490526060810183905281516001600160a01b031660808201526101c0810160208301516001600160a01b03811660a08401525060408301516001600160a01b03811660c084015250606083015160e08301526080830151610100818185015260a08501519150610120828186015260c086015161014086015260e086015192506159bb6101608601846001600160a01b03169052565b9085015160ff908116610180860152908501519081166101a08501529050615456565b600061ffff808316818114156159f6576159f661558e565b6001019392505050565b600061ffff808316818516808303821115615a1d57615a1d61558e565b01949350505050565b6000817fffffffffffffffffffffffffffffffffffffffffffffffffffffffffffffffff0483118215151615615a5e57615a5e61558e565b500290565b7f4e487b7100000000000000000000000000000000000000000000000000000000600052601260045260246000fd5b60008219821115615aa557615aa561558e565b500190565b600082615ae0577f4e487b7100000000000000000000000000000000000000000000000000000000600052601260045260246000fd5b50049056fea2646970667358221220ca593111922ffd72d722f6a700311188ad75f2e886f8d0e7e297acbc4c3495d664736f6c634300080a0033",
  "linkReferences": {
    "contracts/protocol/libraries/logic/BorrowLogic.sol": {
      "BorrowLogic": [
        {
          "length": 20,
          "start": 4266
        },
        {
          "length": 20,
          "start": 4955
        },
        {
          "length": 20,
          "start": 7274
        },
        {
          "length": 20,
          "start": 7922
        },
        {
          "length": 20,
          "start": 10172
        },
        {
          "length": 20,
          "start": 12224
        }
      ]
    },
    "contracts/protocol/libraries/logic/BridgeLogic.sol": {
      "BridgeLogic": [
        {
          "length": 20,
          "start": 6646
        },
        {
          "length": 20,
          "start": 11792
        }
      ]
    },
    "contracts/protocol/libraries/logic/EModeLogic.sol": {
      "EModeLogic": [
        {
          "length": 20,
          "start": 3662
        }
      ]
    },
    "contracts/protocol/libraries/logic/FlashLoanLogic.sol": {
      "FlashLoanLogic": [
        {
          "length": 20,
          "start": 4666
        },
        {
          "length": 20,
          "start": 9095
        }
      ]
    },
    "contracts/protocol/libraries/logic/LiquidationLogic.sol": {
      "LiquidationLogic": [
        {
          "length": 20,
          "start": 2472
        }
      ]
    },
    "contracts/protocol/libraries/logic/SupplyLogic.sol": {
      "SupplyLogic": [
        {
          "length": 20,
          "start": 3346
        },
        {
          "length": 20,
          "start": 5061
        },
        {
          "length": 20,
          "start": 5638
        },
        {
          "length": 20,
          "start": 6031
        },
        {
          "length": 20,
          "start": 11200
        }
      ]
    }
  },
  "deployedLinkReferences": {
    "contracts/protocol/libraries/logic/BorrowLogic.sol": {
      "BorrowLogic": [
        {
          "length": 20,
          "start": 4023
        },
        {
          "length": 20,
          "start": 4712
        },
        {
          "length": 20,
          "start": 7031
        },
        {
          "length": 20,
          "start": 7679
        },
        {
          "length": 20,
          "start": 9929
        },
        {
          "length": 20,
          "start": 11981
        }
      ]
    },
    "contracts/protocol/libraries/logic/BridgeLogic.sol": {
      "BridgeLogic": [
        {
          "length": 20,
          "start": 6403
        },
        {
          "length": 20,
          "start": 11549
        }
      ]
    },
    "contracts/protocol/libraries/logic/EModeLogic.sol": {
      "EModeLogic": [
        {
          "length": 20,
          "start": 3419
        }
      ]
    },
    "contracts/protocol/libraries/logic/FlashLoanLogic.sol": {
      "FlashLoanLogic": [
        {
          "length": 20,
          "start": 4423
        },
        {
          "length": 20,
          "start": 8852
        }
      ]
    },
    "contracts/protocol/libraries/logic/LiquidationLogic.sol": {
      "LiquidationLogic": [
        {
          "length": 20,
          "start": 2229
        }
      ]
    },
    "contracts/protocol/libraries/logic/SupplyLogic.sol": {
      "SupplyLogic": [
        {
          "length": 20,
          "start": 3103
        },
        {
          "length": 20,
          "start": 4818
        },
        {
          "length": 20,
          "start": 5395
        },
        {
          "length": 20,
          "start": 5788
        },
        {
          "length": 20,
          "start": 10957
        }
      ]
    }
  }
}