{
  "_format": "hh-sol-artifact-1",
  "contractName": "PoolAddressesProviderRegistry",
  "sourceName": "contracts/protocol/configuration/PoolAddressesProviderRegistry.sol",
  "abi": [
    {
      "anonymous": false,
      "inputs": [
        {
          "indexed": true,
          "internalType": "address",
          "name": "newAddress",
          "type": "address"
        }
      ],
      "name": "AddressesProviderRegistered",
      "type": "event"
    },
    {
      "anonymous": false,
      "inputs": [
        {
          "indexed": true,
          "internalType": "address",
          "name": "newAddress",
          "type": "address"
        }
      ],
      "name": "AddressesProviderUnregistered",
      "type": "event"
    },
    {
      "anonymous": false,
      "inputs": [
        {
          "indexed": true,
          "internalType": "address",
          "name": "previousOwner",
          "type": "address"
        },
        {
          "indexed": true,
          "internalType": "address",
          "name": "newOwner",
          "type": "address"
        }
      ],
      "name": "OwnershipTransferred",
      "type": "event"
    },
    {
      "inputs": [
        {
          "internalType": "address",
          "name": "addressesProvider",
          "type": "address"
        }
      ],
      "name": "getAddressesProviderIdByAddress",
      "outputs": [
        {
          "internalType": "uint256",
          "name": "",
          "type": "uint256"
        }
      ],
      "stateMutability": "view",
      "type": "function"
    },
    {
      "inputs": [],
      "name": "getAddressesProvidersList",
      "outputs": [
        {
          "internalType": "address[]",
          "name": "",
          "type": "address[]"
        }
      ],
      "stateMutability": "view",
      "type": "function"
    },
    {
      "inputs": [],
      "name": "owner",
      "outputs": [
        {
          "internalType": "address",
          "name": "",
          "type": "address"
        }
      ],
      "stateMutability": "view",
      "type": "function"
    },
    {
      "inputs": [
        {
          "internalType": "address",
          "name": "provider",
          "type": "address"
        },
        {
          "internalType": "uint256",
          "name": "id",
          "type": "uint256"
        }
      ],
      "name": "registerAddressesProvider",
      "outputs": [],
      "stateMutability": "nonpayable",
      "type": "function"
    },
    {
      "inputs": [],
      "name": "renounceOwnership",
      "outputs": [],
      "stateMutability": "nonpayable",
      "type": "function"
    },
    {
      "inputs": [
        {
          "internalType": "address",
          "name": "newOwner",
          "type": "address"
        }
      ],
      "name": "transferOwnership",
      "outputs": [],
      "stateMutability": "nonpayable",
      "type": "function"
    },
    {
      "inputs": [
        {
          "internalType": "address",
          "name": "provider",
          "type": "address"
        }
      ],
      "name": "unregisterAddressesProvider",
      "outputs": [],
      "stateMutability": "nonpayable",
      "type": "function"
    }
  ],
  "bytecode": "0x608060405234801561001057600080fd5b50600080546001600160a01b031916339081178255604051909182917f8be0079c531659141344cd1fd0a4f28419497f9722a3daafe3b4186f6b6457e0908290a350610bab806100616000396000f3fe608060405234801561001057600080fd5b506004361061007d5760003560e01c80638da5cb5b1161005b5780638da5cb5b146100bd578063d0267be7146100e5578063d258191e14610129578063f2fde38b1461013c57600080fd5b80630de2670714610082578063365ccbbf14610097578063715018a6146100b5575b600080fd5b61009561009036600461099e565b61014f565b005b61009f6102d8565b6040516100ac91906109c0565b60405180910390f35b610095610480565b60005460405173ffffffffffffffffffffffffffffffffffffffff90911681526020016100ac565b61011b6100f336600461099e565b73ffffffffffffffffffffffffffffffffffffffff1660009081526001602052604090205490565b6040519081526020016100ac565b610095610137366004610a1a565b610570565b61009561014a36600461099e565b6106d4565b60005473ffffffffffffffffffffffffffffffffffffffff1633146101d5576040517f08c379a000000000000000000000000000000000000000000000000000000000815260206004820181905260248201527f4f776e61626c653a2063616c6c6572206973206e6f7420746865206f776e657260448201526064015b60405180910390fd5b6000600160008373ffffffffffffffffffffffffffffffffffffffff1673ffffffffffffffffffffffffffffffffffffffff16815260200190815260200160002054116040518060400160405280600281526020017f343100000000000000000000000000000000000000000000000000000000000081525090610286576040517f08c379a00000000000000000000000000000000000000000000000000000000081526004016101cc9190610a44565b5073ffffffffffffffffffffffffffffffffffffffff8116600081815260016020526040808220829055517f851e5971c053e6b76e3a1e0b8ffa81430df738007fad86e195c409a757faccd29190a250565b60606000600280548060200260200160405190810160405280929190818152602001828054801561033f57602002820191906000526020600020905b815473ffffffffffffffffffffffffffffffffffffffff168152600190910190602001808311610314575b5050505050905060008151905060008167ffffffffffffffff81111561036757610367610ab7565b604051908082528060200260200182016040528015610390578160200160208202803683370190505b50905060005b82811015610478576000600160008684815181106103b6576103b6610ae6565b602002602001015173ffffffffffffffffffffffffffffffffffffffff1673ffffffffffffffffffffffffffffffffffffffff1681526020019081526020016000205411156104665783818151811061041157610411610ae6565b602002602001015182828151811061042b5761042b610ae6565b602002602001019073ffffffffffffffffffffffffffffffffffffffff16908173ffffffffffffffffffffffffffffffffffffffff16815250505b8061047081610b15565b915050610396565b509392505050565b60005473ffffffffffffffffffffffffffffffffffffffff163314610501576040517f08c379a000000000000000000000000000000000000000000000000000000000815260206004820181905260248201527f4f776e61626c653a2063616c6c6572206973206e6f7420746865206f776e657260448201526064016101cc565b6000805460405173ffffffffffffffffffffffffffffffffffffffff909116907f8be0079c531659141344cd1fd0a4f28419497f9722a3daafe3b4186f6b6457e0908390a3600080547fffffffffffffffffffffffff0000000000000000000000000000000000000000169055565b60005473ffffffffffffffffffffffffffffffffffffffff1633146105f1576040517f08c379a000000000000000000000000000000000000000000000000000000000815260206004820181905260248201527f4f776e61626c653a2063616c6c6572206973206e6f7420746865206f776e657260448201526064016101cc565b60408051808201909152600281527f373200000000000000000000000000000000000000000000000000000000000060208201528161065d576040517f08c379a00000000000000000000000000000000000000000000000000000000081526004016101cc9190610a44565b5073ffffffffffffffffffffffffffffffffffffffff8216600090815260016020526040902081905561068f82610885565b60405173ffffffffffffffffffffffffffffffffffffffff8316907f2db38786c10176b033a1608361716b0ca992e3af55dc05b6dc710969790beeda90600090a25050565b60005473ffffffffffffffffffffffffffffffffffffffff163314610755576040517f08c379a000000000000000000000000000000000000000000000000000000000815260206004820181905260248201527f4f776e61626c653a2063616c6c6572206973206e6f7420746865206f776e657260448201526064016101cc565b73ffffffffffffffffffffffffffffffffffffffff81166107f8576040517f08c379a000000000000000000000000000000000000000000000000000000000815260206004820152602660248201527f4f776e61626c653a206e6577206f776e657220697320746865207a65726f206160448201527f646472657373000000000000000000000000000000000000000000000000000060648201526084016101cc565b6000805460405173ffffffffffffffffffffffffffffffffffffffff808516939216917f8be0079c531659141344cd1fd0a4f28419497f9722a3daafe3b4186f6b6457e091a3600080547fffffffffffffffffffffffff00000000000000000000000000000000000000001673ffffffffffffffffffffffffffffffffffffffff92909216919091179055565b60025460005b818110156108fc578273ffffffffffffffffffffffffffffffffffffffff16600282815481106108bd576108bd610ae6565b60009182526020909120015473ffffffffffffffffffffffffffffffffffffffff1614156108ea57505050565b806108f481610b15565b91505061088b565b5050600280546001810182556000919091527f405787fa12a823e0f2b7631cc41b3ba8828b3321ca811111fa75cd3aa3bb5ace0180547fffffffffffffffffffffffff00000000000000000000000000000000000000001673ffffffffffffffffffffffffffffffffffffffff92909216919091179055565b803573ffffffffffffffffffffffffffffffffffffffff8116811461099957600080fd5b919050565b6000602082840312156109b057600080fd5b6109b982610975565b9392505050565b6020808252825182820181905260009190848201906040850190845b81811015610a0e57835173ffffffffffffffffffffffffffffffffffffffff16835292840192918401916001016109dc565b50909695505050505050565b60008060408385031215610a2d57600080fd5b610a3683610975565b946020939093013593505050565b600060208083528351808285015260005b81811015610a7157858101830151858201604001528201610a55565b81811115610a83576000604083870101525b50601f017fffffffffffffffffffffffffffffffffffffffffffffffffffffffffffffffe016929092016040019392505050565b7f4e487b7100000000000000000000000000000000000000000000000000000000600052604160045260246000fd5b7f4e487b7100000000000000000000000000000000000000000000000000000000600052603260045260246000fd5b60007fffffffffffffffffffffffffffffffffffffffffffffffffffffffffffffffff821415610b6e577f4e487b7100000000000000000000000000000000000000000000000000000000600052601160045260246000fd5b506001019056fea2646970667358221220f2afc77390928a67c6db78807283891d9f4a1c1c87ebe74f57a487993b6f18c964736f6c634300080a0033",
  "linkReferences": {},
  "deployedLinkReferences": {}
}